{
  "_format": "hh-sol-artifact-1",
  "contractName": "RSKNFT",
  "sourceName": "contracts/RSKNFT.sol",
  "abi": [
    {
      "inputs": [],
      "stateMutability": "nonpayable",
      "type": "constructor"
    },
    {
      "anonymous": false,
      "inputs": [
        {
          "indexed": true,
          "internalType": "address",
          "name": "owner",
          "type": "address"
        },
        {
          "indexed": true,
          "internalType": "address",
          "name": "approved",
          "type": "address"
        },
        {
          "indexed": true,
          "internalType": "uint256",
          "name": "tokenId",
          "type": "uint256"
        }
      ],
      "name": "Approval",
      "type": "event"
    },
    {
      "anonymous": false,
      "inputs": [
        {
          "indexed": true,
          "internalType": "address",
          "name": "owner",
          "type": "address"
        },
        {
          "indexed": true,
          "internalType": "address",
          "name": "operator",
          "type": "address"
        },
        {
          "indexed": false,
          "internalType": "bool",
          "name": "approved",
          "type": "bool"
        }
      ],
      "name": "ApprovalForAll",
      "type": "event"
    },
    {
      "anonymous": false,
      "inputs": [
        {
          "indexed": false,
          "internalType": "uint256",
          "name": "listingId",
          "type": "uint256"
        },
        {
          "indexed": true,
          "internalType": "address",
          "name": "seller",
          "type": "address"
        },
        {
          "indexed": true,
          "internalType": "address",
          "name": "bidder",
          "type": "address"
        },
        {
          "indexed": false,
          "internalType": "uint256",
          "name": "bid",
          "type": "uint256"
        },
        {
          "indexed": false,
          "internalType": "string",
          "name": "message",
          "type": "string"
        }
      ],
      "name": "AuctionCompleted",
      "type": "event"
    },
    {
      "anonymous": false,
      "inputs": [
        {
          "indexed": false,
          "internalType": "uint256",
          "name": "listingId",
          "type": "uint256"
        },
        {
          "indexed": true,
          "internalType": "address",
          "name": "seller",
          "type": "address"
        },
        {
          "indexed": false,
          "internalType": "uint256",
          "name": "price",
          "type": "uint256"
        },
        {
          "indexed": false,
          "internalType": "uint256",
          "name": "tokenId",
          "type": "uint256"
        },
        {
          "indexed": false,
          "internalType": "uint256",
          "name": "startAt",
          "type": "uint256"
        },
        {
          "indexed": false,
          "internalType": "uint256",
          "name": "endAt",
          "type": "uint256"
        },
        {
          "indexed": false,
          "internalType": "string",
          "name": "message",
          "type": "string"
        }
      ],
      "name": "AuctionCreated",
      "type": "event"
    },
    {
      "anonymous": false,
      "inputs": [
        {
          "indexed": false,
          "internalType": "uint256",
          "name": "_fromTokenId",
          "type": "uint256"
        },
        {
          "indexed": false,
          "internalType": "uint256",
          "name": "_toTokenId",
          "type": "uint256"
        }
      ],
      "name": "BatchMetadataUpdate",
      "type": "event"
    },
    {
      "anonymous": false,
      "inputs": [
        {
          "indexed": false,
          "internalType": "uint256",
          "name": "listingId",
          "type": "uint256"
        },
        {
          "indexed": true,
          "internalType": "address",
          "name": "bidder",
          "type": "address"
        },
        {
          "indexed": false,
          "internalType": "uint256",
          "name": "bid",
          "type": "uint256"
        },
        {
          "indexed": false,
          "internalType": "string",
          "name": "message",
          "type": "string"
        }
      ],
      "name": "BidCreated",
      "type": "event"
    },
    {
      "anonymous": false,
      "inputs": [
        {
          "indexed": false,
          "internalType": "uint256",
          "name": "_tokenId",
          "type": "uint256"
        }
      ],
      "name": "MetadataUpdate",
      "type": "event"
    },
    {
      "anonymous": false,
      "inputs": [
        {
          "indexed": false,
          "internalType": "uint256",
          "name": "tokenId",
          "type": "uint256"
        },
        {
          "indexed": false,
          "internalType": "address",
          "name": "owner",
          "type": "address"
        },
        {
          "indexed": false,
          "internalType": "address",
          "name": "seller",
          "type": "address"
        },
        {
          "indexed": false,
          "internalType": "uint256",
          "name": "price",
          "type": "uint256"
        },
        {
          "indexed": false,
          "internalType": "bool",
          "name": "sold",
          "type": "bool"
        },
        {
          "indexed": false,
          "internalType": "string",
          "name": "message",
          "type": "string"
        }
      ],
      "name": "NFT_Action",
      "type": "event"
    },
    {
      "anonymous": false,
      "inputs": [
        {
          "indexed": true,
          "internalType": "address",
          "name": "from",
          "type": "address"
        },
        {
          "indexed": true,
          "internalType": "address",
          "name": "to",
          "type": "address"
        },
        {
          "indexed": true,
          "internalType": "uint256",
          "name": "tokenId",
          "type": "uint256"
        }
      ],
      "name": "Transfer",
      "type": "event"
    },
    {
      "anonymous": false,
      "inputs": [
        {
          "indexed": false,
          "internalType": "uint256",
          "name": "listingId",
          "type": "uint256"
        },
        {
          "indexed": true,
          "internalType": "address",
          "name": "bidder",
          "type": "address"
        },
        {
          "indexed": false,
          "internalType": "uint256",
          "name": "bid",
          "type": "uint256"
        },
        {
          "indexed": false,
          "internalType": "string",
          "name": "message",
          "type": "string"
        }
      ],
      "name": "WithdrawBid",
      "type": "event"
    },
    {
      "inputs": [],
      "name": "COMPLETED_STATUS",
      "outputs": [
        {
          "internalType": "uint8",
          "name": "",
          "type": "uint8"
        }
      ],
      "stateMutability": "view",
      "type": "function"
    },
    {
      "inputs": [],
      "name": "OPEN_STATUS",
      "outputs": [
        {
          "internalType": "uint8",
          "name": "",
          "type": "uint8"
        }
      ],
      "stateMutability": "view",
      "type": "function"
    },
    {
      "inputs": [],
      "name": "allNfts",
      "outputs": [
        {
          "components": [
            {
              "internalType": "address",
              "name": "owner",
              "type": "address"
            },
            {
              "internalType": "address",
              "name": "seller",
              "type": "address"
            },
            {
              "internalType": "uint256",
              "name": "price",
              "type": "uint256"
            },
            {
              "internalType": "bool",
              "name": "sold",
              "type": "bool"
            },
            {
              "internalType": "uint256",
              "name": "tokenId",
              "type": "uint256"
            }
          ],
          "internalType": "struct RSKNFT.NFT[]",
          "name": "",
          "type": "tuple[]"
        }
      ],
      "stateMutability": "view",
      "type": "function"
    },
    {
      "inputs": [
        {
          "internalType": "address",
          "name": "to",
          "type": "address"
        },
        {
          "internalType": "uint256",
          "name": "tokenId",
          "type": "uint256"
        }
      ],
      "name": "approve",
      "outputs": [],
      "stateMutability": "nonpayable",
      "type": "function"
    },
    {
      "inputs": [
        {
          "internalType": "address",
          "name": "owner",
          "type": "address"
        }
      ],
      "name": "balanceOf",
      "outputs": [
        {
          "internalType": "uint256",
          "name": "",
          "type": "uint256"
        }
      ],
      "stateMutability": "view",
      "type": "function"
    },
    {
      "inputs": [
        {
          "internalType": "uint256",
          "name": "listingId",
          "type": "uint256"
        }
      ],
      "name": "bid",
      "outputs": [],
      "stateMutability": "payable",
      "type": "function"
    },
    {
      "inputs": [
        {
          "internalType": "uint256",
          "name": "",
          "type": "uint256"
        },
        {
          "internalType": "address",
          "name": "",
          "type": "address"
        }
      ],
      "name": "bids",
      "outputs": [
        {
          "internalType": "uint256",
          "name": "",
          "type": "uint256"
        }
      ],
      "stateMutability": "view",
      "type": "function"
    },
    {
      "inputs": [
        {
          "internalType": "uint256",
          "name": "listingId",
          "type": "uint256"
        }
      ],
      "name": "completeAuction",
      "outputs": [],
      "stateMutability": "payable",
      "type": "function"
    },
    {
      "inputs": [
        {
          "internalType": "uint256",
          "name": "price",
          "type": "uint256"
        },
        {
          "internalType": "uint256",
          "name": "tokenId",
          "type": "uint256"
        },
        {
          "internalType": "uint256",
          "name": "durationInSeconds",
          "type": "uint256"
        }
      ],
      "name": "createAuctionListing",
      "outputs": [
        {
          "internalType": "uint256",
          "name": "",
          "type": "uint256"
        }
      ],
      "stateMutability": "nonpayable",
      "type": "function"
    },
    {
      "inputs": [
        {
          "internalType": "uint256",
          "name": "tokenId",
          "type": "uint256"
        }
      ],
      "name": "getApproved",
      "outputs": [
        {
          "internalType": "address",
          "name": "",
          "type": "address"
        }
      ],
      "stateMutability": "view",
      "type": "function"
    },
    {
      "inputs": [
        {
          "internalType": "uint256",
          "name": "tokenId",
          "type": "uint256"
        }
      ],
      "name": "getNftPrice",
      "outputs": [
        {
          "internalType": "uint256",
          "name": "",
          "type": "uint256"
        }
      ],
      "stateMutability": "view",
      "type": "function"
    },
    {
      "inputs": [
        {
          "internalType": "uint256",
          "name": "",
          "type": "uint256"
        }
      ],
      "name": "highestBidder",
      "outputs": [
        {
          "internalType": "address",
          "name": "",
          "type": "address"
        }
      ],
      "stateMutability": "view",
      "type": "function"
    },
    {
      "inputs": [
        {
          "internalType": "address",
          "name": "owner",
          "type": "address"
        },
        {
          "internalType": "address",
          "name": "operator",
          "type": "address"
        }
      ],
      "name": "isApprovedForAll",
      "outputs": [
        {
          "internalType": "bool",
          "name": "",
          "type": "bool"
        }
      ],
      "stateMutability": "view",
      "type": "function"
    },
    {
      "inputs": [
        {
          "internalType": "uint256",
          "name": "id",
          "type": "uint256"
        }
      ],
      "name": "isAuctionExpired",
      "outputs": [
        {
          "internalType": "bool",
          "name": "",
          "type": "bool"
        }
      ],
      "stateMutability": "view",
      "type": "function"
    },
    {
      "inputs": [
        {
          "internalType": "uint256",
          "name": "id",
          "type": "uint256"
        }
      ],
      "name": "isAuctionOpen",
      "outputs": [
        {
          "internalType": "bool",
          "name": "",
          "type": "bool"
        }
      ],
      "stateMutability": "view",
      "type": "function"
    },
    {
      "inputs": [
        {
          "internalType": "uint256",
          "name": "",
          "type": "uint256"
        }
      ],
      "name": "listings",
      "outputs": [
        {
          "internalType": "address",
          "name": "seller",
          "type": "address"
        },
        {
          "internalType": "address",
          "name": "owner",
          "type": "address"
        },
        {
          "internalType": "uint256",
          "name": "tokenId",
          "type": "uint256"
        },
        {
          "internalType": "uint256",
          "name": "price",
          "type": "uint256"
        },
        {
          "internalType": "uint256",
          "name": "netPrice",
          "type": "uint256"
        },
        {
          "internalType": "uint256",
          "name": "startAt",
          "type": "uint256"
        },
        {
          "internalType": "uint256",
          "name": "endAt",
          "type": "uint256"
        },
        {
          "internalType": "uint8",
          "name": "status",
          "type": "uint8"
        }
      ],
      "stateMutability": "view",
      "type": "function"
    },
    {
      "inputs": [],
      "name": "minAuctionIncrement",
      "outputs": [
        {
          "internalType": "uint256",
          "name": "",
          "type": "uint256"
        }
      ],
      "stateMutability": "view",
      "type": "function"
    },
    {
      "inputs": [
        {
          "internalType": "string",
          "name": "_tokenURI",
          "type": "string"
        },
        {
          "internalType": "uint256",
          "name": "price",
          "type": "uint256"
        },
        {
          "internalType": "uint256",
          "name": "durationInSeconds",
          "type": "uint256"
        }
      ],
      "name": "mintAuctionToken",
      "outputs": [
        {
          "internalType": "uint256",
          "name": "",
          "type": "uint256"
        }
      ],
      "stateMutability": "nonpayable",
      "type": "function"
    },
    {
      "inputs": [
        {
          "internalType": "string",
          "name": "_tokenURI",
          "type": "string"
        },
        {
          "internalType": "uint256",
          "name": "price",
          "type": "uint256"
        }
      ],
      "name": "mintToken",
      "outputs": [
        {
          "internalType": "uint256",
          "name": "",
          "type": "uint256"
        }
      ],
      "stateMutability": "nonpayable",
      "type": "function"
    },
    {
      "inputs": [],
      "name": "name",
      "outputs": [
        {
          "internalType": "string",
          "name": "",
          "type": "string"
        }
      ],
      "stateMutability": "view",
      "type": "function"
    },
    {
      "inputs": [
        {
          "internalType": "uint256",
          "name": "tokenId",
          "type": "uint256"
        }
      ],
      "name": "ownerOf",
      "outputs": [
        {
          "internalType": "address",
          "name": "",
          "type": "address"
        }
      ],
      "stateMutability": "view",
      "type": "function"
    },
    {
      "inputs": [
        {
          "internalType": "address",
          "name": "from",
          "type": "address"
        },
        {
          "internalType": "address",
          "name": "to",
          "type": "address"
        },
        {
          "internalType": "uint256",
          "name": "tokenId",
          "type": "uint256"
        }
      ],
      "name": "safeTransferFrom",
      "outputs": [],
      "stateMutability": "nonpayable",
      "type": "function"
    },
    {
      "inputs": [
        {
          "internalType": "address",
          "name": "from",
          "type": "address"
        },
        {
          "internalType": "address",
          "name": "to",
          "type": "address"
        },
        {
          "internalType": "uint256",
          "name": "tokenId",
          "type": "uint256"
        },
        {
          "internalType": "bytes",
          "name": "data",
          "type": "bytes"
        }
      ],
      "name": "safeTransferFrom",
      "outputs": [],
      "stateMutability": "nonpayable",
      "type": "function"
    },
    {
      "inputs": [
        {
          "internalType": "uint256",
          "name": "tokenId",
          "type": "uint256"
        }
      ],
      "name": "sellNFT",
      "outputs": [],
      "stateMutability": "payable",
      "type": "function"
    },
    {
      "inputs": [
        {
          "internalType": "address",
          "name": "operator",
          "type": "address"
        },
        {
          "internalType": "bool",
          "name": "approved",
          "type": "bool"
        }
      ],
      "name": "setApprovalForAll",
      "outputs": [],
      "stateMutability": "nonpayable",
      "type": "function"
    },
    {
      "inputs": [
        {
          "internalType": "uint256",
          "name": "tokenId",
          "type": "uint256"
        }
      ],
      "name": "singleNFT",
      "outputs": [
        {
          "components": [
            {
              "internalType": "address",
              "name": "owner",
              "type": "address"
            },
            {
              "internalType": "address",
              "name": "seller",
              "type": "address"
            },
            {
              "internalType": "uint256",
              "name": "price",
              "type": "uint256"
            },
            {
              "internalType": "bool",
              "name": "sold",
              "type": "bool"
            },
            {
              "internalType": "uint256",
              "name": "tokenId",
              "type": "uint256"
            }
          ],
          "internalType": "struct RSKNFT.NFT",
          "name": "props",
          "type": "tuple"
        }
      ],
      "stateMutability": "view",
      "type": "function"
    },
    {
      "inputs": [
        {
          "internalType": "bytes4",
          "name": "interfaceId",
          "type": "bytes4"
        }
      ],
      "name": "supportsInterface",
      "outputs": [
        {
          "internalType": "bool",
          "name": "",
          "type": "bool"
        }
      ],
      "stateMutability": "view",
      "type": "function"
    },
    {
      "inputs": [],
      "name": "symbol",
      "outputs": [
        {
          "internalType": "string",
          "name": "",
          "type": "string"
        }
      ],
      "stateMutability": "view",
      "type": "function"
    },
    {
      "inputs": [
        {
          "internalType": "uint256",
          "name": "tokenId",
          "type": "uint256"
        }
      ],
      "name": "tokenURI",
      "outputs": [
        {
          "internalType": "string",
          "name": "",
          "type": "string"
        }
      ],
      "stateMutability": "view",
      "type": "function"
    },
    {
      "inputs": [
        {
          "internalType": "address",
          "name": "from",
          "type": "address"
        },
        {
          "internalType": "address",
          "name": "to",
          "type": "address"
        },
        {
          "internalType": "uint256",
          "name": "tokenId",
          "type": "uint256"
        }
      ],
      "name": "transferFrom",
      "outputs": [],
      "stateMutability": "nonpayable",
      "type": "function"
    },
    {
      "inputs": [],
      "name": "userNfts",
      "outputs": [
        {
          "components": [
            {
              "internalType": "address",
              "name": "owner",
              "type": "address"
            },
            {
              "internalType": "address",
              "name": "seller",
              "type": "address"
            },
            {
              "internalType": "uint256",
              "name": "price",
              "type": "uint256"
            },
            {
              "internalType": "bool",
              "name": "sold",
              "type": "bool"
            },
            {
              "internalType": "uint256",
              "name": "tokenId",
              "type": "uint256"
            }
          ],
          "internalType": "struct RSKNFT.NFT[]",
          "name": "",
          "type": "tuple[]"
        }
      ],
      "stateMutability": "view",
      "type": "function"
    },
    {
      "inputs": [
        {
          "internalType": "uint256",
          "name": "listingId",
          "type": "uint256"
        }
      ],
      "name": "withdrawBid",
      "outputs": [],
      "stateMutability": "payable",
      "type": "function"
    }
  ],
  "bytecode": "0x6080604052600a80553480156200001557600080fd5b506040518060400160405280600681526020017f52534b4e465400000000000000000000000000000000000000000000000000008152506040518060400160405280600381526020017f5253540000000000000000000000000000000000000000000000000000000000815250816000908162000093919062000371565b508060019081620000a5919062000371565b505050600160078190555033600b60006101000a81548173ffffffffffffffffffffffffffffffffffffffff021916908373ffffffffffffffffffffffffffffffffffffffff16021790555062000458565b600081519050919050565b7f4e487b7100000000000000000000000000000000000000000000000000000000600052604160045260246000fd5b7f4e487b7100000000000000000000000000000000000000000000000000000000600052602260045260246000fd5b600060028204905060018216806200017957607f821691505b6020821081036200018f576200018e62000131565b5b50919050565b60008190508160005260206000209050919050565b60006020601f8301049050919050565b600082821b905092915050565b600060088302620001f97fffffffffffffffffffffffffffffffffffffffffffffffffffffffffffffffff82620001ba565b620002058683620001ba565b95508019841693508086168417925050509392505050565b6000819050919050565b6000819050919050565b6000620002526200024c62000246846200021d565b62000227565b6200021d565b9050919050565b6000819050919050565b6200026e8362000231565b620002866200027d8262000259565b848454620001c7565b825550505050565b600090565b6200029d6200028e565b620002aa81848462000263565b505050565b5b81811015620002d257620002c660008262000293565b600181019050620002b0565b5050565b601f8211156200032157620002eb8162000195565b620002f684620001aa565b8101602085101562000306578190505b6200031e6200031585620001aa565b830182620002af565b50505b505050565b600082821c905092915050565b6000620003466000198460080262000326565b1980831691505092915050565b600062000361838362000333565b9150826002028217905092915050565b6200037c82620000f7565b67ffffffffffffffff81111562000398576200039762000102565b5b620003a4825462000160565b620003b1828285620002d6565b600060209050601f831160018114620003e95760008415620003d4578287015190505b620003e0858262000353565b86555062000450565b601f198416620003f98662000195565b60005b828110156200042357848901518255600182019150602085019450602081019050620003fc565b868310156200044357848901516200043f601f89168262000333565b8355505b6001600288020188555050505b505050505050565b61563580620004686000396000f3fe6080604052600436106101e35760003560e01c8063454a2ab311610102578063b88d4fde11610095578063de74e57b11610064578063de74e57b14610761578063e985e9c5146107a5578063ee9cdfb3146107e2578063f2b8aa6f146107fe576101e3565b8063b88d4fde14610681578063bbb52fff146106aa578063c046372c146106e7578063c87b56dd14610724576101e3565b806370a08231116100d157806370a08231146105b35780637bf0989a146105f057806395d89b411461062d578063a22cb46514610658576101e3565b8063454a2ab3146104f25780634c22f3811461050e5780636352211e1461054b578063708d4d3514610588576101e3565b80631389b1171161017a57806323b872dd1161014957806323b872dd146104265780633f1ffcec1461044f57806342842e0e1461048c578063451df52e146104b5576101e3565b80631389b1171461037757806315bfa612146103b457806321b62886146103df578063236d4725146103fb576101e3565b8063081812fc116101b6578063081812fc146102b8578063095ea7b3146102f55780630ad486281461031e5780630eaaf4c81461035b576101e3565b806301ffc9a7146101e8578063043a2df414610225578063051d2b6b1461026257806306fdde031461028d575b600080fd5b3480156101f457600080fd5b5061020f600480360381019061020a91906136dd565b610829565b60405161021c9190613725565b60405180910390f35b34801561023157600080fd5b5061024c60048036038101906102479190613776565b61088a565b604051610259919061386a565b60405180910390f35b34801561026e57600080fd5b50610277610992565b604051610284919061399c565b60405180910390f35b34801561029957600080fd5b506102a2610c53565b6040516102af9190613a4e565b60405180910390f35b3480156102c457600080fd5b506102df60048036038101906102da9190613776565b610ce5565b6040516102ec9190613a7f565b60405180910390f35b34801561030157600080fd5b5061031c60048036038101906103179190613ac6565b610d2b565b005b34801561032a57600080fd5b5061034560048036038101906103409190613776565b610e42565b6040516103529190613725565b60405180910390f35b61037560048036038101906103709190613776565b610e99565b005b34801561038357600080fd5b5061039e60048036038101906103999190613776565b61109b565b6040516103ab9190613725565b60405180910390f35b3480156103c057600080fd5b506103c96110be565b6040516103d69190613b22565b60405180910390f35b6103f960048036038101906103f49190613776565b6110c3565b005b34801561040757600080fd5b50610410611487565b60405161041d9190613b22565b60405180910390f35b34801561043257600080fd5b5061044d60048036038101906104489190613b3d565b61148c565b005b34801561045b57600080fd5b5061047660048036038101906104719190613b90565b6114ec565b6040516104839190613bdf565b60405180910390f35b34801561049857600080fd5b506104b360048036038101906104ae9190613b3d565b611511565b005b3480156104c157600080fd5b506104dc60048036038101906104d79190613776565b611531565b6040516104e99190613a7f565b60405180910390f35b61050c60048036038101906105079190613776565b611564565b005b34801561051a57600080fd5b5061053560048036038101906105309190613bfa565b611849565b6040516105429190613bdf565b60405180910390f35b34801561055757600080fd5b50610572600480360381019061056d9190613776565b611a42565b60405161057f9190613a7f565b60405180910390f35b34801561059457600080fd5b5061059d611ac8565b6040516105aa9190613bdf565b60405180910390f35b3480156105bf57600080fd5b506105da60048036038101906105d59190613c4d565b611ace565b6040516105e79190613bdf565b60405180910390f35b3480156105fc57600080fd5b5061061760048036038101906106129190613776565b611b85565b6040516106249190613bdf565b60405180910390f35b34801561063957600080fd5b50610642611ba5565b60405161064f9190613a4e565b60405180910390f35b34801561066457600080fd5b5061067f600480360381019061067a9190613ca6565b611c37565b005b34801561068d57600080fd5b506106a860048036038101906106a39190613e1b565b611c4d565b005b3480156106b657600080fd5b506106d160048036038101906106cc9190613f3f565b611caf565b6040516106de9190613bdf565b60405180910390f35b3480156106f357600080fd5b5061070e60048036038101906107099190613fae565b611cf4565b60405161071b9190613bdf565b60405180910390f35b34801561073057600080fd5b5061074b60048036038101906107469190613776565b611d36565b6040516107589190613a4e565b60405180910390f35b34801561076d57600080fd5b5061078860048036038101906107839190613776565b611e48565b60405161079c98979695949392919061400a565b60405180910390f35b3480156107b157600080fd5b506107cc60048036038101906107c79190614088565b611edd565b6040516107d99190613725565b60405180910390f35b6107fc60048036038101906107f79190613776565b611f71565b005b34801561080a57600080fd5b506108136121eb565b604051610820919061399c565b60405180910390f35b6000634906490660e01b7bffffffffffffffffffffffffffffffffffffffffffffffffffffffff1916827bffffffffffffffffffffffffffffffffffffffffffffffffffffffff1916148061088357506108828261239e565b5b9050919050565b610892613614565b600c60008381526020019081526020016000206040518060a00160405290816000820160009054906101000a900473ffffffffffffffffffffffffffffffffffffffff1673ffffffffffffffffffffffffffffffffffffffff1673ffffffffffffffffffffffffffffffffffffffff1681526020016001820160009054906101000a900473ffffffffffffffffffffffffffffffffffffffff1673ffffffffffffffffffffffffffffffffffffffff1673ffffffffffffffffffffffffffffffffffffffff168152602001600282015481526020016003820160009054906101000a900460ff161515151581526020016004820154815250509050919050565b606060006109a06008612480565b9050600080600190505b828111610a3c573373ffffffffffffffffffffffffffffffffffffffff16600c600083815260200190815260200160002060000160009054906101000a900473ffffffffffffffffffffffffffffffffffffffff1673ffffffffffffffffffffffffffffffffffffffff1603610a29578180610a25906140f7565b9250505b8080610a34906140f7565b9150506109aa565b5060008167ffffffffffffffff811115610a5957610a58613cf0565b5b604051908082528060200260200182016040528015610a9257816020015b610a7f613614565b815260200190600190039081610a775790505b509050600091506000600190505b838111610c49573373ffffffffffffffffffffffffffffffffffffffff16600c600083815260200190815260200160002060000160009054906101000a900473ffffffffffffffffffffffffffffffffffffffff1673ffffffffffffffffffffffffffffffffffffffff1603610c3657600c60008281526020019081526020016000206040518060a00160405290816000820160009054906101000a900473ffffffffffffffffffffffffffffffffffffffff1673ffffffffffffffffffffffffffffffffffffffff1673ffffffffffffffffffffffffffffffffffffffff1681526020016001820160009054906101000a900473ffffffffffffffffffffffffffffffffffffffff1673ffffffffffffffffffffffffffffffffffffffff1673ffffffffffffffffffffffffffffffffffffffff168152602001600282015481526020016003820160009054906101000a900460ff16151515158152602001600482015481525050828481518110610c1c57610c1b61413f565b5b60200260200101819052508280610c32906140f7565b9350505b8080610c41906140f7565b915050610aa0565b5080935050505090565b606060008054610c629061419d565b80601f0160208091040260200160405190810160405280929190818152602001828054610c8e9061419d565b8015610cdb5780601f10610cb057610100808354040283529160200191610cdb565b820191906000526020600020905b815481529060010190602001808311610cbe57829003601f168201915b5050505050905090565b6000610cf08261248e565b6004600083815260200190815260200160002060009054906101000a900473ffffffffffffffffffffffffffffffffffffffff169050919050565b6000610d3682611a42565b90508073ffffffffffffffffffffffffffffffffffffffff168373ffffffffffffffffffffffffffffffffffffffff1603610da6576040517f08c379a0000000000000000000000000000000000000000000000000000000008152600401610d9d90614240565b60405180910390fd5b8073ffffffffffffffffffffffffffffffffffffffff16610dc56124d9565b73ffffffffffffffffffffffffffffffffffffffff161480610df45750610df381610dee6124d9565b611edd565b5b610e33576040517f08c379a0000000000000000000000000000000000000000000000000000000008152600401610e2a906142d2565b60405180910390fd5b610e3d83836124e1565b505050565b6000600160ff16600d600084815260200190815260200160002060070160009054906101000a900460ff1660ff16148015610e92575042600d600084815260200190815260200160002060060154115b9050919050565b610ea161259a565b610eaa8161109b565b610ee9576040517f08c379a0000000000000000000000000000000000000000000000000000000008152600401610ee09061433e565b60405180910390fd5b3373ffffffffffffffffffffffffffffffffffffffff16600f600083815260200190815260200160002060009054906101000a900473ffffffffffffffffffffffffffffffffffffffff1673ffffffffffffffffffffffffffffffffffffffff1603610f8a576040517f08c379a0000000000000000000000000000000000000000000000000000000008152600401610f81906143d0565b60405180910390fd5b6000600e600083815260200190815260200160002060003373ffffffffffffffffffffffffffffffffffffffff1673ffffffffffffffffffffffffffffffffffffffff1681526020019081526020016000205490506000600e600084815260200190815260200160002060003373ffffffffffffffffffffffffffffffffffffffff1673ffffffffffffffffffffffffffffffffffffffff1681526020019081526020016000208190555061103f33826125e9565b3373ffffffffffffffffffffffffffffffffffffffff167ffe708da7230b3be5cca102ce40f1ba6c6beb4c0d17533c89bdf91674b7514c3f838360405161108792919061443c565b60405180910390a250611098612713565b50565b600042600d60008481526020019081526020016000206006015411159050919050565b600281565b6110cb61259a565b6110d481610e42565b15611114576040517f08c379a000000000000000000000000000000000000000000000000000000000815260040161110b906144c4565b60405180910390fd5b6000600d600083815260200190815260200160002090506000600f600084815260200190815260200160002060009054906101000a900473ffffffffffffffffffffffffffffffffffffffff1690508160000160009054906101000a900473ffffffffffffffffffffffffffffffffffffffff1673ffffffffffffffffffffffffffffffffffffffff163373ffffffffffffffffffffffffffffffffffffffff1614806111ec57508073ffffffffffffffffffffffffffffffffffffffff163373ffffffffffffffffffffffffffffffffffffffff16145b61122b576040517f08c379a000000000000000000000000000000000000000000000000000000000815260040161122290614556565b60405180910390fd5b600073ffffffffffffffffffffffffffffffffffffffff168173ffffffffffffffffffffffffffffffffffffffff161461134d5761126e3082846002015461271d565b6000600e600085815260200190815260200160002060008373ffffffffffffffffffffffffffffffffffffffff1673ffffffffffffffffffffffffffffffffffffffff1681526020019081526020016000205490506000600e600086815260200190815260200160002060008473ffffffffffffffffffffffffffffffffffffffff1673ffffffffffffffffffffffffffffffffffffffff168152602001908152602001600020819055506113478360000160009054906101000a900473ffffffffffffffffffffffffffffffffffffffff16826125e9565b50611381565b611380308360000160009054906101000a900473ffffffffffffffffffffffffffffffffffffffff16846002015461271d565b5b60028260070160006101000a81548160ff021916908360ff1602179055508073ffffffffffffffffffffffffffffffffffffffff168260000160009054906101000a900473ffffffffffffffffffffffffffffffffffffffff1673ffffffffffffffffffffffffffffffffffffffff167f7e7751e116c86dcb924f03557ed09ee35423dfcfd5cb5c84da25efb40bbc291e85600e600088815260200190815260200160002060008673ffffffffffffffffffffffffffffffffffffffff1673ffffffffffffffffffffffffffffffffffffffff168152602001908152602001600020546040516114729291906145c2565b60405180910390a35050611484612713565b50565b600181565b61149d6114976124d9565b82612a16565b6114dc576040517f08c379a00000000000000000000000000000000000000000000000000000000081526004016114d390614670565b60405180910390fd5b6114e783838361271d565b505050565b600e602052816000526040600020602052806000526040600020600091509150505481565b61152c83838360405180602001604052806000815250611c4d565b505050565b600f6020528060005260406000206000915054906101000a900473ffffffffffffffffffffffffffffffffffffffff1681565b61156c61259a565b61157581610e42565b6115b4576040517f08c379a00000000000000000000000000000000000000000000000000000000081526004016115ab906146dc565b60405180910390fd5b6000600d600083815260200190815260200160002090508060000160009054906101000a900473ffffffffffffffffffffffffffffffffffffffff1673ffffffffffffffffffffffffffffffffffffffff163373ffffffffffffffffffffffffffffffffffffffff160361165d576040517f08c379a000000000000000000000000000000000000000000000000000000000815260040161165490614748565b60405180910390fd5b600034600e600085815260200190815260200160002060003373ffffffffffffffffffffffffffffffffffffffff1673ffffffffffffffffffffffffffffffffffffffff168152602001908152602001600020546116bb9190614768565b90508160030154811015611704576040517f08c379a00000000000000000000000000000000000000000000000000000000081526004016116fb9061480e565b60405180910390fd5b34600e600085815260200190815260200160002060003373ffffffffffffffffffffffffffffffffffffffff1673ffffffffffffffffffffffffffffffffffffffff16815260200190815260200160002060008282546117649190614768565b9250508190555033600f600085815260200190815260200160002060006101000a81548173ffffffffffffffffffffffffffffffffffffffff021916908373ffffffffffffffffffffffffffffffffffffffff1602179055506000600a5483600301546117d1919061485d565b90508083600301546117e39190614768565b83600301819055503373ffffffffffffffffffffffffffffffffffffffff167f793c2bc8ccf2234e5e1cbd74248a00015d32ccc7c062247f5120abdbb911e80b85846040516118339291906148da565b60405180910390a2505050611846612713565b50565b6000806118566008612480565b905060008190506000429050600085826118709190614768565b90506040518061010001604052803373ffffffffffffffffffffffffffffffffffffffff1681526020013073ffffffffffffffffffffffffffffffffffffffff168152602001888152602001898152602001898152602001838152602001828152602001600160ff16815250600d600085815260200190815260200160002060008201518160000160006101000a81548173ffffffffffffffffffffffffffffffffffffffff021916908373ffffffffffffffffffffffffffffffffffffffff16021790555060208201518160010160006101000a81548173ffffffffffffffffffffffffffffffffffffffff021916908373ffffffffffffffffffffffffffffffffffffffff16021790555060408201518160020155606082015181600301556080820151816004015560a0820151816005015560c0820151816006015560e08201518160070160006101000a81548160ff021916908360ff1602179055509050506119de33308961271d565b3373ffffffffffffffffffffffffffffffffffffffff167fe3b4d5ceeb9bd4281ba3f05bf499516adb0de51dd1bbfc4516efbdb369ab7305848a8a8686604051611a2c959493929190614962565b60405180910390a2829450505050509392505050565b600080611a4e83612aab565b9050600073ffffffffffffffffffffffffffffffffffffffff168173ffffffffffffffffffffffffffffffffffffffff1603611abf576040517f08c379a0000000000000000000000000000000000000000000000000000000008152600401611ab690614a14565b60405180910390fd5b80915050919050565b600a5481565b60008073ffffffffffffffffffffffffffffffffffffffff168273ffffffffffffffffffffffffffffffffffffffff1603611b3e576040517f08c379a0000000000000000000000000000000000000000000000000000000008152600401611b3590614aa6565b60405180910390fd5b600360008373ffffffffffffffffffffffffffffffffffffffff1673ffffffffffffffffffffffffffffffffffffffff168152602001908152602001600020549050919050565b6000600c6000838152602001908152602001600020600201549050919050565b606060018054611bb49061419d565b80601f0160208091040260200160405190810160405280929190818152602001828054611be09061419d565b8015611c2d5780601f10611c0257610100808354040283529160200191611c2d565b820191906000526020600020905b815481529060010190602001808311611c1057829003601f168201915b5050505050905090565b611c49611c426124d9565b8383612ae8565b5050565b611c5e611c586124d9565b83612a16565b611c9d576040517f08c379a0000000000000000000000000000000000000000000000000000000008152600401611c9490614670565b60405180910390fd5b611ca984848484612c54565b50505050565b6000611cbb6008612cb0565b6000611cc76008612480565b9050611cd33382612cc6565b611cdd8186612ee3565b611ce8848285611849565b50809150509392505050565b6000611d006008612cb0565b6000611d0c6008612480565b9050611d183382612cc6565b611d228185612ee3565b611d2c8184612f87565b8091505092915050565b6060611d418261248e565b6000600660008481526020019081526020016000208054611d619061419d565b80601f0160208091040260200160405190810160405280929190818152602001828054611d8d9061419d565b8015611dda5780601f10611daf57610100808354040283529160200191611dda565b820191906000526020600020905b815481529060010190602001808311611dbd57829003601f168201915b505050505090506000611deb613113565b90506000815103611e00578192505050611e43565b600082511115611e35578082604051602001611e1d929190614b02565b60405160208183030381529060405292505050611e43565b611e3e8461312a565b925050505b919050565b600d6020528060005260406000206000915090508060000160009054906101000a900473ffffffffffffffffffffffffffffffffffffffff16908060010160009054906101000a900473ffffffffffffffffffffffffffffffffffffffff16908060020154908060030154908060040154908060050154908060060154908060070160009054906101000a900460ff16905088565b6000600560008473ffffffffffffffffffffffffffffffffffffffff1673ffffffffffffffffffffffffffffffffffffffff16815260200190815260200160002060008373ffffffffffffffffffffffffffffffffffffffff1673ffffffffffffffffffffffffffffffffffffffff16815260200190815260200160002060009054906101000a900460ff16905092915050565b6000600c60008381526020019081526020016000206002015490506000600c600084815260200190815260200160002060010160009054906101000a900473ffffffffffffffffffffffffffffffffffffffff169050813414612009576040517f08c379a000000000000000000000000000000000000000000000000000000000815260040161200090614b72565b60405180910390fd5b60008173ffffffffffffffffffffffffffffffffffffffff168360405161202f90614bc3565b60006040518083038185875af1925050503d806000811461206c576040519150601f19603f3d011682016040523d82523d6000602084013e612071565b606091505b50509050806120b5576040517f08c379a00000000000000000000000000000000000000000000000000000000081526004016120ac90614c24565b60405180910390fd5b33600c600086815260200190815260200160002060000160006101000a81548173ffffffffffffffffffffffffffffffffffffffff021916908373ffffffffffffffffffffffffffffffffffffffff1602179055506000600c600086815260200190815260200160002060010160006101000a81548173ffffffffffffffffffffffffffffffffffffffff021916908373ffffffffffffffffffffffffffffffffffffffff1602179055506001600c600086815260200190815260200160002060030160006101000a81548160ff0219169083151502179055506121996009612cb0565b6121a430338661271d565b7f6abf8fea1f4c585bf426b0fdbd54c0f004a746a4b6dcb76752a2d5d268f8730b843360008660016040516121dd959493929190614c90565b60405180910390a150505050565b606060006121f96008612480565b905060008167ffffffffffffffff81111561221757612216613cf0565b5b60405190808252806020026020018201604052801561225057816020015b61223d613614565b8152602001906001900390816122355790505b50905060005b815181101561239557600c60006001836122709190614768565b81526020019081526020016000206040518060a00160405290816000820160009054906101000a900473ffffffffffffffffffffffffffffffffffffffff1673ffffffffffffffffffffffffffffffffffffffff1673ffffffffffffffffffffffffffffffffffffffff1681526020016001820160009054906101000a900473ffffffffffffffffffffffffffffffffffffffff1673ffffffffffffffffffffffffffffffffffffffff1673ffffffffffffffffffffffffffffffffffffffff168152602001600282015481526020016003820160009054906101000a900460ff161515151581526020016004820154815250508282815181106123775761237661413f565b5b6020026020010181905250808061238d906140f7565b915050612256565b50809250505090565b60007f80ac58cd000000000000000000000000000000000000000000000000000000007bffffffffffffffffffffffffffffffffffffffffffffffffffffffff1916827bffffffffffffffffffffffffffffffffffffffffffffffffffffffff1916148061246957507f5b5e139f000000000000000000000000000000000000000000000000000000007bffffffffffffffffffffffffffffffffffffffffffffffffffffffff1916827bffffffffffffffffffffffffffffffffffffffffffffffffffffffff1916145b80612479575061247882613192565b5b9050919050565b600081600001549050919050565b612497816131fc565b6124d6576040517f08c379a00000000000000000000000000000000000000000000000000000000081526004016124cd90614a14565b60405180910390fd5b50565b600033905090565b816004600083815260200190815260200160002060006101000a81548173ffffffffffffffffffffffffffffffffffffffff021916908373ffffffffffffffffffffffffffffffffffffffff160217905550808273ffffffffffffffffffffffffffffffffffffffff1661255483611a42565b73ffffffffffffffffffffffffffffffffffffffff167f8c5be1e5ebec7d5bd14f71427d1e84f3dd0314c0f7b2291e5b200ac8c7c3b92560405160405180910390a45050565b6002600754036125df576040517f08c379a00000000000000000000000000000000000000000000000000000000081526004016125d690614d42565b60405180910390fd5b6002600781905550565b600081031561270f57600073ffffffffffffffffffffffffffffffffffffffff168273ffffffffffffffffffffffffffffffffffffffff1603612661576040517f08c379a000000000000000000000000000000000000000000000000000000000815260040161265890614dd4565b60405180910390fd5b60008273ffffffffffffffffffffffffffffffffffffffff168260405161268790614bc3565b60006040518083038185875af1925050503d80600081146126c4576040519150601f19603f3d011682016040523d82523d6000602084013e6126c9565b606091505b505090508061270d576040517f08c379a000000000000000000000000000000000000000000000000000000000815260040161270490614e40565b60405180910390fd5b505b5050565b6001600781905550565b8273ffffffffffffffffffffffffffffffffffffffff1661273d82611a42565b73ffffffffffffffffffffffffffffffffffffffff1614612793576040517f08c379a000000000000000000000000000000000000000000000000000000000815260040161278a90614ed2565b60405180910390fd5b600073ffffffffffffffffffffffffffffffffffffffff168273ffffffffffffffffffffffffffffffffffffffff1603612802576040517f08c379a00000000000000000000000000000000000000000000000000000000081526004016127f990614f64565b60405180910390fd5b61280f838383600161323d565b8273ffffffffffffffffffffffffffffffffffffffff1661282f82611a42565b73ffffffffffffffffffffffffffffffffffffffff1614612885576040517f08c379a000000000000000000000000000000000000000000000000000000000815260040161287c90614ed2565b60405180910390fd5b6004600082815260200190815260200160002060006101000a81549073ffffffffffffffffffffffffffffffffffffffff02191690556001600360008573ffffffffffffffffffffffffffffffffffffffff1673ffffffffffffffffffffffffffffffffffffffff168152602001908152602001600020600082825403925050819055506001600360008473ffffffffffffffffffffffffffffffffffffffff1673ffffffffffffffffffffffffffffffffffffffff16815260200190815260200160002060008282540192505081905550816002600083815260200190815260200160002060006101000a81548173ffffffffffffffffffffffffffffffffffffffff021916908373ffffffffffffffffffffffffffffffffffffffff160217905550808273ffffffffffffffffffffffffffffffffffffffff168473ffffffffffffffffffffffffffffffffffffffff167fddf252ad1be2c89b69c2b068fc378daa952ba7f163c4a11628f55a4df523b3ef60405160405180910390a4612a118383836001613243565b505050565b600080612a2283611a42565b90508073ffffffffffffffffffffffffffffffffffffffff168473ffffffffffffffffffffffffffffffffffffffff161480612a645750612a638185611edd565b5b80612aa257508373ffffffffffffffffffffffffffffffffffffffff16612a8a84610ce5565b73ffffffffffffffffffffffffffffffffffffffff16145b91505092915050565b60006002600083815260200190815260200160002060009054906101000a900473ffffffffffffffffffffffffffffffffffffffff169050919050565b8173ffffffffffffffffffffffffffffffffffffffff168373ffffffffffffffffffffffffffffffffffffffff1603612b56576040517f08c379a0000000000000000000000000000000000000000000000000000000008152600401612b4d90614fd0565b60405180910390fd5b80600560008573ffffffffffffffffffffffffffffffffffffffff1673ffffffffffffffffffffffffffffffffffffffff16815260200190815260200160002060008473ffffffffffffffffffffffffffffffffffffffff1673ffffffffffffffffffffffffffffffffffffffff16815260200190815260200160002060006101000a81548160ff0219169083151502179055508173ffffffffffffffffffffffffffffffffffffffff168373ffffffffffffffffffffffffffffffffffffffff167f17307eab39ab6107e8899845ad3d59bd9653f200f220920489ca2b5937696c3183604051612c479190613725565b60405180910390a3505050565b612c5f84848461271d565b612c6b84848484613249565b612caa576040517f08c379a0000000000000000000000000000000000000000000000000000000008152600401612ca190615062565b60405180910390fd5b50505050565b6001816000016000828254019250508190555050565b600073ffffffffffffffffffffffffffffffffffffffff168273ffffffffffffffffffffffffffffffffffffffff1603612d35576040517f08c379a0000000000000000000000000000000000000000000000000000000008152600401612d2c906150ce565b60405180910390fd5b612d3e816131fc565b15612d7e576040517f08c379a0000000000000000000000000000000000000000000000000000000008152600401612d759061513a565b60405180910390fd5b612d8c60008383600161323d565b612d95816131fc565b15612dd5576040517f08c379a0000000000000000000000000000000000000000000000000000000008152600401612dcc9061513a565b60405180910390fd5b6001600360008473ffffffffffffffffffffffffffffffffffffffff1673ffffffffffffffffffffffffffffffffffffffff16815260200190815260200160002060008282540192505081905550816002600083815260200190815260200160002060006101000a81548173ffffffffffffffffffffffffffffffffffffffff021916908373ffffffffffffffffffffffffffffffffffffffff160217905550808273ffffffffffffffffffffffffffffffffffffffff16600073ffffffffffffffffffffffffffffffffffffffff167fddf252ad1be2c89b69c2b068fc378daa952ba7f163c4a11628f55a4df523b3ef60405160405180910390a4612edf600083836001613243565b5050565b612eec826131fc565b612f2b576040517f08c379a0000000000000000000000000000000000000000000000000000000008152600401612f22906151cc565b60405180910390fd5b80600660008481526020019081526020016000209081612f4b9190615398565b507ff8e1a15aba9398e019f0b49df1a4fde98ee17ae345cb5f6b5e2c27f5033e8ce782604051612f7b9190613bdf565b60405180910390a15050565b6000612f936008612480565b90506040518060a001604052803073ffffffffffffffffffffffffffffffffffffffff1681526020013373ffffffffffffffffffffffffffffffffffffffff16815260200183815260200160001515815260200184815250600c600083815260200190815260200160002060008201518160000160006101000a81548173ffffffffffffffffffffffffffffffffffffffff021916908373ffffffffffffffffffffffffffffffffffffffff16021790555060208201518160010160006101000a81548173ffffffffffffffffffffffffffffffffffffffff021916908373ffffffffffffffffffffffffffffffffffffffff1602179055506040820151816002015560608201518160030160006101000a81548160ff021916908315150217905550608082015181600401559050506130ce33308561271d565b7f6abf8fea1f4c585bf426b0fdbd54c0f004a746a4b6dcb76752a2d5d268f8730b8330338560006040516131069594939291906154b6565b60405180910390a1505050565b606060405180602001604052806000815250905090565b60606131358261248e565b600061313f613113565b9050600081511161315f576040518060200160405280600081525061318a565b80613169846133d0565b60405160200161317a929190614b02565b6040516020818303038152906040525b915050919050565b60007f01ffc9a7000000000000000000000000000000000000000000000000000000007bffffffffffffffffffffffffffffffffffffffffffffffffffffffff1916827bffffffffffffffffffffffffffffffffffffffffffffffffffffffff1916149050919050565b60008073ffffffffffffffffffffffffffffffffffffffff1661321e83612aab565b73ffffffffffffffffffffffffffffffffffffffff1614159050919050565b50505050565b50505050565b600061326a8473ffffffffffffffffffffffffffffffffffffffff1661349e565b156133c3578373ffffffffffffffffffffffffffffffffffffffff1663150b7a026132936124d9565b8786866040518563ffffffff1660e01b81526004016132b59493929190615571565b6020604051808303816000875af19250505080156132f157506040513d601f19601f820116820180604052508101906132ee91906155d2565b60015b613373573d8060008114613321576040519150601f19603f3d011682016040523d82523d6000602084013e613326565b606091505b50600081510361336b576040517f08c379a000000000000000000000000000000000000000000000000000000000815260040161336290615062565b60405180910390fd5b805181602001fd5b63150b7a0260e01b7bffffffffffffffffffffffffffffffffffffffffffffffffffffffff1916817bffffffffffffffffffffffffffffffffffffffffffffffffffffffff1916149150506133c8565b600190505b949350505050565b6060600060016133df846134c1565b01905060008167ffffffffffffffff8111156133fe576133fd613cf0565b5b6040519080825280601f01601f1916602001820160405280156134305781602001600182028036833780820191505090505b509050600082602001820190505b600115613493578080600190039150507f3031323334353637383961626364656600000000000000000000000000000000600a86061a8153600a85816134875761348661482e565b5b0494506000850361343e575b819350505050919050565b6000808273ffffffffffffffffffffffffffffffffffffffff163b119050919050565b600080600090507a184f03e93ff9f4daa797ed6e38ed64bf6a1f010000000000000000831061351f577a184f03e93ff9f4daa797ed6e38ed64bf6a1f01000000000000000083816135155761351461482e565b5b0492506040810190505b6d04ee2d6d415b85acef8100000000831061355c576d04ee2d6d415b85acef810000000083816135525761355161482e565b5b0492506020810190505b662386f26fc10000831061358b57662386f26fc1000083816135815761358061482e565b5b0492506010810190505b6305f5e10083106135b4576305f5e10083816135aa576135a961482e565b5b0492506008810190505b61271083106135d95761271083816135cf576135ce61482e565b5b0492506004810190505b606483106135fc57606483816135f2576135f161482e565b5b0492506002810190505b600a831061360b576001810190505b80915050919050565b6040518060a00160405280600073ffffffffffffffffffffffffffffffffffffffff168152602001600073ffffffffffffffffffffffffffffffffffffffff16815260200160008152602001600015158152602001600081525090565b6000604051905090565b600080fd5b600080fd5b60007fffffffff0000000000000000000000000000000000000000000000000000000082169050919050565b6136ba81613685565b81146136c557600080fd5b50565b6000813590506136d7816136b1565b92915050565b6000602082840312156136f3576136f261367b565b5b6000613701848285016136c8565b91505092915050565b60008115159050919050565b61371f8161370a565b82525050565b600060208201905061373a6000830184613716565b92915050565b6000819050919050565b61375381613740565b811461375e57600080fd5b50565b6000813590506137708161374a565b92915050565b60006020828403121561378c5761378b61367b565b5b600061379a84828501613761565b91505092915050565b600073ffffffffffffffffffffffffffffffffffffffff82169050919050565b60006137ce826137a3565b9050919050565b6137de816137c3565b82525050565b6137ed81613740565b82525050565b6137fc8161370a565b82525050565b60a08201600082015161381860008501826137d5565b50602082015161382b60208501826137d5565b50604082015161383e60408501826137e4565b50606082015161385160608501826137f3565b50608082015161386460808501826137e4565b50505050565b600060a08201905061387f6000830184613802565b92915050565b600081519050919050565b600082825260208201905092915050565b6000819050602082019050919050565b60a0820160008201516138c760008501826137d5565b5060208201516138da60208501826137d5565b5060408201516138ed60408501826137e4565b50606082015161390060608501826137f3565b50608082015161391360808501826137e4565b50505050565b600061392583836138b1565b60a08301905092915050565b6000602082019050919050565b600061394982613885565b6139538185613890565b935061395e836138a1565b8060005b8381101561398f5781516139768882613919565b975061398183613931565b925050600181019050613962565b5085935050505092915050565b600060208201905081810360008301526139b6818461393e565b905092915050565b600081519050919050565b600082825260208201905092915050565b60005b838110156139f85780820151818401526020810190506139dd565b60008484015250505050565b6000601f19601f8301169050919050565b6000613a20826139be565b613a2a81856139c9565b9350613a3a8185602086016139da565b613a4381613a04565b840191505092915050565b60006020820190508181036000830152613a688184613a15565b905092915050565b613a79816137c3565b82525050565b6000602082019050613a946000830184613a70565b92915050565b613aa3816137c3565b8114613aae57600080fd5b50565b600081359050613ac081613a9a565b92915050565b60008060408385031215613add57613adc61367b565b5b6000613aeb85828601613ab1565b9250506020613afc85828601613761565b9150509250929050565b600060ff82169050919050565b613b1c81613b06565b82525050565b6000602082019050613b376000830184613b13565b92915050565b600080600060608486031215613b5657613b5561367b565b5b6000613b6486828701613ab1565b9350506020613b7586828701613ab1565b9250506040613b8686828701613761565b9150509250925092565b60008060408385031215613ba757613ba661367b565b5b6000613bb585828601613761565b9250506020613bc685828601613ab1565b9150509250929050565b613bd981613740565b82525050565b6000602082019050613bf46000830184613bd0565b92915050565b600080600060608486031215613c1357613c1261367b565b5b6000613c2186828701613761565b9350506020613c3286828701613761565b9250506040613c4386828701613761565b9150509250925092565b600060208284031215613c6357613c6261367b565b5b6000613c7184828501613ab1565b91505092915050565b613c838161370a565b8114613c8e57600080fd5b50565b600081359050613ca081613c7a565b92915050565b60008060408385031215613cbd57613cbc61367b565b5b6000613ccb85828601613ab1565b9250506020613cdc85828601613c91565b9150509250929050565b600080fd5b600080fd5b7f4e487b7100000000000000000000000000000000000000000000000000000000600052604160045260246000fd5b613d2882613a04565b810181811067ffffffffffffffff82111715613d4757613d46613cf0565b5b80604052505050565b6000613d5a613671565b9050613d668282613d1f565b919050565b600067ffffffffffffffff821115613d8657613d85613cf0565b5b613d8f82613a04565b9050602081019050919050565b82818337600083830152505050565b6000613dbe613db984613d6b565b613d50565b905082815260208101848484011115613dda57613dd9613ceb565b5b613de5848285613d9c565b509392505050565b600082601f830112613e0257613e01613ce6565b5b8135613e12848260208601613dab565b91505092915050565b60008060008060808587031215613e3557613e3461367b565b5b6000613e4387828801613ab1565b9450506020613e5487828801613ab1565b9350506040613e6587828801613761565b925050606085013567ffffffffffffffff811115613e8657613e85613680565b5b613e9287828801613ded565b91505092959194509250565b600067ffffffffffffffff821115613eb957613eb8613cf0565b5b613ec282613a04565b9050602081019050919050565b6000613ee2613edd84613e9e565b613d50565b905082815260208101848484011115613efe57613efd613ceb565b5b613f09848285613d9c565b509392505050565b600082601f830112613f2657613f25613ce6565b5b8135613f36848260208601613ecf565b91505092915050565b600080600060608486031215613f5857613f5761367b565b5b600084013567ffffffffffffffff811115613f7657613f75613680565b5b613f8286828701613f11565b9350506020613f9386828701613761565b9250506040613fa486828701613761565b9150509250925092565b60008060408385031215613fc557613fc461367b565b5b600083013567ffffffffffffffff811115613fe357613fe2613680565b5b613fef85828601613f11565b925050602061400085828601613761565b9150509250929050565b600061010082019050614020600083018b613a70565b61402d602083018a613a70565b61403a6040830189613bd0565b6140476060830188613bd0565b6140546080830187613bd0565b61406160a0830186613bd0565b61406e60c0830185613bd0565b61407b60e0830184613b13565b9998505050505050505050565b6000806040838503121561409f5761409e61367b565b5b60006140ad85828601613ab1565b92505060206140be85828601613ab1565b9150509250929050565b7f4e487b7100000000000000000000000000000000000000000000000000000000600052601160045260246000fd5b600061410282613740565b91507fffffffffffffffffffffffffffffffffffffffffffffffffffffffffffffffff8203614134576141336140c8565b5b600182019050919050565b7f4e487b7100000000000000000000000000000000000000000000000000000000600052603260045260246000fd5b7f4e487b7100000000000000000000000000000000000000000000000000000000600052602260045260246000fd5b600060028204905060018216806141b557607f821691505b6020821081036141c8576141c761416e565b5b50919050565b7f4552433732313a20617070726f76616c20746f2063757272656e74206f776e6560008201527f7200000000000000000000000000000000000000000000000000000000000000602082015250565b600061422a6021836139c9565b9150614235826141ce565b604082019050919050565b600060208201905081810360008301526142598161421d565b9050919050565b7f4552433732313a20617070726f76652063616c6c6572206973206e6f7420746f60008201527f6b656e206f776e6572206f7220617070726f76656420666f7220616c6c000000602082015250565b60006142bc603d836139c9565b91506142c782614260565b604082019050919050565b600060208201905081810360008301526142eb816142af565b9050919050565b7f61756374696f6e206d75737420626520656e6465640000000000000000000000600082015250565b60006143286015836139c9565b9150614333826142f2565b602082019050919050565b600060208201905081810360008301526143578161431b565b9050919050565b7f68696768657374206269646465722063616e6e6f74207769746864726177206260008201527f6964000000000000000000000000000000000000000000000000000000000000602082015250565b60006143ba6022836139c9565b91506143c58261435e565b604082019050919050565b600060208201905081810360008301526143e9816143ad565b9050919050565b7f576974686472617720626964207375636365737366756c6c7900000000000000600082015250565b60006144266019836139c9565b9150614431826143f0565b602082019050919050565b60006060820190506144516000830185613bd0565b61445e6020830184613bd0565b818103604083015261446f81614419565b90509392505050565b7f61756374696f6e206973207374696c6c206f70656e0000000000000000000000600082015250565b60006144ae6015836139c9565b91506144b982614478565b602082019050919050565b600060208201905081810360008301526144dd816144a1565b9050919050565b7f6f6e6c792073656c6c6572206f722077696e6e65722063616e20636f6d706c6560008201527f74652061756374696f6e00000000000000000000000000000000000000000000602082015250565b6000614540602a836139c9565b915061454b826144e4565b604082019050919050565b6000602082019050818103600083015261456f81614533565b9050919050565b7f41756374696f6e20636f6d706c65746564207375636365737366756c6c790000600082015250565b60006145ac601e836139c9565b91506145b782614576565b602082019050919050565b60006060820190506145d76000830185613bd0565b6145e46020830184613bd0565b81810360408301526145f58161459f565b90509392505050565b7f4552433732313a2063616c6c6572206973206e6f7420746f6b656e206f776e6560008201527f72206f7220617070726f76656400000000000000000000000000000000000000602082015250565b600061465a602d836139c9565b9150614665826145fe565b604082019050919050565b600060208201905081810360008301526146898161464d565b9050919050565b7f61756374696f6e2068617320656e646564000000000000000000000000000000600082015250565b60006146c66011836139c9565b91506146d182614690565b602082019050919050565b600060208201905081810360008301526146f5816146b9565b9050919050565b7f63616e6e6f7420626964206f6e207768617420796f75206f776e000000000000600082015250565b6000614732601a836139c9565b915061473d826146fc565b602082019050919050565b6000602082019050818103600083015261476181614725565b9050919050565b600061477382613740565b915061477e83613740565b9250828201905080821115614796576147956140c8565b5b92915050565b7f63616e6e6f74206269642062656c6f7720746865206c6174657374206269646460008201527f696e672070726963650000000000000000000000000000000000000000000000602082015250565b60006147f86029836139c9565b91506148038261479c565b604082019050919050565b60006020820190508181036000830152614827816147eb565b9050919050565b7f4e487b7100000000000000000000000000000000000000000000000000000000600052601260045260246000fd5b600061486882613740565b915061487383613740565b9250826148835761488261482e565b5b828204905092915050565b7f4269642063726561746564207375636365737366756c6c790000000000000000600082015250565b60006148c46018836139c9565b91506148cf8261488e565b602082019050919050565b60006060820190506148ef6000830185613bd0565b6148fc6020830184613bd0565b818103604083015261490d816148b7565b90509392505050565b7f41756374696f6e2063726561746564207375636365737366756c6c7900000000600082015250565b600061494c601c836139c9565b915061495782614916565b602082019050919050565b600060c0820190506149776000830188613bd0565b6149846020830187613bd0565b6149916040830186613bd0565b61499e6060830185613bd0565b6149ab6080830184613bd0565b81810360a08301526149bc8161493f565b90509695505050505050565b7f4552433732313a20696e76616c696420746f6b656e2049440000000000000000600082015250565b60006149fe6018836139c9565b9150614a09826149c8565b602082019050919050565b60006020820190508181036000830152614a2d816149f1565b9050919050565b7f4552433732313a2061646472657373207a65726f206973206e6f74206120766160008201527f6c6964206f776e65720000000000000000000000000000000000000000000000602082015250565b6000614a906029836139c9565b9150614a9b82614a34565b604082019050919050565b60006020820190508181036000830152614abf81614a83565b9050919050565b600081905092915050565b6000614adc826139be565b614ae68185614ac6565b9350614af68185602086016139da565b80840191505092915050565b6000614b0e8285614ad1565b9150614b1a8284614ad1565b91508190509392505050565b7f696e636f727265637420616d6f756e7400000000000000000000000000000000600082015250565b6000614b5c6010836139c9565b9150614b6782614b26565b602082019050919050565b60006020820190508181036000830152614b8b81614b4f565b9050919050565b600081905092915050565b50565b6000614bad600083614b92565b9150614bb882614b9d565b600082019050919050565b6000614bce82614ba0565b9150819050919050565b7f7061796d656e74206661696c6564000000000000000000000000000000000000600082015250565b6000614c0e600e836139c9565b9150614c1982614bd8565b602082019050919050565b60006020820190508181036000830152614c3d81614c01565b9050919050565b7f536f6c64204e4654207375636365737366756c6c790000000000000000000000600082015250565b6000614c7a6015836139c9565b9150614c8582614c44565b602082019050919050565b600060c082019050614ca56000830188613bd0565b614cb26020830187613a70565b614cbf6040830186613a70565b614ccc6060830185613bd0565b614cd96080830184613716565b81810360a0830152614cea81614c6d565b90509695505050505050565b7f5265656e7472616e637947756172643a207265656e7472616e742063616c6c00600082015250565b6000614d2c601f836139c9565b9150614d3782614cf6565b602082019050919050565b60006020820190508181036000830152614d5b81614d1f565b9050919050565b7f4572726f722c2063616e6e6f74207472616e7366657220746f2061646472657360008201527f7328302900000000000000000000000000000000000000000000000000000000602082015250565b6000614dbe6024836139c9565b9150614dc982614d62565b604082019050919050565b60006020820190508181036000830152614ded81614db1565b9050919050565b7f4572726f722c206661696c656420746f2073656e642045746865720000000000600082015250565b6000614e2a601b836139c9565b9150614e3582614df4565b602082019050919050565b60006020820190508181036000830152614e5981614e1d565b9050919050565b7f4552433732313a207472616e736665722066726f6d20696e636f72726563742060008201527f6f776e6572000000000000000000000000000000000000000000000000000000602082015250565b6000614ebc6025836139c9565b9150614ec782614e60565b604082019050919050565b60006020820190508181036000830152614eeb81614eaf565b9050919050565b7f4552433732313a207472616e7366657220746f20746865207a65726f2061646460008201527f7265737300000000000000000000000000000000000000000000000000000000602082015250565b6000614f4e6024836139c9565b9150614f5982614ef2565b604082019050919050565b60006020820190508181036000830152614f7d81614f41565b9050919050565b7f4552433732313a20617070726f766520746f2063616c6c657200000000000000600082015250565b6000614fba6019836139c9565b9150614fc582614f84565b602082019050919050565b60006020820190508181036000830152614fe981614fad565b9050919050565b7f4552433732313a207472616e7366657220746f206e6f6e20455243373231526560008201527f63656976657220696d706c656d656e7465720000000000000000000000000000602082015250565b600061504c6032836139c9565b915061505782614ff0565b604082019050919050565b6000602082019050818103600083015261507b8161503f565b9050919050565b7f4552433732313a206d696e7420746f20746865207a65726f2061646472657373600082015250565b60006150b86020836139c9565b91506150c382615082565b602082019050919050565b600060208201905081810360008301526150e7816150ab565b9050919050565b7f4552433732313a20746f6b656e20616c7265616479206d696e74656400000000600082015250565b6000615124601c836139c9565b915061512f826150ee565b602082019050919050565b6000602082019050818103600083015261515381615117565b9050919050565b7f45524337323155524953746f726167653a2055524920736574206f66206e6f6e60008201527f6578697374656e7420746f6b656e000000000000000000000000000000000000602082015250565b60006151b6602e836139c9565b91506151c18261515a565b604082019050919050565b600060208201905081810360008301526151e5816151a9565b9050919050565b60008190508160005260206000209050919050565b60006020601f8301049050919050565b600082821b905092915050565b60006008830261524e7fffffffffffffffffffffffffffffffffffffffffffffffffffffffffffffffff82615211565b6152588683615211565b95508019841693508086168417925050509392505050565b6000819050919050565b600061529561529061528b84613740565b615270565b613740565b9050919050565b6000819050919050565b6152af8361527a565b6152c36152bb8261529c565b84845461521e565b825550505050565b600090565b6152d86152cb565b6152e38184846152a6565b505050565b5b81811015615307576152fc6000826152d0565b6001810190506152e9565b5050565b601f82111561534c5761531d816151ec565b61532684615201565b81016020851015615335578190505b61534961534185615201565b8301826152e8565b50505b505050565b600082821c905092915050565b600061536f60001984600802615351565b1980831691505092915050565b6000615388838361535e565b9150826002028217905092915050565b6153a1826139be565b67ffffffffffffffff8111156153ba576153b9613cf0565b5b6153c4825461419d565b6153cf82828561530b565b600060209050601f83116001811461540257600084156153f0578287015190505b6153fa858261537c565b865550615462565b601f198416615410866151ec565b60005b8281101561543857848901518255600182019150602085019450602081019050615413565b868310156154555784890151615451601f89168261535e565b8355505b6001600288020188555050505b505050505050565b7f4e46542063726561746564207375636365737366756c79000000000000000000600082015250565b60006154a06017836139c9565b91506154ab8261546a565b602082019050919050565b600060c0820190506154cb6000830188613bd0565b6154d86020830187613a70565b6154e56040830186613a70565b6154f26060830185613bd0565b6154ff6080830184613716565b81810360a083015261551081615493565b90509695505050505050565b600081519050919050565b600082825260208201905092915050565b60006155438261551c565b61554d8185615527565b935061555d8185602086016139da565b61556681613a04565b840191505092915050565b60006080820190506155866000830187613a70565b6155936020830186613a70565b6155a06040830185613bd0565b81810360608301526155b28184615538565b905095945050505050565b6000815190506155cc816136b1565b92915050565b6000602082840312156155e8576155e761367b565b5b60006155f6848285016155bd565b9150509291505056fea2646970667358221220e1abec321f66985cb30fab688c354b572fa9c99f1af75cc53ac6a74ccb442f0d64736f6c63430008130033",
  "linkReferences": {},
  "deployedLinkReferences": {}
}