{
  "_format": "hh-sol-artifact-1",
  "contractName": "RSKNFT",
  "sourceName": "contracts/RSKNFT.sol",
  "abi": [
    {
      "inputs": [],
      "stateMutability": "nonpayable",
      "type": "constructor"
    },
    {
      "anonymous": false,
      "inputs": [
        {
          "indexed": true,
          "internalType": "address",
          "name": "owner",
          "type": "address"
        },
        {
          "indexed": true,
          "internalType": "address",
          "name": "approved",
          "type": "address"
        },
        {
          "indexed": true,
          "internalType": "uint256",
          "name": "tokenId",
          "type": "uint256"
        }
      ],
      "name": "Approval",
      "type": "event"
    },
    {
      "anonymous": false,
      "inputs": [
        {
          "indexed": true,
          "internalType": "address",
          "name": "owner",
          "type": "address"
        },
        {
          "indexed": true,
          "internalType": "address",
          "name": "operator",
          "type": "address"
        },
        {
          "indexed": false,
          "internalType": "bool",
          "name": "approved",
          "type": "bool"
        }
      ],
      "name": "ApprovalForAll",
      "type": "event"
    },
    {
      "anonymous": false,
      "inputs": [
        {
          "indexed": false,
          "internalType": "uint256",
          "name": "listingId",
          "type": "uint256"
        },
        {
          "indexed": true,
          "internalType": "address",
          "name": "seller",
          "type": "address"
        },
        {
          "indexed": true,
          "internalType": "address",
          "name": "bidder",
          "type": "address"
        },
        {
          "indexed": false,
          "internalType": "uint256",
          "name": "bid",
          "type": "uint256"
        }
      ],
      "name": "AuctionCompleted",
      "type": "event"
    },
    {
      "anonymous": false,
      "inputs": [
        {
          "indexed": false,
          "internalType": "uint256",
          "name": "listingId",
          "type": "uint256"
        },
        {
          "indexed": true,
          "internalType": "address",
          "name": "seller",
          "type": "address"
        },
        {
          "indexed": false,
          "internalType": "uint256",
          "name": "price",
          "type": "uint256"
        },
        {
          "indexed": false,
          "internalType": "uint256",
          "name": "tokenId",
          "type": "uint256"
        },
        {
          "indexed": false,
          "internalType": "uint256",
          "name": "startAt",
          "type": "uint256"
        },
        {
          "indexed": false,
          "internalType": "uint256",
          "name": "endAt",
          "type": "uint256"
        },
        {
          "indexed": false,
          "internalType": "string",
          "name": "message",
          "type": "string"
        }
      ],
      "name": "AuctionCreated",
      "type": "event"
    },
    {
      "anonymous": false,
      "inputs": [
        {
          "indexed": false,
          "internalType": "uint256",
          "name": "_fromTokenId",
          "type": "uint256"
        },
        {
          "indexed": false,
          "internalType": "uint256",
          "name": "_toTokenId",
          "type": "uint256"
        }
      ],
      "name": "BatchMetadataUpdate",
      "type": "event"
    },
    {
      "anonymous": false,
      "inputs": [
        {
          "indexed": false,
          "internalType": "uint256",
          "name": "_tokenId",
          "type": "uint256"
        }
      ],
      "name": "MetadataUpdate",
      "type": "event"
    },
    {
      "anonymous": false,
      "inputs": [
        {
          "indexed": false,
          "internalType": "uint256",
          "name": "tokenId",
          "type": "uint256"
        },
        {
          "indexed": false,
          "internalType": "address",
          "name": "owner",
          "type": "address"
        },
        {
          "indexed": false,
          "internalType": "address",
          "name": "seller",
          "type": "address"
        },
        {
          "indexed": false,
          "internalType": "uint256",
          "name": "price",
          "type": "uint256"
        },
        {
          "indexed": false,
          "internalType": "bool",
          "name": "sold",
          "type": "bool"
        },
        {
          "indexed": false,
          "internalType": "string",
          "name": "message",
          "type": "string"
        }
      ],
      "name": "NFT_Action",
      "type": "event"
    },
    {
      "anonymous": false,
      "inputs": [
        {
          "indexed": true,
          "internalType": "address",
          "name": "from",
          "type": "address"
        },
        {
          "indexed": true,
          "internalType": "address",
          "name": "to",
          "type": "address"
        },
        {
          "indexed": true,
          "internalType": "uint256",
          "name": "tokenId",
          "type": "uint256"
        }
      ],
      "name": "Transfer",
      "type": "event"
    },
    {
      "inputs": [],
      "name": "COMPLETED_STATUS",
      "outputs": [
        {
          "internalType": "uint8",
          "name": "",
          "type": "uint8"
        }
      ],
      "stateMutability": "view",
      "type": "function"
    },
    {
      "inputs": [],
      "name": "OPEN_STATUS",
      "outputs": [
        {
          "internalType": "uint8",
          "name": "",
          "type": "uint8"
        }
      ],
      "stateMutability": "view",
      "type": "function"
    },
    {
      "inputs": [],
      "name": "allNfts",
      "outputs": [
        {
          "components": [
            {
              "internalType": "address",
              "name": "owner",
              "type": "address"
            },
            {
              "internalType": "address",
              "name": "seller",
              "type": "address"
            },
            {
              "internalType": "uint256",
              "name": "price",
              "type": "uint256"
            },
            {
              "internalType": "bool",
              "name": "sold",
              "type": "bool"
            },
            {
              "internalType": "uint256",
              "name": "tokenId",
              "type": "uint256"
            }
          ],
          "internalType": "struct RSKNFT.NFT[]",
          "name": "",
          "type": "tuple[]"
        }
      ],
      "stateMutability": "view",
      "type": "function"
    },
    {
      "inputs": [
        {
          "internalType": "address",
          "name": "to",
          "type": "address"
        },
        {
          "internalType": "uint256",
          "name": "tokenId",
          "type": "uint256"
        }
      ],
      "name": "approve",
      "outputs": [],
      "stateMutability": "nonpayable",
      "type": "function"
    },
    {
      "inputs": [
        {
          "internalType": "address",
          "name": "owner",
          "type": "address"
        }
      ],
      "name": "balanceOf",
      "outputs": [
        {
          "internalType": "uint256",
          "name": "",
          "type": "uint256"
        }
      ],
      "stateMutability": "view",
      "type": "function"
    },
    {
      "inputs": [
        {
          "internalType": "uint256",
          "name": "",
          "type": "uint256"
        },
        {
          "internalType": "address",
          "name": "",
          "type": "address"
        }
      ],
      "name": "bids",
      "outputs": [
        {
          "internalType": "uint256",
          "name": "",
          "type": "uint256"
        }
      ],
      "stateMutability": "view",
      "type": "function"
    },
    {
      "inputs": [
        {
          "internalType": "uint256",
          "name": "listingId",
          "type": "uint256"
        }
      ],
      "name": "completeAuction",
      "outputs": [],
      "stateMutability": "payable",
      "type": "function"
    },
    {
      "inputs": [
        {
          "internalType": "uint256",
          "name": "price",
          "type": "uint256"
        },
        {
          "internalType": "uint256",
          "name": "tokenId",
          "type": "uint256"
        },
        {
          "internalType": "uint256",
          "name": "durationInSeconds",
          "type": "uint256"
        }
      ],
      "name": "createAuctionListing",
      "outputs": [
        {
          "internalType": "uint256",
          "name": "",
          "type": "uint256"
        }
      ],
      "stateMutability": "nonpayable",
      "type": "function"
    },
    {
      "inputs": [
        {
          "internalType": "uint256",
          "name": "tokenId",
          "type": "uint256"
        }
      ],
      "name": "getApproved",
      "outputs": [
        {
          "internalType": "address",
          "name": "",
          "type": "address"
        }
      ],
      "stateMutability": "view",
      "type": "function"
    },
    {
      "inputs": [
        {
          "internalType": "uint256",
          "name": "tokenId",
          "type": "uint256"
        }
      ],
      "name": "getNftPrice",
      "outputs": [
        {
          "internalType": "uint256",
          "name": "",
          "type": "uint256"
        }
      ],
      "stateMutability": "view",
      "type": "function"
    },
    {
      "inputs": [
        {
          "internalType": "uint256",
          "name": "",
          "type": "uint256"
        }
      ],
      "name": "highestBidder",
      "outputs": [
        {
          "internalType": "address",
          "name": "",
          "type": "address"
        }
      ],
      "stateMutability": "view",
      "type": "function"
    },
    {
      "inputs": [
        {
          "internalType": "address",
          "name": "owner",
          "type": "address"
        },
        {
          "internalType": "address",
          "name": "operator",
          "type": "address"
        }
      ],
      "name": "isApprovedForAll",
      "outputs": [
        {
          "internalType": "bool",
          "name": "",
          "type": "bool"
        }
      ],
      "stateMutability": "view",
      "type": "function"
    },
    {
      "inputs": [
        {
          "internalType": "uint256",
          "name": "id",
          "type": "uint256"
        }
      ],
      "name": "isAuctionOpen",
      "outputs": [
        {
          "internalType": "bool",
          "name": "",
          "type": "bool"
        }
      ],
      "stateMutability": "view",
      "type": "function"
    },
    {
      "inputs": [
        {
          "internalType": "uint256",
          "name": "",
          "type": "uint256"
        }
      ],
      "name": "listings",
      "outputs": [
        {
          "internalType": "address",
          "name": "seller",
          "type": "address"
        },
        {
          "internalType": "address",
          "name": "owner",
          "type": "address"
        },
        {
          "internalType": "uint256",
          "name": "tokenId",
          "type": "uint256"
        },
        {
          "internalType": "uint256",
          "name": "price",
          "type": "uint256"
        },
        {
          "internalType": "uint256",
          "name": "netPrice",
          "type": "uint256"
        },
        {
          "internalType": "uint256",
          "name": "startAt",
          "type": "uint256"
        },
        {
          "internalType": "uint256",
          "name": "endAt",
          "type": "uint256"
        },
        {
          "internalType": "uint8",
          "name": "status",
          "type": "uint8"
        }
      ],
      "stateMutability": "view",
      "type": "function"
    },
    {
      "inputs": [],
      "name": "minAuctionIncrement",
      "outputs": [
        {
          "internalType": "uint256",
          "name": "",
          "type": "uint256"
        }
      ],
      "stateMutability": "view",
      "type": "function"
    },
    {
      "inputs": [
        {
          "internalType": "string",
          "name": "_tokenURI",
          "type": "string"
        },
        {
          "internalType": "uint256",
          "name": "price",
          "type": "uint256"
        },
        {
          "internalType": "uint256",
          "name": "durationInSeconds",
          "type": "uint256"
        }
      ],
      "name": "mintAuctionToken",
      "outputs": [
        {
          "internalType": "uint256",
          "name": "",
          "type": "uint256"
        }
      ],
      "stateMutability": "nonpayable",
      "type": "function"
    },
    {
      "inputs": [
        {
          "internalType": "string",
          "name": "_tokenURI",
          "type": "string"
        },
        {
          "internalType": "uint256",
          "name": "price",
          "type": "uint256"
        }
      ],
      "name": "mintToken",
      "outputs": [
        {
          "internalType": "uint256",
          "name": "",
          "type": "uint256"
        }
      ],
      "stateMutability": "nonpayable",
      "type": "function"
    },
    {
      "inputs": [],
      "name": "name",
      "outputs": [
        {
          "internalType": "string",
          "name": "",
          "type": "string"
        }
      ],
      "stateMutability": "view",
      "type": "function"
    },
    {
      "inputs": [
        {
          "internalType": "uint256",
          "name": "tokenId",
          "type": "uint256"
        }
      ],
      "name": "ownerOf",
      "outputs": [
        {
          "internalType": "address",
          "name": "",
          "type": "address"
        }
      ],
      "stateMutability": "view",
      "type": "function"
    },
    {
      "inputs": [
        {
          "internalType": "address",
          "name": "from",
          "type": "address"
        },
        {
          "internalType": "address",
          "name": "to",
          "type": "address"
        },
        {
          "internalType": "uint256",
          "name": "tokenId",
          "type": "uint256"
        }
      ],
      "name": "safeTransferFrom",
      "outputs": [],
      "stateMutability": "nonpayable",
      "type": "function"
    },
    {
      "inputs": [
        {
          "internalType": "address",
          "name": "from",
          "type": "address"
        },
        {
          "internalType": "address",
          "name": "to",
          "type": "address"
        },
        {
          "internalType": "uint256",
          "name": "tokenId",
          "type": "uint256"
        },
        {
          "internalType": "bytes",
          "name": "data",
          "type": "bytes"
        }
      ],
      "name": "safeTransferFrom",
      "outputs": [],
      "stateMutability": "nonpayable",
      "type": "function"
    },
    {
      "inputs": [
        {
          "internalType": "uint256",
          "name": "tokenId",
          "type": "uint256"
        }
      ],
      "name": "sellNFT",
      "outputs": [],
      "stateMutability": "payable",
      "type": "function"
    },
    {
      "inputs": [
        {
          "internalType": "address",
          "name": "operator",
          "type": "address"
        },
        {
          "internalType": "bool",
          "name": "approved",
          "type": "bool"
        }
      ],
      "name": "setApprovalForAll",
      "outputs": [],
      "stateMutability": "nonpayable",
      "type": "function"
    },
    {
      "inputs": [
        {
          "internalType": "uint256",
          "name": "tokenId",
          "type": "uint256"
        }
      ],
      "name": "singleNFT",
      "outputs": [
        {
          "components": [
            {
              "internalType": "address",
              "name": "owner",
              "type": "address"
            },
            {
              "internalType": "address",
              "name": "seller",
              "type": "address"
            },
            {
              "internalType": "uint256",
              "name": "price",
              "type": "uint256"
            },
            {
              "internalType": "bool",
              "name": "sold",
              "type": "bool"
            },
            {
              "internalType": "uint256",
              "name": "tokenId",
              "type": "uint256"
            }
          ],
          "internalType": "struct RSKNFT.NFT",
          "name": "props",
          "type": "tuple"
        }
      ],
      "stateMutability": "view",
      "type": "function"
    },
    {
      "inputs": [
        {
          "internalType": "bytes4",
          "name": "interfaceId",
          "type": "bytes4"
        }
      ],
      "name": "supportsInterface",
      "outputs": [
        {
          "internalType": "bool",
          "name": "",
          "type": "bool"
        }
      ],
      "stateMutability": "view",
      "type": "function"
    },
    {
      "inputs": [],
      "name": "symbol",
      "outputs": [
        {
          "internalType": "string",
          "name": "",
          "type": "string"
        }
      ],
      "stateMutability": "view",
      "type": "function"
    },
    {
      "inputs": [
        {
          "internalType": "uint256",
          "name": "tokenId",
          "type": "uint256"
        }
      ],
      "name": "tokenURI",
      "outputs": [
        {
          "internalType": "string",
          "name": "",
          "type": "string"
        }
      ],
      "stateMutability": "view",
      "type": "function"
    },
    {
      "inputs": [
        {
          "internalType": "address",
          "name": "from",
          "type": "address"
        },
        {
          "internalType": "address",
          "name": "to",
          "type": "address"
        },
        {
          "internalType": "uint256",
          "name": "tokenId",
          "type": "uint256"
        }
      ],
      "name": "transferFrom",
      "outputs": [],
      "stateMutability": "nonpayable",
      "type": "function"
    },
    {
      "inputs": [],
      "name": "userNfts",
      "outputs": [
        {
          "components": [
            {
              "internalType": "address",
              "name": "owner",
              "type": "address"
            },
            {
              "internalType": "address",
              "name": "seller",
              "type": "address"
            },
            {
              "internalType": "uint256",
              "name": "price",
              "type": "uint256"
            },
            {
              "internalType": "bool",
              "name": "sold",
              "type": "bool"
            },
            {
              "internalType": "uint256",
              "name": "tokenId",
              "type": "uint256"
            }
          ],
          "internalType": "struct RSKNFT.NFT[]",
          "name": "",
          "type": "tuple[]"
        }
      ],
      "stateMutability": "view",
      "type": "function"
    }
  ],
  "bytecode": "0x6080604052600a80553480156200001557600080fd5b506040518060400160405280600781526020017f43656c6f4e4654000000000000000000000000000000000000000000000000008152506040518060400160405280600381526020017f4153470000000000000000000000000000000000000000000000000000000000815250816000908162000093919062000371565b508060019081620000a5919062000371565b505050600160078190555033600b60006101000a81548173ffffffffffffffffffffffffffffffffffffffff021916908373ffffffffffffffffffffffffffffffffffffffff16021790555062000458565b600081519050919050565b7f4e487b7100000000000000000000000000000000000000000000000000000000600052604160045260246000fd5b7f4e487b7100000000000000000000000000000000000000000000000000000000600052602260045260246000fd5b600060028204905060018216806200017957607f821691505b6020821081036200018f576200018e62000131565b5b50919050565b60008190508160005260206000209050919050565b60006020601f8301049050919050565b600082821b905092915050565b600060088302620001f97fffffffffffffffffffffffffffffffffffffffffffffffffffffffffffffffff82620001ba565b620002058683620001ba565b95508019841693508086168417925050509392505050565b6000819050919050565b6000819050919050565b6000620002526200024c62000246846200021d565b62000227565b6200021d565b9050919050565b6000819050919050565b6200026e8362000231565b620002866200027d8262000259565b848454620001c7565b825550505050565b600090565b6200029d6200028e565b620002aa81848462000263565b505050565b5b81811015620002d257620002c660008262000293565b600181019050620002b0565b5050565b601f8211156200032157620002eb8162000195565b620002f684620001aa565b8101602085101562000306578190505b6200031e6200031585620001aa565b830182620002af565b50505b505050565b600082821c905092915050565b6000620003466000198460080262000326565b1980831691505092915050565b600062000361838362000333565b9150826002028217905092915050565b6200037c82620000f7565b67ffffffffffffffff81111562000398576200039762000102565b5b620003a4825462000160565b620003b1828285620002d6565b600060209050601f831160018114620003e95760008415620003d4578287015190505b620003e0858262000353565b86555062000450565b601f198416620003f98662000195565b60005b828110156200042357848901518255600182019150602085019450602081019050620003fc565b868310156200044357848901516200043f601f89168262000333565b8355505b6001600288020188555050505b505050505050565b614c8d80620004686000396000f3fe6080604052600436106101c25760003560e01c80634c22f381116100f7578063b88d4fde11610095578063de74e57b11610064578063de74e57b146106cb578063e985e9c51461070f578063ee9cdfb31461074c578063f2b8aa6f14610768576101c2565b8063b88d4fde146105eb578063bbb52fff14610614578063c046372c14610651578063c87b56dd1461068e576101c2565b806370a08231116100d157806370a082311461051d5780637bf0989a1461055a57806395d89b4114610597578063a22cb465146105c2576101c2565b80634c22f381146104785780636352211e146104b5578063708d4d35146104f2576101c2565b806315bfa6121161016457806323b872dd1161013e57806323b872dd146103ac5780633f1ffcec146103d557806342842e0e14610412578063451df52e1461043b576101c2565b806315bfa6121461033a57806321b6288614610365578063236d472514610381576101c2565b806306fdde03116101a057806306fdde031461026c578063081812fc14610297578063095ea7b3146102d45780630ad48628146102fd576101c2565b806301ffc9a7146101c7578063043a2df414610204578063051d2b6b14610241575b600080fd5b3480156101d357600080fd5b506101ee60048036038101906101e9919061313d565b610793565b6040516101fb9190613185565b60405180910390f35b34801561021057600080fd5b5061022b600480360381019061022691906131d6565b6107f4565b60405161023891906132ca565b60405180910390f35b34801561024d57600080fd5b506102566108fc565b60405161026391906133fc565b60405180910390f35b34801561027857600080fd5b50610281610bbd565b60405161028e91906134ae565b60405180910390f35b3480156102a357600080fd5b506102be60048036038101906102b991906131d6565b610c4f565b6040516102cb91906134df565b60405180910390f35b3480156102e057600080fd5b506102fb60048036038101906102f69190613526565b610c95565b005b34801561030957600080fd5b50610324600480360381019061031f91906131d6565b610dac565b6040516103319190613185565b60405180910390f35b34801561034657600080fd5b5061034f610e03565b60405161035c9190613582565b60405180910390f35b61037f600480360381019061037a91906131d6565b610e08565b005b34801561038d57600080fd5b506103966111cc565b6040516103a39190613582565b60405180910390f35b3480156103b857600080fd5b506103d360048036038101906103ce919061359d565b6111d1565b005b3480156103e157600080fd5b506103fc60048036038101906103f791906135f0565b611231565b604051610409919061363f565b60405180910390f35b34801561041e57600080fd5b506104396004803603810190610434919061359d565b611256565b005b34801561044757600080fd5b50610462600480360381019061045d91906131d6565b611276565b60405161046f91906134df565b60405180910390f35b34801561048457600080fd5b5061049f600480360381019061049a919061365a565b6112a9565b6040516104ac919061363f565b60405180910390f35b3480156104c157600080fd5b506104dc60048036038101906104d791906131d6565b6114a2565b6040516104e991906134df565b60405180910390f35b3480156104fe57600080fd5b50610507611528565b604051610514919061363f565b60405180910390f35b34801561052957600080fd5b50610544600480360381019061053f91906136ad565b61152e565b604051610551919061363f565b60405180910390f35b34801561056657600080fd5b50610581600480360381019061057c91906131d6565b6115e5565b60405161058e919061363f565b60405180910390f35b3480156105a357600080fd5b506105ac611605565b6040516105b991906134ae565b60405180910390f35b3480156105ce57600080fd5b506105e960048036038101906105e49190613706565b611697565b005b3480156105f757600080fd5b50610612600480360381019061060d919061387b565b6116ad565b005b34801561062057600080fd5b5061063b6004803603810190610636919061399f565b61170f565b604051610648919061363f565b60405180910390f35b34801561065d57600080fd5b5061067860048036038101906106739190613a0e565b611754565b604051610685919061363f565b60405180910390f35b34801561069a57600080fd5b506106b560048036038101906106b091906131d6565b611796565b6040516106c291906134ae565b60405180910390f35b3480156106d757600080fd5b506106f260048036038101906106ed91906131d6565b6118a8565b604051610706989796959493929190613a6a565b60405180910390f35b34801561071b57600080fd5b5061073660048036038101906107319190613ae8565b61193d565b6040516107439190613185565b60405180910390f35b610766600480360381019061076191906131d6565b6119d1565b005b34801561077457600080fd5b5061077d611c4b565b60405161078a91906133fc565b60405180910390f35b6000634906490660e01b7bffffffffffffffffffffffffffffffffffffffffffffffffffffffff1916827bffffffffffffffffffffffffffffffffffffffffffffffffffffffff191614806107ed57506107ec82611dfe565b5b9050919050565b6107fc613074565b600c60008381526020019081526020016000206040518060a00160405290816000820160009054906101000a900473ffffffffffffffffffffffffffffffffffffffff1673ffffffffffffffffffffffffffffffffffffffff1673ffffffffffffffffffffffffffffffffffffffff1681526020016001820160009054906101000a900473ffffffffffffffffffffffffffffffffffffffff1673ffffffffffffffffffffffffffffffffffffffff1673ffffffffffffffffffffffffffffffffffffffff168152602001600282015481526020016003820160009054906101000a900460ff161515151581526020016004820154815250509050919050565b6060600061090a6008611ee0565b9050600080600190505b8281116109a6573373ffffffffffffffffffffffffffffffffffffffff16600c600083815260200190815260200160002060000160009054906101000a900473ffffffffffffffffffffffffffffffffffffffff1673ffffffffffffffffffffffffffffffffffffffff160361099357818061098f90613b57565b9250505b808061099e90613b57565b915050610914565b5060008167ffffffffffffffff8111156109c3576109c2613750565b5b6040519080825280602002602001820160405280156109fc57816020015b6109e9613074565b8152602001906001900390816109e15790505b509050600091506000600190505b838111610bb3573373ffffffffffffffffffffffffffffffffffffffff16600c600083815260200190815260200160002060000160009054906101000a900473ffffffffffffffffffffffffffffffffffffffff1673ffffffffffffffffffffffffffffffffffffffff1603610ba057600c60008281526020019081526020016000206040518060a00160405290816000820160009054906101000a900473ffffffffffffffffffffffffffffffffffffffff1673ffffffffffffffffffffffffffffffffffffffff1673ffffffffffffffffffffffffffffffffffffffff1681526020016001820160009054906101000a900473ffffffffffffffffffffffffffffffffffffffff1673ffffffffffffffffffffffffffffffffffffffff1673ffffffffffffffffffffffffffffffffffffffff168152602001600282015481526020016003820160009054906101000a900460ff16151515158152602001600482015481525050828481518110610b8657610b85613b9f565b5b60200260200101819052508280610b9c90613b57565b9350505b8080610bab90613b57565b915050610a0a565b5080935050505090565b606060008054610bcc90613bfd565b80601f0160208091040260200160405190810160405280929190818152602001828054610bf890613bfd565b8015610c455780601f10610c1a57610100808354040283529160200191610c45565b820191906000526020600020905b815481529060010190602001808311610c2857829003601f168201915b5050505050905090565b6000610c5a82611eee565b6004600083815260200190815260200160002060009054906101000a900473ffffffffffffffffffffffffffffffffffffffff169050919050565b6000610ca0826114a2565b90508073ffffffffffffffffffffffffffffffffffffffff168373ffffffffffffffffffffffffffffffffffffffff1603610d10576040517f08c379a0000000000000000000000000000000000000000000000000000000008152600401610d0790613ca0565b60405180910390fd5b8073ffffffffffffffffffffffffffffffffffffffff16610d2f611f39565b73ffffffffffffffffffffffffffffffffffffffff161480610d5e5750610d5d81610d58611f39565b61193d565b5b610d9d576040517f08c379a0000000000000000000000000000000000000000000000000000000008152600401610d9490613d32565b60405180910390fd5b610da78383611f41565b505050565b6000600160ff16600d600084815260200190815260200160002060070160009054906101000a900460ff1660ff16148015610dfc575042600d600084815260200190815260200160002060060154115b9050919050565b600281565b610e10611ffa565b610e1981610dac565b15610e59576040517f08c379a0000000000000000000000000000000000000000000000000000000008152600401610e5090613d9e565b60405180910390fd5b6000600d600083815260200190815260200160002090506000600f600084815260200190815260200160002060009054906101000a900473ffffffffffffffffffffffffffffffffffffffff1690508160000160009054906101000a900473ffffffffffffffffffffffffffffffffffffffff1673ffffffffffffffffffffffffffffffffffffffff163373ffffffffffffffffffffffffffffffffffffffff161480610f3157508073ffffffffffffffffffffffffffffffffffffffff163373ffffffffffffffffffffffffffffffffffffffff16145b610f70576040517f08c379a0000000000000000000000000000000000000000000000000000000008152600401610f6790613e30565b60405180910390fd5b600073ffffffffffffffffffffffffffffffffffffffff168173ffffffffffffffffffffffffffffffffffffffff161461109257610fb330828460020154612049565b6000600e600085815260200190815260200160002060008373ffffffffffffffffffffffffffffffffffffffff1673ffffffffffffffffffffffffffffffffffffffff1681526020019081526020016000205490506000600e600086815260200190815260200160002060008473ffffffffffffffffffffffffffffffffffffffff1673ffffffffffffffffffffffffffffffffffffffff1681526020019081526020016000208190555061108c8360000160009054906101000a900473ffffffffffffffffffffffffffffffffffffffff1682612342565b506110c6565b6110c5308360000160009054906101000a900473ffffffffffffffffffffffffffffffffffffffff168460020154612049565b5b60028260070160006101000a81548160ff021916908360ff1602179055508073ffffffffffffffffffffffffffffffffffffffff168260000160009054906101000a900473ffffffffffffffffffffffffffffffffffffffff1673ffffffffffffffffffffffffffffffffffffffff167f7a59a6c36c8b7dc5080444722a7a194bf83837c893f984bcea8692e91551fc4785600e600088815260200190815260200160002060008673ffffffffffffffffffffffffffffffffffffffff1673ffffffffffffffffffffffffffffffffffffffff168152602001908152602001600020546040516111b7929190613e50565b60405180910390a350506111c961246c565b50565b600181565b6111e26111dc611f39565b82612476565b611221576040517f08c379a000000000000000000000000000000000000000000000000000000000815260040161121890613eeb565b60405180910390fd5b61122c838383612049565b505050565b600e602052816000526040600020602052806000526040600020600091509150505481565b611271838383604051806020016040528060008152506116ad565b505050565b600f6020528060005260406000206000915054906101000a900473ffffffffffffffffffffffffffffffffffffffff1681565b6000806112b66008611ee0565b905060008190506000429050600085826112d09190613f0b565b90506040518061010001604052803373ffffffffffffffffffffffffffffffffffffffff1681526020013073ffffffffffffffffffffffffffffffffffffffff168152602001888152602001898152602001898152602001838152602001828152602001600160ff16815250600d600085815260200190815260200160002060008201518160000160006101000a81548173ffffffffffffffffffffffffffffffffffffffff021916908373ffffffffffffffffffffffffffffffffffffffff16021790555060208201518160010160006101000a81548173ffffffffffffffffffffffffffffffffffffffff021916908373ffffffffffffffffffffffffffffffffffffffff16021790555060408201518160020155606082015181600301556080820151816004015560a0820151816005015560c0820151816006015560e08201518160070160006101000a81548160ff021916908360ff16021790555090505061143e333089612049565b3373ffffffffffffffffffffffffffffffffffffffff167fe3b4d5ceeb9bd4281ba3f05bf499516adb0de51dd1bbfc4516efbdb369ab7305848a8a868660405161148c959493929190613f8b565b60405180910390a2829450505050509392505050565b6000806114ae8361250b565b9050600073ffffffffffffffffffffffffffffffffffffffff168173ffffffffffffffffffffffffffffffffffffffff160361151f576040517f08c379a00000000000000000000000000000000000000000000000000000000081526004016115169061403d565b60405180910390fd5b80915050919050565b600a5481565b60008073ffffffffffffffffffffffffffffffffffffffff168273ffffffffffffffffffffffffffffffffffffffff160361159e576040517f08c379a0000000000000000000000000000000000000000000000000000000008152600401611595906140cf565b60405180910390fd5b600360008373ffffffffffffffffffffffffffffffffffffffff1673ffffffffffffffffffffffffffffffffffffffff168152602001908152602001600020549050919050565b6000600c6000838152602001908152602001600020600201549050919050565b60606001805461161490613bfd565b80601f016020809104026020016040519081016040528092919081815260200182805461164090613bfd565b801561168d5780601f106116625761010080835404028352916020019161168d565b820191906000526020600020905b81548152906001019060200180831161167057829003601f168201915b5050505050905090565b6116a96116a2611f39565b8383612548565b5050565b6116be6116b8611f39565b83612476565b6116fd576040517f08c379a00000000000000000000000000000000000000000000000000000000081526004016116f490613eeb565b60405180910390fd5b611709848484846126b4565b50505050565b600061171b6008612710565b60006117276008611ee0565b90506117333382612726565b61173d8186612943565b6117488482856112a9565b50809150509392505050565b60006117606008612710565b600061176c6008611ee0565b90506117783382612726565b6117828185612943565b61178c81846129e7565b8091505092915050565b60606117a182611eee565b60006006600084815260200190815260200160002080546117c190613bfd565b80601f01602080910402602001604051908101604052809291908181526020018280546117ed90613bfd565b801561183a5780601f1061180f5761010080835404028352916020019161183a565b820191906000526020600020905b81548152906001019060200180831161181d57829003601f168201915b50505050509050600061184b612b73565b905060008151036118605781925050506118a3565b60008251111561189557808260405160200161187d92919061412b565b604051602081830303815290604052925050506118a3565b61189e84612b8a565b925050505b919050565b600d6020528060005260406000206000915090508060000160009054906101000a900473ffffffffffffffffffffffffffffffffffffffff16908060010160009054906101000a900473ffffffffffffffffffffffffffffffffffffffff16908060020154908060030154908060040154908060050154908060060154908060070160009054906101000a900460ff16905088565b6000600560008473ffffffffffffffffffffffffffffffffffffffff1673ffffffffffffffffffffffffffffffffffffffff16815260200190815260200160002060008373ffffffffffffffffffffffffffffffffffffffff1673ffffffffffffffffffffffffffffffffffffffff16815260200190815260200160002060009054906101000a900460ff16905092915050565b6000600c60008381526020019081526020016000206002015490506000600c600084815260200190815260200160002060010160009054906101000a900473ffffffffffffffffffffffffffffffffffffffff169050813414611a69576040517f08c379a0000000000000000000000000000000000000000000000000000000008152600401611a609061419b565b60405180910390fd5b60008173ffffffffffffffffffffffffffffffffffffffff1683604051611a8f906141ec565b60006040518083038185875af1925050503d8060008114611acc576040519150601f19603f3d011682016040523d82523d6000602084013e611ad1565b606091505b5050905080611b15576040517f08c379a0000000000000000000000000000000000000000000000000000000008152600401611b0c9061424d565b60405180910390fd5b33600c600086815260200190815260200160002060000160006101000a81548173ffffffffffffffffffffffffffffffffffffffff021916908373ffffffffffffffffffffffffffffffffffffffff1602179055506000600c600086815260200190815260200160002060010160006101000a81548173ffffffffffffffffffffffffffffffffffffffff021916908373ffffffffffffffffffffffffffffffffffffffff1602179055506001600c600086815260200190815260200160002060030160006101000a81548160ff021916908315150217905550611bf96009612710565b611c04303386612049565b7f6abf8fea1f4c585bf426b0fdbd54c0f004a746a4b6dcb76752a2d5d268f8730b84336000866001604051611c3d9594939291906142b9565b60405180910390a150505050565b60606000611c596008611ee0565b905060008167ffffffffffffffff811115611c7757611c76613750565b5b604051908082528060200260200182016040528015611cb057816020015b611c9d613074565b815260200190600190039081611c955790505b50905060005b8151811015611df557600c6000600183611cd09190613f0b565b81526020019081526020016000206040518060a00160405290816000820160009054906101000a900473ffffffffffffffffffffffffffffffffffffffff1673ffffffffffffffffffffffffffffffffffffffff1673ffffffffffffffffffffffffffffffffffffffff1681526020016001820160009054906101000a900473ffffffffffffffffffffffffffffffffffffffff1673ffffffffffffffffffffffffffffffffffffffff1673ffffffffffffffffffffffffffffffffffffffff168152602001600282015481526020016003820160009054906101000a900460ff16151515158152602001600482015481525050828281518110611dd757611dd6613b9f565b5b60200260200101819052508080611ded90613b57565b915050611cb6565b50809250505090565b60007f80ac58cd000000000000000000000000000000000000000000000000000000007bffffffffffffffffffffffffffffffffffffffffffffffffffffffff1916827bffffffffffffffffffffffffffffffffffffffffffffffffffffffff19161480611ec957507f5b5e139f000000000000000000000000000000000000000000000000000000007bffffffffffffffffffffffffffffffffffffffffffffffffffffffff1916827bffffffffffffffffffffffffffffffffffffffffffffffffffffffff1916145b80611ed95750611ed882612bf2565b5b9050919050565b600081600001549050919050565b611ef781612c5c565b611f36576040517f08c379a0000000000000000000000000000000000000000000000000000000008152600401611f2d9061403d565b60405180910390fd5b50565b600033905090565b816004600083815260200190815260200160002060006101000a81548173ffffffffffffffffffffffffffffffffffffffff021916908373ffffffffffffffffffffffffffffffffffffffff160217905550808273ffffffffffffffffffffffffffffffffffffffff16611fb4836114a2565b73ffffffffffffffffffffffffffffffffffffffff167f8c5be1e5ebec7d5bd14f71427d1e84f3dd0314c0f7b2291e5b200ac8c7c3b92560405160405180910390a45050565b60026007540361203f576040517f08c379a00000000000000000000000000000000000000000000000000000000081526004016120369061436b565b60405180910390fd5b6002600781905550565b8273ffffffffffffffffffffffffffffffffffffffff16612069826114a2565b73ffffffffffffffffffffffffffffffffffffffff16146120bf576040517f08c379a00000000000000000000000000000000000000000000000000000000081526004016120b6906143fd565b60405180910390fd5b600073ffffffffffffffffffffffffffffffffffffffff168273ffffffffffffffffffffffffffffffffffffffff160361212e576040517f08c379a00000000000000000000000000000000000000000000000000000000081526004016121259061448f565b60405180910390fd5b61213b8383836001612c9d565b8273ffffffffffffffffffffffffffffffffffffffff1661215b826114a2565b73ffffffffffffffffffffffffffffffffffffffff16146121b1576040517f08c379a00000000000000000000000000000000000000000000000000000000081526004016121a8906143fd565b60405180910390fd5b6004600082815260200190815260200160002060006101000a81549073ffffffffffffffffffffffffffffffffffffffff02191690556001600360008573ffffffffffffffffffffffffffffffffffffffff1673ffffffffffffffffffffffffffffffffffffffff168152602001908152602001600020600082825403925050819055506001600360008473ffffffffffffffffffffffffffffffffffffffff1673ffffffffffffffffffffffffffffffffffffffff16815260200190815260200160002060008282540192505081905550816002600083815260200190815260200160002060006101000a81548173ffffffffffffffffffffffffffffffffffffffff021916908373ffffffffffffffffffffffffffffffffffffffff160217905550808273ffffffffffffffffffffffffffffffffffffffff168473ffffffffffffffffffffffffffffffffffffffff167fddf252ad1be2c89b69c2b068fc378daa952ba7f163c4a11628f55a4df523b3ef60405160405180910390a461233d8383836001612ca3565b505050565b600081031561246857600073ffffffffffffffffffffffffffffffffffffffff168273ffffffffffffffffffffffffffffffffffffffff16036123ba576040517f08c379a00000000000000000000000000000000000000000000000000000000081526004016123b190614521565b60405180910390fd5b60008273ffffffffffffffffffffffffffffffffffffffff16826040516123e0906141ec565b60006040518083038185875af1925050503d806000811461241d576040519150601f19603f3d011682016040523d82523d6000602084013e612422565b606091505b5050905080612466576040517f08c379a000000000000000000000000000000000000000000000000000000000815260040161245d9061458d565b60405180910390fd5b505b5050565b6001600781905550565b600080612482836114a2565b90508073ffffffffffffffffffffffffffffffffffffffff168473ffffffffffffffffffffffffffffffffffffffff1614806124c457506124c3818561193d565b5b8061250257508373ffffffffffffffffffffffffffffffffffffffff166124ea84610c4f565b73ffffffffffffffffffffffffffffffffffffffff16145b91505092915050565b60006002600083815260200190815260200160002060009054906101000a900473ffffffffffffffffffffffffffffffffffffffff169050919050565b8173ffffffffffffffffffffffffffffffffffffffff168373ffffffffffffffffffffffffffffffffffffffff16036125b6576040517f08c379a00000000000000000000000000000000000000000000000000000000081526004016125ad906145f9565b60405180910390fd5b80600560008573ffffffffffffffffffffffffffffffffffffffff1673ffffffffffffffffffffffffffffffffffffffff16815260200190815260200160002060008473ffffffffffffffffffffffffffffffffffffffff1673ffffffffffffffffffffffffffffffffffffffff16815260200190815260200160002060006101000a81548160ff0219169083151502179055508173ffffffffffffffffffffffffffffffffffffffff168373ffffffffffffffffffffffffffffffffffffffff167f17307eab39ab6107e8899845ad3d59bd9653f200f220920489ca2b5937696c31836040516126a79190613185565b60405180910390a3505050565b6126bf848484612049565b6126cb84848484612ca9565b61270a576040517f08c379a00000000000000000000000000000000000000000000000000000000081526004016127019061468b565b60405180910390fd5b50505050565b6001816000016000828254019250508190555050565b600073ffffffffffffffffffffffffffffffffffffffff168273ffffffffffffffffffffffffffffffffffffffff1603612795576040517f08c379a000000000000000000000000000000000000000000000000000000000815260040161278c906146f7565b60405180910390fd5b61279e81612c5c565b156127de576040517f08c379a00000000000000000000000000000000000000000000000000000000081526004016127d590614763565b60405180910390fd5b6127ec600083836001612c9d565b6127f581612c5c565b15612835576040517f08c379a000000000000000000000000000000000000000000000000000000000815260040161282c90614763565b60405180910390fd5b6001600360008473ffffffffffffffffffffffffffffffffffffffff1673ffffffffffffffffffffffffffffffffffffffff16815260200190815260200160002060008282540192505081905550816002600083815260200190815260200160002060006101000a81548173ffffffffffffffffffffffffffffffffffffffff021916908373ffffffffffffffffffffffffffffffffffffffff160217905550808273ffffffffffffffffffffffffffffffffffffffff16600073ffffffffffffffffffffffffffffffffffffffff167fddf252ad1be2c89b69c2b068fc378daa952ba7f163c4a11628f55a4df523b3ef60405160405180910390a461293f600083836001612ca3565b5050565b61294c82612c5c565b61298b576040517f08c379a0000000000000000000000000000000000000000000000000000000008152600401612982906147f5565b60405180910390fd5b806006600084815260200190815260200160002090816129ab91906149c1565b507ff8e1a15aba9398e019f0b49df1a4fde98ee17ae345cb5f6b5e2c27f5033e8ce7826040516129db919061363f565b60405180910390a15050565b60006129f36008611ee0565b90506040518060a001604052803073ffffffffffffffffffffffffffffffffffffffff1681526020013373ffffffffffffffffffffffffffffffffffffffff16815260200183815260200160001515815260200184815250600c600083815260200190815260200160002060008201518160000160006101000a81548173ffffffffffffffffffffffffffffffffffffffff021916908373ffffffffffffffffffffffffffffffffffffffff16021790555060208201518160010160006101000a81548173ffffffffffffffffffffffffffffffffffffffff021916908373ffffffffffffffffffffffffffffffffffffffff1602179055506040820151816002015560608201518160030160006101000a81548160ff02191690831515021790555060808201518160040155905050612b2e333085612049565b7f6abf8fea1f4c585bf426b0fdbd54c0f004a746a4b6dcb76752a2d5d268f8730b833033856000604051612b66959493929190614adf565b60405180910390a1505050565b606060405180602001604052806000815250905090565b6060612b9582611eee565b6000612b9f612b73565b90506000815111612bbf5760405180602001604052806000815250612bea565b80612bc984612e30565b604051602001612bda92919061412b565b6040516020818303038152906040525b915050919050565b60007f01ffc9a7000000000000000000000000000000000000000000000000000000007bffffffffffffffffffffffffffffffffffffffffffffffffffffffff1916827bffffffffffffffffffffffffffffffffffffffffffffffffffffffff1916149050919050565b60008073ffffffffffffffffffffffffffffffffffffffff16612c7e8361250b565b73ffffffffffffffffffffffffffffffffffffffff1614159050919050565b50505050565b50505050565b6000612cca8473ffffffffffffffffffffffffffffffffffffffff16612efe565b15612e23578373ffffffffffffffffffffffffffffffffffffffff1663150b7a02612cf3611f39565b8786866040518563ffffffff1660e01b8152600401612d159493929190614b9a565b6020604051808303816000875af1925050508015612d5157506040513d601f19601f82011682018060405250810190612d4e9190614bfb565b60015b612dd3573d8060008114612d81576040519150601f19603f3d011682016040523d82523d6000602084013e612d86565b606091505b506000815103612dcb576040517f08c379a0000000000000000000000000000000000000000000000000000000008152600401612dc29061468b565b60405180910390fd5b805181602001fd5b63150b7a0260e01b7bffffffffffffffffffffffffffffffffffffffffffffffffffffffff1916817bffffffffffffffffffffffffffffffffffffffffffffffffffffffff191614915050612e28565b600190505b949350505050565b606060006001612e3f84612f21565b01905060008167ffffffffffffffff811115612e5e57612e5d613750565b5b6040519080825280601f01601f191660200182016040528015612e905781602001600182028036833780820191505090505b509050600082602001820190505b600115612ef3578080600190039150507f3031323334353637383961626364656600000000000000000000000000000000600a86061a8153600a8581612ee757612ee6614c28565b5b04945060008503612e9e575b819350505050919050565b6000808273ffffffffffffffffffffffffffffffffffffffff163b119050919050565b600080600090507a184f03e93ff9f4daa797ed6e38ed64bf6a1f0100000000000000008310612f7f577a184f03e93ff9f4daa797ed6e38ed64bf6a1f0100000000000000008381612f7557612f74614c28565b5b0492506040810190505b6d04ee2d6d415b85acef81000000008310612fbc576d04ee2d6d415b85acef81000000008381612fb257612fb1614c28565b5b0492506020810190505b662386f26fc100008310612feb57662386f26fc100008381612fe157612fe0614c28565b5b0492506010810190505b6305f5e1008310613014576305f5e100838161300a57613009614c28565b5b0492506008810190505b612710831061303957612710838161302f5761302e614c28565b5b0492506004810190505b6064831061305c576064838161305257613051614c28565b5b0492506002810190505b600a831061306b576001810190505b80915050919050565b6040518060a00160405280600073ffffffffffffffffffffffffffffffffffffffff168152602001600073ffffffffffffffffffffffffffffffffffffffff16815260200160008152602001600015158152602001600081525090565b6000604051905090565b600080fd5b600080fd5b60007fffffffff0000000000000000000000000000000000000000000000000000000082169050919050565b61311a816130e5565b811461312557600080fd5b50565b60008135905061313781613111565b92915050565b600060208284031215613153576131526130db565b5b600061316184828501613128565b91505092915050565b60008115159050919050565b61317f8161316a565b82525050565b600060208201905061319a6000830184613176565b92915050565b6000819050919050565b6131b3816131a0565b81146131be57600080fd5b50565b6000813590506131d0816131aa565b92915050565b6000602082840312156131ec576131eb6130db565b5b60006131fa848285016131c1565b91505092915050565b600073ffffffffffffffffffffffffffffffffffffffff82169050919050565b600061322e82613203565b9050919050565b61323e81613223565b82525050565b61324d816131a0565b82525050565b61325c8161316a565b82525050565b60a0820160008201516132786000850182613235565b50602082015161328b6020850182613235565b50604082015161329e6040850182613244565b5060608201516132b16060850182613253565b5060808201516132c46080850182613244565b50505050565b600060a0820190506132df6000830184613262565b92915050565b600081519050919050565b600082825260208201905092915050565b6000819050602082019050919050565b60a0820160008201516133276000850182613235565b50602082015161333a6020850182613235565b50604082015161334d6040850182613244565b5060608201516133606060850182613253565b5060808201516133736080850182613244565b50505050565b60006133858383613311565b60a08301905092915050565b6000602082019050919050565b60006133a9826132e5565b6133b381856132f0565b93506133be83613301565b8060005b838110156133ef5781516133d68882613379565b97506133e183613391565b9250506001810190506133c2565b5085935050505092915050565b60006020820190508181036000830152613416818461339e565b905092915050565b600081519050919050565b600082825260208201905092915050565b60005b8381101561345857808201518184015260208101905061343d565b60008484015250505050565b6000601f19601f8301169050919050565b60006134808261341e565b61348a8185613429565b935061349a81856020860161343a565b6134a381613464565b840191505092915050565b600060208201905081810360008301526134c88184613475565b905092915050565b6134d981613223565b82525050565b60006020820190506134f460008301846134d0565b92915050565b61350381613223565b811461350e57600080fd5b50565b600081359050613520816134fa565b92915050565b6000806040838503121561353d5761353c6130db565b5b600061354b85828601613511565b925050602061355c858286016131c1565b9150509250929050565b600060ff82169050919050565b61357c81613566565b82525050565b60006020820190506135976000830184613573565b92915050565b6000806000606084860312156135b6576135b56130db565b5b60006135c486828701613511565b93505060206135d586828701613511565b92505060406135e6868287016131c1565b9150509250925092565b60008060408385031215613607576136066130db565b5b6000613615858286016131c1565b925050602061362685828601613511565b9150509250929050565b613639816131a0565b82525050565b60006020820190506136546000830184613630565b92915050565b600080600060608486031215613673576136726130db565b5b6000613681868287016131c1565b9350506020613692868287016131c1565b92505060406136a3868287016131c1565b9150509250925092565b6000602082840312156136c3576136c26130db565b5b60006136d184828501613511565b91505092915050565b6136e38161316a565b81146136ee57600080fd5b50565b600081359050613700816136da565b92915050565b6000806040838503121561371d5761371c6130db565b5b600061372b85828601613511565b925050602061373c858286016136f1565b9150509250929050565b600080fd5b600080fd5b7f4e487b7100000000000000000000000000000000000000000000000000000000600052604160045260246000fd5b61378882613464565b810181811067ffffffffffffffff821117156137a7576137a6613750565b5b80604052505050565b60006137ba6130d1565b90506137c6828261377f565b919050565b600067ffffffffffffffff8211156137e6576137e5613750565b5b6137ef82613464565b9050602081019050919050565b82818337600083830152505050565b600061381e613819846137cb565b6137b0565b90508281526020810184848401111561383a5761383961374b565b5b6138458482856137fc565b509392505050565b600082601f83011261386257613861613746565b5b813561387284826020860161380b565b91505092915050565b60008060008060808587031215613895576138946130db565b5b60006138a387828801613511565b94505060206138b487828801613511565b93505060406138c5878288016131c1565b925050606085013567ffffffffffffffff8111156138e6576138e56130e0565b5b6138f28782880161384d565b91505092959194509250565b600067ffffffffffffffff82111561391957613918613750565b5b61392282613464565b9050602081019050919050565b600061394261393d846138fe565b6137b0565b90508281526020810184848401111561395e5761395d61374b565b5b6139698482856137fc565b509392505050565b600082601f83011261398657613985613746565b5b813561399684826020860161392f565b91505092915050565b6000806000606084860312156139b8576139b76130db565b5b600084013567ffffffffffffffff8111156139d6576139d56130e0565b5b6139e286828701613971565b93505060206139f3868287016131c1565b9250506040613a04868287016131c1565b9150509250925092565b60008060408385031215613a2557613a246130db565b5b600083013567ffffffffffffffff811115613a4357613a426130e0565b5b613a4f85828601613971565b9250506020613a60858286016131c1565b9150509250929050565b600061010082019050613a80600083018b6134d0565b613a8d602083018a6134d0565b613a9a6040830189613630565b613aa76060830188613630565b613ab46080830187613630565b613ac160a0830186613630565b613ace60c0830185613630565b613adb60e0830184613573565b9998505050505050505050565b60008060408385031215613aff57613afe6130db565b5b6000613b0d85828601613511565b9250506020613b1e85828601613511565b9150509250929050565b7f4e487b7100000000000000000000000000000000000000000000000000000000600052601160045260246000fd5b6000613b62826131a0565b91507fffffffffffffffffffffffffffffffffffffffffffffffffffffffffffffffff8203613b9457613b93613b28565b5b600182019050919050565b7f4e487b7100000000000000000000000000000000000000000000000000000000600052603260045260246000fd5b7f4e487b7100000000000000000000000000000000000000000000000000000000600052602260045260246000fd5b60006002820490506001821680613c1557607f821691505b602082108103613c2857613c27613bce565b5b50919050565b7f4552433732313a20617070726f76616c20746f2063757272656e74206f776e6560008201527f7200000000000000000000000000000000000000000000000000000000000000602082015250565b6000613c8a602183613429565b9150613c9582613c2e565b604082019050919050565b60006020820190508181036000830152613cb981613c7d565b9050919050565b7f4552433732313a20617070726f76652063616c6c6572206973206e6f7420746f60008201527f6b656e206f776e6572206f7220617070726f76656420666f7220616c6c000000602082015250565b6000613d1c603d83613429565b9150613d2782613cc0565b604082019050919050565b60006020820190508181036000830152613d4b81613d0f565b9050919050565b7f61756374696f6e206973207374696c6c206f70656e0000000000000000000000600082015250565b6000613d88601583613429565b9150613d9382613d52565b602082019050919050565b60006020820190508181036000830152613db781613d7b565b9050919050565b7f6f6e6c792073656c6c6572206f722077696e6e65722063616e20636f6d706c6560008201527f74652061756374696f6e00000000000000000000000000000000000000000000602082015250565b6000613e1a602a83613429565b9150613e2582613dbe565b604082019050919050565b60006020820190508181036000830152613e4981613e0d565b9050919050565b6000604082019050613e656000830185613630565b613e726020830184613630565b9392505050565b7f4552433732313a2063616c6c6572206973206e6f7420746f6b656e206f776e6560008201527f72206f7220617070726f76656400000000000000000000000000000000000000602082015250565b6000613ed5602d83613429565b9150613ee082613e79565b604082019050919050565b60006020820190508181036000830152613f0481613ec8565b9050919050565b6000613f16826131a0565b9150613f21836131a0565b9250828201905080821115613f3957613f38613b28565b5b92915050565b7f41756374696f6e2063726561746564207375636365737366756c6c7900000000600082015250565b6000613f75601c83613429565b9150613f8082613f3f565b602082019050919050565b600060c082019050613fa06000830188613630565b613fad6020830187613630565b613fba6040830186613630565b613fc76060830185613630565b613fd46080830184613630565b81810360a0830152613fe581613f68565b90509695505050505050565b7f4552433732313a20696e76616c696420746f6b656e2049440000000000000000600082015250565b6000614027601883613429565b915061403282613ff1565b602082019050919050565b600060208201905081810360008301526140568161401a565b9050919050565b7f4552433732313a2061646472657373207a65726f206973206e6f74206120766160008201527f6c6964206f776e65720000000000000000000000000000000000000000000000602082015250565b60006140b9602983613429565b91506140c48261405d565b604082019050919050565b600060208201905081810360008301526140e8816140ac565b9050919050565b600081905092915050565b60006141058261341e565b61410f81856140ef565b935061411f81856020860161343a565b80840191505092915050565b600061413782856140fa565b915061414382846140fa565b91508190509392505050565b7f696e636f727265637420616d6f756e7400000000000000000000000000000000600082015250565b6000614185601083613429565b91506141908261414f565b602082019050919050565b600060208201905081810360008301526141b481614178565b9050919050565b600081905092915050565b50565b60006141d66000836141bb565b91506141e1826141c6565b600082019050919050565b60006141f7826141c9565b9150819050919050565b7f7061796d656e74206661696c6564000000000000000000000000000000000000600082015250565b6000614237600e83613429565b915061424282614201565b602082019050919050565b600060208201905081810360008301526142668161422a565b9050919050565b7f536f6c64204e4654207375636365737366756c6c790000000000000000000000600082015250565b60006142a3601583613429565b91506142ae8261426d565b602082019050919050565b600060c0820190506142ce6000830188613630565b6142db60208301876134d0565b6142e860408301866134d0565b6142f56060830185613630565b6143026080830184613176565b81810360a083015261431381614296565b90509695505050505050565b7f5265656e7472616e637947756172643a207265656e7472616e742063616c6c00600082015250565b6000614355601f83613429565b91506143608261431f565b602082019050919050565b6000602082019050818103600083015261438481614348565b9050919050565b7f4552433732313a207472616e736665722066726f6d20696e636f72726563742060008201527f6f776e6572000000000000000000000000000000000000000000000000000000602082015250565b60006143e7602583613429565b91506143f28261438b565b604082019050919050565b60006020820190508181036000830152614416816143da565b9050919050565b7f4552433732313a207472616e7366657220746f20746865207a65726f2061646460008201527f7265737300000000000000000000000000000000000000000000000000000000602082015250565b6000614479602483613429565b91506144848261441d565b604082019050919050565b600060208201905081810360008301526144a88161446c565b9050919050565b7f4572726f722c2063616e6e6f74207472616e7366657220746f2061646472657360008201527f7328302900000000000000000000000000000000000000000000000000000000602082015250565b600061450b602483613429565b9150614516826144af565b604082019050919050565b6000602082019050818103600083015261453a816144fe565b9050919050565b7f4572726f722c206661696c656420746f2073656e642045746865720000000000600082015250565b6000614577601b83613429565b915061458282614541565b602082019050919050565b600060208201905081810360008301526145a68161456a565b9050919050565b7f4552433732313a20617070726f766520746f2063616c6c657200000000000000600082015250565b60006145e3601983613429565b91506145ee826145ad565b602082019050919050565b60006020820190508181036000830152614612816145d6565b9050919050565b7f4552433732313a207472616e7366657220746f206e6f6e20455243373231526560008201527f63656976657220696d706c656d656e7465720000000000000000000000000000602082015250565b6000614675603283613429565b915061468082614619565b604082019050919050565b600060208201905081810360008301526146a481614668565b9050919050565b7f4552433732313a206d696e7420746f20746865207a65726f2061646472657373600082015250565b60006146e1602083613429565b91506146ec826146ab565b602082019050919050565b60006020820190508181036000830152614710816146d4565b9050919050565b7f4552433732313a20746f6b656e20616c7265616479206d696e74656400000000600082015250565b600061474d601c83613429565b915061475882614717565b602082019050919050565b6000602082019050818103600083015261477c81614740565b9050919050565b7f45524337323155524953746f726167653a2055524920736574206f66206e6f6e60008201527f6578697374656e7420746f6b656e000000000000000000000000000000000000602082015250565b60006147df602e83613429565b91506147ea82614783565b604082019050919050565b6000602082019050818103600083015261480e816147d2565b9050919050565b60008190508160005260206000209050919050565b60006020601f8301049050919050565b600082821b905092915050565b6000600883026148777fffffffffffffffffffffffffffffffffffffffffffffffffffffffffffffffff8261483a565b614881868361483a565b95508019841693508086168417925050509392505050565b6000819050919050565b60006148be6148b96148b4846131a0565b614899565b6131a0565b9050919050565b6000819050919050565b6148d8836148a3565b6148ec6148e4826148c5565b848454614847565b825550505050565b600090565b6149016148f4565b61490c8184846148cf565b505050565b5b81811015614930576149256000826148f9565b600181019050614912565b5050565b601f8211156149755761494681614815565b61494f8461482a565b8101602085101561495e578190505b61497261496a8561482a565b830182614911565b50505b505050565b600082821c905092915050565b60006149986000198460080261497a565b1980831691505092915050565b60006149b18383614987565b9150826002028217905092915050565b6149ca8261341e565b67ffffffffffffffff8111156149e3576149e2613750565b5b6149ed8254613bfd565b6149f8828285614934565b600060209050601f831160018114614a2b5760008415614a19578287015190505b614a2385826149a5565b865550614a8b565b601f198416614a3986614815565b60005b82811015614a6157848901518255600182019150602085019450602081019050614a3c565b86831015614a7e5784890151614a7a601f891682614987565b8355505b6001600288020188555050505b505050505050565b7f4e46542063726561746564207375636365737366756c79000000000000000000600082015250565b6000614ac9601783613429565b9150614ad482614a93565b602082019050919050565b600060c082019050614af46000830188613630565b614b0160208301876134d0565b614b0e60408301866134d0565b614b1b6060830185613630565b614b286080830184613176565b81810360a0830152614b3981614abc565b90509695505050505050565b600081519050919050565b600082825260208201905092915050565b6000614b6c82614b45565b614b768185614b50565b9350614b8681856020860161343a565b614b8f81613464565b840191505092915050565b6000608082019050614baf60008301876134d0565b614bbc60208301866134d0565b614bc96040830185613630565b8181036060830152614bdb8184614b61565b905095945050505050565b600081519050614bf581613111565b92915050565b600060208284031215614c1157614c106130db565b5b6000614c1f84828501614be6565b91505092915050565b7f4e487b7100000000000000000000000000000000000000000000000000000000600052601260045260246000fdfea264697066735822122068159c7903e635289b7333cb0bf3f2cf0f4a5f02700d805d494420dd4926c0b564736f6c63430008130033",
  "linkReferences": {},
  "deployedLinkReferences": {}
}