{
  "_format": "hh-sol-artifact-1",
  "contractName": "RSKNFT",
  "sourceName": "contracts/RSKNFT.sol",
  "abi": [
    {
      "inputs": [],
      "stateMutability": "nonpayable",
      "type": "constructor"
    },
    {
      "anonymous": false,
      "inputs": [
        {
          "indexed": true,
          "internalType": "address",
          "name": "owner",
          "type": "address"
        },
        {
          "indexed": true,
          "internalType": "address",
          "name": "approved",
          "type": "address"
        },
        {
          "indexed": true,
          "internalType": "uint256",
          "name": "tokenId",
          "type": "uint256"
        }
      ],
      "name": "Approval",
      "type": "event"
    },
    {
      "anonymous": false,
      "inputs": [
        {
          "indexed": true,
          "internalType": "address",
          "name": "owner",
          "type": "address"
        },
        {
          "indexed": true,
          "internalType": "address",
          "name": "operator",
          "type": "address"
        },
        {
          "indexed": false,
          "internalType": "bool",
          "name": "approved",
          "type": "bool"
        }
      ],
      "name": "ApprovalForAll",
      "type": "event"
    },
    {
      "anonymous": false,
      "inputs": [
        {
          "indexed": false,
          "internalType": "uint256",
          "name": "listingId",
          "type": "uint256"
        },
        {
          "indexed": true,
          "internalType": "address",
          "name": "seller",
          "type": "address"
        },
        {
          "indexed": false,
          "internalType": "uint256",
          "name": "price",
          "type": "uint256"
        },
        {
          "indexed": false,
          "internalType": "uint256",
          "name": "tokenId",
          "type": "uint256"
        },
        {
          "indexed": false,
          "internalType": "uint256",
          "name": "startAt",
          "type": "uint256"
        },
        {
          "indexed": false,
          "internalType": "uint256",
          "name": "endAt",
          "type": "uint256"
        },
        {
          "indexed": false,
          "internalType": "string",
          "name": "message",
          "type": "string"
        }
      ],
      "name": "AuctionCreated",
      "type": "event"
    },
    {
      "anonymous": false,
      "inputs": [
        {
          "indexed": false,
          "internalType": "uint256",
          "name": "_fromTokenId",
          "type": "uint256"
        },
        {
          "indexed": false,
          "internalType": "uint256",
          "name": "_toTokenId",
          "type": "uint256"
        }
      ],
      "name": "BatchMetadataUpdate",
      "type": "event"
    },
    {
      "anonymous": false,
      "inputs": [
        {
          "indexed": false,
          "internalType": "uint256",
          "name": "_tokenId",
          "type": "uint256"
        }
      ],
      "name": "MetadataUpdate",
      "type": "event"
    },
    {
      "anonymous": false,
      "inputs": [
        {
          "indexed": false,
          "internalType": "uint256",
          "name": "tokenId",
          "type": "uint256"
        },
        {
          "indexed": false,
          "internalType": "address",
          "name": "owner",
          "type": "address"
        },
        {
          "indexed": false,
          "internalType": "address",
          "name": "seller",
          "type": "address"
        },
        {
          "indexed": false,
          "internalType": "uint256",
          "name": "price",
          "type": "uint256"
        },
        {
          "indexed": false,
          "internalType": "bool",
          "name": "sold",
          "type": "bool"
        },
        {
          "indexed": false,
          "internalType": "string",
          "name": "message",
          "type": "string"
        }
      ],
      "name": "NFT_Action",
      "type": "event"
    },
    {
      "anonymous": false,
      "inputs": [
        {
          "indexed": true,
          "internalType": "address",
          "name": "from",
          "type": "address"
        },
        {
          "indexed": true,
          "internalType": "address",
          "name": "to",
          "type": "address"
        },
        {
          "indexed": true,
          "internalType": "uint256",
          "name": "tokenId",
          "type": "uint256"
        }
      ],
      "name": "Transfer",
      "type": "event"
    },
    {
      "inputs": [],
      "name": "COMPLETED_STATUS",
      "outputs": [
        {
          "internalType": "uint8",
          "name": "",
          "type": "uint8"
        }
      ],
      "stateMutability": "view",
      "type": "function"
    },
    {
      "inputs": [],
      "name": "OPEN_STATUS",
      "outputs": [
        {
          "internalType": "uint8",
          "name": "",
          "type": "uint8"
        }
      ],
      "stateMutability": "view",
      "type": "function"
    },
    {
      "inputs": [],
      "name": "allNfts",
      "outputs": [
        {
          "components": [
            {
              "internalType": "address",
              "name": "owner",
              "type": "address"
            },
            {
              "internalType": "address",
              "name": "seller",
              "type": "address"
            },
            {
              "internalType": "uint256",
              "name": "price",
              "type": "uint256"
            },
            {
              "internalType": "bool",
              "name": "sold",
              "type": "bool"
            },
            {
              "internalType": "uint256",
              "name": "tokenId",
              "type": "uint256"
            }
          ],
          "internalType": "struct RSKNFT.NFT[]",
          "name": "",
          "type": "tuple[]"
        }
      ],
      "stateMutability": "view",
      "type": "function"
    },
    {
      "inputs": [
        {
          "internalType": "address",
          "name": "to",
          "type": "address"
        },
        {
          "internalType": "uint256",
          "name": "tokenId",
          "type": "uint256"
        }
      ],
      "name": "approve",
      "outputs": [],
      "stateMutability": "nonpayable",
      "type": "function"
    },
    {
      "inputs": [
        {
          "internalType": "address",
          "name": "owner",
          "type": "address"
        }
      ],
      "name": "balanceOf",
      "outputs": [
        {
          "internalType": "uint256",
          "name": "",
          "type": "uint256"
        }
      ],
      "stateMutability": "view",
      "type": "function"
    },
    {
      "inputs": [
        {
          "internalType": "uint256",
          "name": "",
          "type": "uint256"
        },
        {
          "internalType": "address",
          "name": "",
          "type": "address"
        }
      ],
      "name": "bids",
      "outputs": [
        {
          "internalType": "uint256",
          "name": "",
          "type": "uint256"
        }
      ],
      "stateMutability": "view",
      "type": "function"
    },
    {
      "inputs": [
        {
          "internalType": "uint256",
          "name": "price",
          "type": "uint256"
        },
        {
          "internalType": "uint256",
          "name": "tokenId",
          "type": "uint256"
        },
        {
          "internalType": "uint256",
          "name": "durationInSeconds",
          "type": "uint256"
        }
      ],
      "name": "createAuctionListing",
      "outputs": [
        {
          "internalType": "uint256",
          "name": "",
          "type": "uint256"
        }
      ],
      "stateMutability": "nonpayable",
      "type": "function"
    },
    {
      "inputs": [
        {
          "internalType": "uint256",
          "name": "tokenId",
          "type": "uint256"
        }
      ],
      "name": "getApproved",
      "outputs": [
        {
          "internalType": "address",
          "name": "",
          "type": "address"
        }
      ],
      "stateMutability": "view",
      "type": "function"
    },
    {
      "inputs": [
        {
          "internalType": "uint256",
          "name": "tokenId",
          "type": "uint256"
        }
      ],
      "name": "getNftPrice",
      "outputs": [
        {
          "internalType": "uint256",
          "name": "",
          "type": "uint256"
        }
      ],
      "stateMutability": "view",
      "type": "function"
    },
    {
      "inputs": [
        {
          "internalType": "uint256",
          "name": "",
          "type": "uint256"
        }
      ],
      "name": "highestBidder",
      "outputs": [
        {
          "internalType": "address",
          "name": "",
          "type": "address"
        }
      ],
      "stateMutability": "view",
      "type": "function"
    },
    {
      "inputs": [
        {
          "internalType": "address",
          "name": "owner",
          "type": "address"
        },
        {
          "internalType": "address",
          "name": "operator",
          "type": "address"
        }
      ],
      "name": "isApprovedForAll",
      "outputs": [
        {
          "internalType": "bool",
          "name": "",
          "type": "bool"
        }
      ],
      "stateMutability": "view",
      "type": "function"
    },
    {
      "inputs": [
        {
          "internalType": "uint256",
          "name": "",
          "type": "uint256"
        }
      ],
      "name": "listings",
      "outputs": [
        {
          "internalType": "address",
          "name": "seller",
          "type": "address"
        },
        {
          "internalType": "address",
          "name": "owner",
          "type": "address"
        },
        {
          "internalType": "uint256",
          "name": "tokenId",
          "type": "uint256"
        },
        {
          "internalType": "uint256",
          "name": "price",
          "type": "uint256"
        },
        {
          "internalType": "uint256",
          "name": "netPrice",
          "type": "uint256"
        },
        {
          "internalType": "uint256",
          "name": "startAt",
          "type": "uint256"
        },
        {
          "internalType": "uint256",
          "name": "endAt",
          "type": "uint256"
        },
        {
          "internalType": "uint8",
          "name": "status",
          "type": "uint8"
        }
      ],
      "stateMutability": "view",
      "type": "function"
    },
    {
      "inputs": [],
      "name": "minAuctionIncrement",
      "outputs": [
        {
          "internalType": "uint256",
          "name": "",
          "type": "uint256"
        }
      ],
      "stateMutability": "view",
      "type": "function"
    },
    {
      "inputs": [
        {
          "internalType": "string",
          "name": "_tokenURI",
          "type": "string"
        },
        {
          "internalType": "uint256",
          "name": "price",
          "type": "uint256"
        },
        {
          "internalType": "uint256",
          "name": "durationInSeconds",
          "type": "uint256"
        }
      ],
      "name": "mintAuctionToken",
      "outputs": [
        {
          "internalType": "uint256",
          "name": "",
          "type": "uint256"
        }
      ],
      "stateMutability": "nonpayable",
      "type": "function"
    },
    {
      "inputs": [
        {
          "internalType": "string",
          "name": "_tokenURI",
          "type": "string"
        },
        {
          "internalType": "uint256",
          "name": "price",
          "type": "uint256"
        }
      ],
      "name": "mintToken",
      "outputs": [
        {
          "internalType": "uint256",
          "name": "",
          "type": "uint256"
        }
      ],
      "stateMutability": "nonpayable",
      "type": "function"
    },
    {
      "inputs": [],
      "name": "name",
      "outputs": [
        {
          "internalType": "string",
          "name": "",
          "type": "string"
        }
      ],
      "stateMutability": "view",
      "type": "function"
    },
    {
      "inputs": [
        {
          "internalType": "uint256",
          "name": "tokenId",
          "type": "uint256"
        }
      ],
      "name": "ownerOf",
      "outputs": [
        {
          "internalType": "address",
          "name": "",
          "type": "address"
        }
      ],
      "stateMutability": "view",
      "type": "function"
    },
    {
      "inputs": [
        {
          "internalType": "address",
          "name": "from",
          "type": "address"
        },
        {
          "internalType": "address",
          "name": "to",
          "type": "address"
        },
        {
          "internalType": "uint256",
          "name": "tokenId",
          "type": "uint256"
        }
      ],
      "name": "safeTransferFrom",
      "outputs": [],
      "stateMutability": "nonpayable",
      "type": "function"
    },
    {
      "inputs": [
        {
          "internalType": "address",
          "name": "from",
          "type": "address"
        },
        {
          "internalType": "address",
          "name": "to",
          "type": "address"
        },
        {
          "internalType": "uint256",
          "name": "tokenId",
          "type": "uint256"
        },
        {
          "internalType": "bytes",
          "name": "data",
          "type": "bytes"
        }
      ],
      "name": "safeTransferFrom",
      "outputs": [],
      "stateMutability": "nonpayable",
      "type": "function"
    },
    {
      "inputs": [
        {
          "internalType": "uint256",
          "name": "tokenId",
          "type": "uint256"
        }
      ],
      "name": "sellNFT",
      "outputs": [],
      "stateMutability": "payable",
      "type": "function"
    },
    {
      "inputs": [
        {
          "internalType": "address",
          "name": "operator",
          "type": "address"
        },
        {
          "internalType": "bool",
          "name": "approved",
          "type": "bool"
        }
      ],
      "name": "setApprovalForAll",
      "outputs": [],
      "stateMutability": "nonpayable",
      "type": "function"
    },
    {
      "inputs": [
        {
          "internalType": "uint256",
          "name": "tokenId",
          "type": "uint256"
        }
      ],
      "name": "singleNFT",
      "outputs": [
        {
          "components": [
            {
              "internalType": "address",
              "name": "owner",
              "type": "address"
            },
            {
              "internalType": "address",
              "name": "seller",
              "type": "address"
            },
            {
              "internalType": "uint256",
              "name": "price",
              "type": "uint256"
            },
            {
              "internalType": "bool",
              "name": "sold",
              "type": "bool"
            },
            {
              "internalType": "uint256",
              "name": "tokenId",
              "type": "uint256"
            }
          ],
          "internalType": "struct RSKNFT.NFT",
          "name": "props",
          "type": "tuple"
        }
      ],
      "stateMutability": "view",
      "type": "function"
    },
    {
      "inputs": [
        {
          "internalType": "bytes4",
          "name": "interfaceId",
          "type": "bytes4"
        }
      ],
      "name": "supportsInterface",
      "outputs": [
        {
          "internalType": "bool",
          "name": "",
          "type": "bool"
        }
      ],
      "stateMutability": "view",
      "type": "function"
    },
    {
      "inputs": [],
      "name": "symbol",
      "outputs": [
        {
          "internalType": "string",
          "name": "",
          "type": "string"
        }
      ],
      "stateMutability": "view",
      "type": "function"
    },
    {
      "inputs": [
        {
          "internalType": "uint256",
          "name": "tokenId",
          "type": "uint256"
        }
      ],
      "name": "tokenURI",
      "outputs": [
        {
          "internalType": "string",
          "name": "",
          "type": "string"
        }
      ],
      "stateMutability": "view",
      "type": "function"
    },
    {
      "inputs": [
        {
          "internalType": "address",
          "name": "from",
          "type": "address"
        },
        {
          "internalType": "address",
          "name": "to",
          "type": "address"
        },
        {
          "internalType": "uint256",
          "name": "tokenId",
          "type": "uint256"
        }
      ],
      "name": "transferFrom",
      "outputs": [],
      "stateMutability": "nonpayable",
      "type": "function"
    },
    {
      "inputs": [],
      "name": "userNfts",
      "outputs": [
        {
          "components": [
            {
              "internalType": "address",
              "name": "owner",
              "type": "address"
            },
            {
              "internalType": "address",
              "name": "seller",
              "type": "address"
            },
            {
              "internalType": "uint256",
              "name": "price",
              "type": "uint256"
            },
            {
              "internalType": "bool",
              "name": "sold",
              "type": "bool"
            },
            {
              "internalType": "uint256",
              "name": "tokenId",
              "type": "uint256"
            }
          ],
          "internalType": "struct RSKNFT.NFT[]",
          "name": "",
          "type": "tuple[]"
        }
      ],
      "stateMutability": "view",
      "type": "function"
    }
  ],
  "bytecode": "0x6080604052600a6009553480156200001657600080fd5b506040518060400160405280600781526020017f43656c6f4e4654000000000000000000000000000000000000000000000000008152506040518060400160405280600381526020017f415347000000000000000000000000000000000000000000000000000000000081525081600090816200009491906200036a565b508060019081620000a691906200036a565b50505033600a60006101000a81548173ffffffffffffffffffffffffffffffffffffffff021916908373ffffffffffffffffffffffffffffffffffffffff16021790555062000451565b600081519050919050565b7f4e487b7100000000000000000000000000000000000000000000000000000000600052604160045260246000fd5b7f4e487b7100000000000000000000000000000000000000000000000000000000600052602260045260246000fd5b600060028204905060018216806200017257607f821691505b6020821081036200018857620001876200012a565b5b50919050565b60008190508160005260206000209050919050565b60006020601f8301049050919050565b600082821b905092915050565b600060088302620001f27fffffffffffffffffffffffffffffffffffffffffffffffffffffffffffffffff82620001b3565b620001fe8683620001b3565b95508019841693508086168417925050509392505050565b6000819050919050565b6000819050919050565b60006200024b620002456200023f8462000216565b62000220565b62000216565b9050919050565b6000819050919050565b62000267836200022a565b6200027f620002768262000252565b848454620001c0565b825550505050565b600090565b6200029662000287565b620002a38184846200025c565b505050565b5b81811015620002cb57620002bf6000826200028c565b600181019050620002a9565b5050565b601f8211156200031a57620002e4816200018e565b620002ef84620001a3565b81016020851015620002ff578190505b620003176200030e85620001a3565b830182620002a8565b50505b505050565b600082821c905092915050565b60006200033f600019846008026200031f565b1980831691505092915050565b60006200035a83836200032c565b9150826002028217905092915050565b6200037582620000f0565b67ffffffffffffffff811115620003915762000390620000fb565b5b6200039d825462000159565b620003aa828285620002cf565b600060209050601f831160018114620003e25760008415620003cd578287015190505b620003d985826200034c565b86555062000449565b601f198416620003f2866200018e565b60005b828110156200041c57848901518255600182019150602085019450602081019050620003f5565b868310156200043c578489015162000438601f8916826200032c565b8355505b6001600288020188555050505b505050505050565b6143df80620004616000396000f3fe60806040526004361061019c5760003560e01c80636352211e116100ec578063bbb52fff1161008a578063de74e57b11610064578063de74e57b1461064c578063e985e9c514610690578063ee9cdfb3146106cd578063f2b8aa6f146106e95761019c565b8063bbb52fff14610595578063c046372c146105d2578063c87b56dd1461060f5761019c565b80637bf0989a116100c65780637bf0989a146104db57806395d89b4114610518578063a22cb46514610543578063b88d4fde1461056c5761019c565b80636352211e14610436578063708d4d351461047357806370a082311461049e5761019c565b806315bfa612116101595780633f1ffcec116101335780633f1ffcec1461035657806342842e0e14610393578063451df52e146103bc5780634c22f381146103f95761019c565b806315bfa612146102d7578063236d47251461030257806323b872dd1461032d5761019c565b806301ffc9a7146101a1578063043a2df4146101de578063051d2b6b1461021b57806306fdde0314610246578063081812fc14610271578063095ea7b3146102ae575b600080fd5b3480156101ad57600080fd5b506101c860048036038101906101c39190612b20565b610714565b6040516101d59190612b68565b60405180910390f35b3480156101ea57600080fd5b5061020560048036038101906102009190612bb9565b610775565b6040516102129190612cad565b60405180910390f35b34801561022757600080fd5b5061023061087d565b60405161023d9190612ddf565b60405180910390f35b34801561025257600080fd5b5061025b610b3e565b6040516102689190612e91565b60405180910390f35b34801561027d57600080fd5b5061029860048036038101906102939190612bb9565b610bd0565b6040516102a59190612ec2565b60405180910390f35b3480156102ba57600080fd5b506102d560048036038101906102d09190612f09565b610c16565b005b3480156102e357600080fd5b506102ec610d2d565b6040516102f99190612f65565b60405180910390f35b34801561030e57600080fd5b50610317610d32565b6040516103249190612f65565b60405180910390f35b34801561033957600080fd5b50610354600480360381019061034f9190612f80565b610d37565b005b34801561036257600080fd5b5061037d60048036038101906103789190612fd3565b610d97565b60405161038a9190613022565b60405180910390f35b34801561039f57600080fd5b506103ba60048036038101906103b59190612f80565b610dbc565b005b3480156103c857600080fd5b506103e360048036038101906103de9190612bb9565b610ddc565b6040516103f09190612ec2565b60405180910390f35b34801561040557600080fd5b50610420600480360381019061041b919061303d565b610e0f565b60405161042d9190613022565b60405180910390f35b34801561044257600080fd5b5061045d60048036038101906104589190612bb9565b611008565b60405161046a9190612ec2565b60405180910390f35b34801561047f57600080fd5b5061048861108e565b6040516104959190613022565b60405180910390f35b3480156104aa57600080fd5b506104c560048036038101906104c09190613090565b611094565b6040516104d29190613022565b60405180910390f35b3480156104e757600080fd5b5061050260048036038101906104fd9190612bb9565b61114b565b60405161050f9190613022565b60405180910390f35b34801561052457600080fd5b5061052d61116b565b60405161053a9190612e91565b60405180910390f35b34801561054f57600080fd5b5061056a600480360381019061056591906130e9565b6111fd565b005b34801561057857600080fd5b50610593600480360381019061058e919061325e565b611213565b005b3480156105a157600080fd5b506105bc60048036038101906105b79190613382565b611275565b6040516105c99190613022565b60405180910390f35b3480156105de57600080fd5b506105f960048036038101906105f491906133f1565b6112ba565b6040516106069190613022565b60405180910390f35b34801561061b57600080fd5b5061063660048036038101906106319190612bb9565b6112fc565b6040516106439190612e91565b60405180910390f35b34801561065857600080fd5b50610673600480360381019061066e9190612bb9565b61140e565b60405161068798979695949392919061344d565b60405180910390f35b34801561069c57600080fd5b506106b760048036038101906106b291906134cb565b6114a3565b6040516106c49190612b68565b60405180910390f35b6106e760048036038101906106e29190612bb9565b611537565b005b3480156106f557600080fd5b506106fe6117b1565b60405161070b9190612ddf565b60405180910390f35b6000634906490660e01b7bffffffffffffffffffffffffffffffffffffffffffffffffffffffff1916827bffffffffffffffffffffffffffffffffffffffffffffffffffffffff1916148061076e575061076d82611964565b5b9050919050565b61077d612a57565b600b60008381526020019081526020016000206040518060a00160405290816000820160009054906101000a900473ffffffffffffffffffffffffffffffffffffffff1673ffffffffffffffffffffffffffffffffffffffff1673ffffffffffffffffffffffffffffffffffffffff1681526020016001820160009054906101000a900473ffffffffffffffffffffffffffffffffffffffff1673ffffffffffffffffffffffffffffffffffffffff1673ffffffffffffffffffffffffffffffffffffffff168152602001600282015481526020016003820160009054906101000a900460ff161515151581526020016004820154815250509050919050565b6060600061088b6007611a46565b9050600080600190505b828111610927573373ffffffffffffffffffffffffffffffffffffffff16600b600083815260200190815260200160002060000160009054906101000a900473ffffffffffffffffffffffffffffffffffffffff1673ffffffffffffffffffffffffffffffffffffffff16036109145781806109109061353a565b9250505b808061091f9061353a565b915050610895565b5060008167ffffffffffffffff81111561094457610943613133565b5b60405190808252806020026020018201604052801561097d57816020015b61096a612a57565b8152602001906001900390816109625790505b509050600091506000600190505b838111610b34573373ffffffffffffffffffffffffffffffffffffffff16600b600083815260200190815260200160002060000160009054906101000a900473ffffffffffffffffffffffffffffffffffffffff1673ffffffffffffffffffffffffffffffffffffffff1603610b2157600b60008281526020019081526020016000206040518060a00160405290816000820160009054906101000a900473ffffffffffffffffffffffffffffffffffffffff1673ffffffffffffffffffffffffffffffffffffffff1673ffffffffffffffffffffffffffffffffffffffff1681526020016001820160009054906101000a900473ffffffffffffffffffffffffffffffffffffffff1673ffffffffffffffffffffffffffffffffffffffff1673ffffffffffffffffffffffffffffffffffffffff168152602001600282015481526020016003820160009054906101000a900460ff16151515158152602001600482015481525050828481518110610b0757610b06613582565b5b60200260200101819052508280610b1d9061353a565b9350505b8080610b2c9061353a565b91505061098b565b5080935050505090565b606060008054610b4d906135e0565b80601f0160208091040260200160405190810160405280929190818152602001828054610b79906135e0565b8015610bc65780601f10610b9b57610100808354040283529160200191610bc6565b820191906000526020600020905b815481529060010190602001808311610ba957829003601f168201915b5050505050905090565b6000610bdb82611a54565b6004600083815260200190815260200160002060009054906101000a900473ffffffffffffffffffffffffffffffffffffffff169050919050565b6000610c2182611008565b90508073ffffffffffffffffffffffffffffffffffffffff168373ffffffffffffffffffffffffffffffffffffffff1603610c91576040517f08c379a0000000000000000000000000000000000000000000000000000000008152600401610c8890613683565b60405180910390fd5b8073ffffffffffffffffffffffffffffffffffffffff16610cb0611a9f565b73ffffffffffffffffffffffffffffffffffffffff161480610cdf5750610cde81610cd9611a9f565b6114a3565b5b610d1e576040517f08c379a0000000000000000000000000000000000000000000000000000000008152600401610d1590613715565b60405180910390fd5b610d288383611aa7565b505050565b600281565b600181565b610d48610d42611a9f565b82611b60565b610d87576040517f08c379a0000000000000000000000000000000000000000000000000000000008152600401610d7e906137a7565b60405180910390fd5b610d92838383611bf5565b505050565b600d602052816000526040600020602052806000526040600020600091509150505481565b610dd783838360405180602001604052806000815250611213565b505050565b600e6020528060005260406000206000915054906101000a900473ffffffffffffffffffffffffffffffffffffffff1681565b600080610e1c6007611a46565b90506000819050600042905060008582610e3691906137c7565b90506040518061010001604052803373ffffffffffffffffffffffffffffffffffffffff1681526020013073ffffffffffffffffffffffffffffffffffffffff168152602001888152602001898152602001898152602001838152602001828152602001600160ff16815250600c600085815260200190815260200160002060008201518160000160006101000a81548173ffffffffffffffffffffffffffffffffffffffff021916908373ffffffffffffffffffffffffffffffffffffffff16021790555060208201518160010160006101000a81548173ffffffffffffffffffffffffffffffffffffffff021916908373ffffffffffffffffffffffffffffffffffffffff16021790555060408201518160020155606082015181600301556080820151816004015560a0820151816005015560c0820151816006015560e08201518160070160006101000a81548160ff021916908360ff160217905550905050610fa4333089611bf5565b3373ffffffffffffffffffffffffffffffffffffffff167fe3b4d5ceeb9bd4281ba3f05bf499516adb0de51dd1bbfc4516efbdb369ab7305848a8a8686604051610ff2959493929190613847565b60405180910390a2829450505050509392505050565b60008061101483611eee565b9050600073ffffffffffffffffffffffffffffffffffffffff168173ffffffffffffffffffffffffffffffffffffffff1603611085576040517f08c379a000000000000000000000000000000000000000000000000000000000815260040161107c906138f9565b60405180910390fd5b80915050919050565b60095481565b60008073ffffffffffffffffffffffffffffffffffffffff168273ffffffffffffffffffffffffffffffffffffffff1603611104576040517f08c379a00000000000000000000000000000000000000000000000000000000081526004016110fb9061398b565b60405180910390fd5b600360008373ffffffffffffffffffffffffffffffffffffffff1673ffffffffffffffffffffffffffffffffffffffff168152602001908152602001600020549050919050565b6000600b6000838152602001908152602001600020600201549050919050565b60606001805461117a906135e0565b80601f01602080910402602001604051908101604052809291908181526020018280546111a6906135e0565b80156111f35780601f106111c8576101008083540402835291602001916111f3565b820191906000526020600020905b8154815290600101906020018083116111d657829003601f168201915b5050505050905090565b61120f611208611a9f565b8383611f2b565b5050565b61122461121e611a9f565b83611b60565b611263576040517f08c379a000000000000000000000000000000000000000000000000000000000815260040161125a906137a7565b60405180910390fd5b61126f84848484612097565b50505050565b600061128160076120f3565b600061128d6007611a46565b90506112993382612109565b6112a38186612326565b6112ae848285610e0f565b50809150509392505050565b60006112c660076120f3565b60006112d26007611a46565b90506112de3382612109565b6112e88185612326565b6112f281846123ca565b8091505092915050565b606061130782611a54565b6000600660008481526020019081526020016000208054611327906135e0565b80601f0160208091040260200160405190810160405280929190818152602001828054611353906135e0565b80156113a05780601f10611375576101008083540402835291602001916113a0565b820191906000526020600020905b81548152906001019060200180831161138357829003601f168201915b5050505050905060006113b1612556565b905060008151036113c6578192505050611409565b6000825111156113fb5780826040516020016113e39291906139e7565b60405160208183030381529060405292505050611409565b6114048461256d565b925050505b919050565b600c6020528060005260406000206000915090508060000160009054906101000a900473ffffffffffffffffffffffffffffffffffffffff16908060010160009054906101000a900473ffffffffffffffffffffffffffffffffffffffff16908060020154908060030154908060040154908060050154908060060154908060070160009054906101000a900460ff16905088565b6000600560008473ffffffffffffffffffffffffffffffffffffffff1673ffffffffffffffffffffffffffffffffffffffff16815260200190815260200160002060008373ffffffffffffffffffffffffffffffffffffffff1673ffffffffffffffffffffffffffffffffffffffff16815260200190815260200160002060009054906101000a900460ff16905092915050565b6000600b60008381526020019081526020016000206002015490506000600b600084815260200190815260200160002060010160009054906101000a900473ffffffffffffffffffffffffffffffffffffffff1690508134146115cf576040517f08c379a00000000000000000000000000000000000000000000000000000000081526004016115c690613a57565b60405180910390fd5b60008173ffffffffffffffffffffffffffffffffffffffff16836040516115f590613aa8565b60006040518083038185875af1925050503d8060008114611632576040519150601f19603f3d011682016040523d82523d6000602084013e611637565b606091505b505090508061167b576040517f08c379a000000000000000000000000000000000000000000000000000000000815260040161167290613b09565b60405180910390fd5b33600b600086815260200190815260200160002060000160006101000a81548173ffffffffffffffffffffffffffffffffffffffff021916908373ffffffffffffffffffffffffffffffffffffffff1602179055506000600b600086815260200190815260200160002060010160006101000a81548173ffffffffffffffffffffffffffffffffffffffff021916908373ffffffffffffffffffffffffffffffffffffffff1602179055506001600b600086815260200190815260200160002060030160006101000a81548160ff02191690831515021790555061175f60086120f3565b61176a303386611bf5565b7f6abf8fea1f4c585bf426b0fdbd54c0f004a746a4b6dcb76752a2d5d268f8730b843360008660016040516117a3959493929190613b75565b60405180910390a150505050565b606060006117bf6007611a46565b905060008167ffffffffffffffff8111156117dd576117dc613133565b5b60405190808252806020026020018201604052801561181657816020015b611803612a57565b8152602001906001900390816117fb5790505b50905060005b815181101561195b57600b600060018361183691906137c7565b81526020019081526020016000206040518060a00160405290816000820160009054906101000a900473ffffffffffffffffffffffffffffffffffffffff1673ffffffffffffffffffffffffffffffffffffffff1673ffffffffffffffffffffffffffffffffffffffff1681526020016001820160009054906101000a900473ffffffffffffffffffffffffffffffffffffffff1673ffffffffffffffffffffffffffffffffffffffff1673ffffffffffffffffffffffffffffffffffffffff168152602001600282015481526020016003820160009054906101000a900460ff1615151515815260200160048201548152505082828151811061193d5761193c613582565b5b602002602001018190525080806119539061353a565b91505061181c565b50809250505090565b60007f80ac58cd000000000000000000000000000000000000000000000000000000007bffffffffffffffffffffffffffffffffffffffffffffffffffffffff1916827bffffffffffffffffffffffffffffffffffffffffffffffffffffffff19161480611a2f57507f5b5e139f000000000000000000000000000000000000000000000000000000007bffffffffffffffffffffffffffffffffffffffffffffffffffffffff1916827bffffffffffffffffffffffffffffffffffffffffffffffffffffffff1916145b80611a3f5750611a3e826125d5565b5b9050919050565b600081600001549050919050565b611a5d8161263f565b611a9c576040517f08c379a0000000000000000000000000000000000000000000000000000000008152600401611a93906138f9565b60405180910390fd5b50565b600033905090565b816004600083815260200190815260200160002060006101000a81548173ffffffffffffffffffffffffffffffffffffffff021916908373ffffffffffffffffffffffffffffffffffffffff160217905550808273ffffffffffffffffffffffffffffffffffffffff16611b1a83611008565b73ffffffffffffffffffffffffffffffffffffffff167f8c5be1e5ebec7d5bd14f71427d1e84f3dd0314c0f7b2291e5b200ac8c7c3b92560405160405180910390a45050565b600080611b6c83611008565b90508073ffffffffffffffffffffffffffffffffffffffff168473ffffffffffffffffffffffffffffffffffffffff161480611bae5750611bad81856114a3565b5b80611bec57508373ffffffffffffffffffffffffffffffffffffffff16611bd484610bd0565b73ffffffffffffffffffffffffffffffffffffffff16145b91505092915050565b8273ffffffffffffffffffffffffffffffffffffffff16611c1582611008565b73ffffffffffffffffffffffffffffffffffffffff1614611c6b576040517f08c379a0000000000000000000000000000000000000000000000000000000008152600401611c6290613c4d565b60405180910390fd5b600073ffffffffffffffffffffffffffffffffffffffff168273ffffffffffffffffffffffffffffffffffffffff1603611cda576040517f08c379a0000000000000000000000000000000000000000000000000000000008152600401611cd190613cdf565b60405180910390fd5b611ce78383836001612680565b8273ffffffffffffffffffffffffffffffffffffffff16611d0782611008565b73ffffffffffffffffffffffffffffffffffffffff1614611d5d576040517f08c379a0000000000000000000000000000000000000000000000000000000008152600401611d5490613c4d565b60405180910390fd5b6004600082815260200190815260200160002060006101000a81549073ffffffffffffffffffffffffffffffffffffffff02191690556001600360008573ffffffffffffffffffffffffffffffffffffffff1673ffffffffffffffffffffffffffffffffffffffff168152602001908152602001600020600082825403925050819055506001600360008473ffffffffffffffffffffffffffffffffffffffff1673ffffffffffffffffffffffffffffffffffffffff16815260200190815260200160002060008282540192505081905550816002600083815260200190815260200160002060006101000a81548173ffffffffffffffffffffffffffffffffffffffff021916908373ffffffffffffffffffffffffffffffffffffffff160217905550808273ffffffffffffffffffffffffffffffffffffffff168473ffffffffffffffffffffffffffffffffffffffff167fddf252ad1be2c89b69c2b068fc378daa952ba7f163c4a11628f55a4df523b3ef60405160405180910390a4611ee98383836001612686565b505050565b60006002600083815260200190815260200160002060009054906101000a900473ffffffffffffffffffffffffffffffffffffffff169050919050565b8173ffffffffffffffffffffffffffffffffffffffff168373ffffffffffffffffffffffffffffffffffffffff1603611f99576040517f08c379a0000000000000000000000000000000000000000000000000000000008152600401611f9090613d4b565b60405180910390fd5b80600560008573ffffffffffffffffffffffffffffffffffffffff1673ffffffffffffffffffffffffffffffffffffffff16815260200190815260200160002060008473ffffffffffffffffffffffffffffffffffffffff1673ffffffffffffffffffffffffffffffffffffffff16815260200190815260200160002060006101000a81548160ff0219169083151502179055508173ffffffffffffffffffffffffffffffffffffffff168373ffffffffffffffffffffffffffffffffffffffff167f17307eab39ab6107e8899845ad3d59bd9653f200f220920489ca2b5937696c318360405161208a9190612b68565b60405180910390a3505050565b6120a2848484611bf5565b6120ae8484848461268c565b6120ed576040517f08c379a00000000000000000000000000000000000000000000000000000000081526004016120e490613ddd565b60405180910390fd5b50505050565b6001816000016000828254019250508190555050565b600073ffffffffffffffffffffffffffffffffffffffff168273ffffffffffffffffffffffffffffffffffffffff1603612178576040517f08c379a000000000000000000000000000000000000000000000000000000000815260040161216f90613e49565b60405180910390fd5b6121818161263f565b156121c1576040517f08c379a00000000000000000000000000000000000000000000000000000000081526004016121b890613eb5565b60405180910390fd5b6121cf600083836001612680565b6121d88161263f565b15612218576040517f08c379a000000000000000000000000000000000000000000000000000000000815260040161220f90613eb5565b60405180910390fd5b6001600360008473ffffffffffffffffffffffffffffffffffffffff1673ffffffffffffffffffffffffffffffffffffffff16815260200190815260200160002060008282540192505081905550816002600083815260200190815260200160002060006101000a81548173ffffffffffffffffffffffffffffffffffffffff021916908373ffffffffffffffffffffffffffffffffffffffff160217905550808273ffffffffffffffffffffffffffffffffffffffff16600073ffffffffffffffffffffffffffffffffffffffff167fddf252ad1be2c89b69c2b068fc378daa952ba7f163c4a11628f55a4df523b3ef60405160405180910390a4612322600083836001612686565b5050565b61232f8261263f565b61236e576040517f08c379a000000000000000000000000000000000000000000000000000000000815260040161236590613f47565b60405180910390fd5b8060066000848152602001908152602001600020908161238e9190614113565b507ff8e1a15aba9398e019f0b49df1a4fde98ee17ae345cb5f6b5e2c27f5033e8ce7826040516123be9190613022565b60405180910390a15050565b60006123d66007611a46565b90506040518060a001604052803073ffffffffffffffffffffffffffffffffffffffff1681526020013373ffffffffffffffffffffffffffffffffffffffff16815260200183815260200160001515815260200184815250600b600083815260200190815260200160002060008201518160000160006101000a81548173ffffffffffffffffffffffffffffffffffffffff021916908373ffffffffffffffffffffffffffffffffffffffff16021790555060208201518160010160006101000a81548173ffffffffffffffffffffffffffffffffffffffff021916908373ffffffffffffffffffffffffffffffffffffffff1602179055506040820151816002015560608201518160030160006101000a81548160ff02191690831515021790555060808201518160040155905050612511333085611bf5565b7f6abf8fea1f4c585bf426b0fdbd54c0f004a746a4b6dcb76752a2d5d268f8730b833033856000604051612549959493929190614231565b60405180910390a1505050565b606060405180602001604052806000815250905090565b606061257882611a54565b6000612582612556565b905060008151116125a257604051806020016040528060008152506125cd565b806125ac84612813565b6040516020016125bd9291906139e7565b6040516020818303038152906040525b915050919050565b60007f01ffc9a7000000000000000000000000000000000000000000000000000000007bffffffffffffffffffffffffffffffffffffffffffffffffffffffff1916827bffffffffffffffffffffffffffffffffffffffffffffffffffffffff1916149050919050565b60008073ffffffffffffffffffffffffffffffffffffffff1661266183611eee565b73ffffffffffffffffffffffffffffffffffffffff1614159050919050565b50505050565b50505050565b60006126ad8473ffffffffffffffffffffffffffffffffffffffff166128e1565b15612806578373ffffffffffffffffffffffffffffffffffffffff1663150b7a026126d6611a9f565b8786866040518563ffffffff1660e01b81526004016126f894939291906142ec565b6020604051808303816000875af192505050801561273457506040513d601f19601f82011682018060405250810190612731919061434d565b60015b6127b6573d8060008114612764576040519150601f19603f3d011682016040523d82523d6000602084013e612769565b606091505b5060008151036127ae576040517f08c379a00000000000000000000000000000000000000000000000000000000081526004016127a590613ddd565b60405180910390fd5b805181602001fd5b63150b7a0260e01b7bffffffffffffffffffffffffffffffffffffffffffffffffffffffff1916817bffffffffffffffffffffffffffffffffffffffffffffffffffffffff19161491505061280b565b600190505b949350505050565b60606000600161282284612904565b01905060008167ffffffffffffffff81111561284157612840613133565b5b6040519080825280601f01601f1916602001820160405280156128735781602001600182028036833780820191505090505b509050600082602001820190505b6001156128d6578080600190039150507f3031323334353637383961626364656600000000000000000000000000000000600a86061a8153600a85816128ca576128c961437a565b5b04945060008503612881575b819350505050919050565b6000808273ffffffffffffffffffffffffffffffffffffffff163b119050919050565b600080600090507a184f03e93ff9f4daa797ed6e38ed64bf6a1f0100000000000000008310612962577a184f03e93ff9f4daa797ed6e38ed64bf6a1f01000000000000000083816129585761295761437a565b5b0492506040810190505b6d04ee2d6d415b85acef8100000000831061299f576d04ee2d6d415b85acef810000000083816129955761299461437a565b5b0492506020810190505b662386f26fc1000083106129ce57662386f26fc1000083816129c4576129c361437a565b5b0492506010810190505b6305f5e10083106129f7576305f5e10083816129ed576129ec61437a565b5b0492506008810190505b6127108310612a1c576127108381612a1257612a1161437a565b5b0492506004810190505b60648310612a3f5760648381612a3557612a3461437a565b5b0492506002810190505b600a8310612a4e576001810190505b80915050919050565b6040518060a00160405280600073ffffffffffffffffffffffffffffffffffffffff168152602001600073ffffffffffffffffffffffffffffffffffffffff16815260200160008152602001600015158152602001600081525090565b6000604051905090565b600080fd5b600080fd5b60007fffffffff0000000000000000000000000000000000000000000000000000000082169050919050565b612afd81612ac8565b8114612b0857600080fd5b50565b600081359050612b1a81612af4565b92915050565b600060208284031215612b3657612b35612abe565b5b6000612b4484828501612b0b565b91505092915050565b60008115159050919050565b612b6281612b4d565b82525050565b6000602082019050612b7d6000830184612b59565b92915050565b6000819050919050565b612b9681612b83565b8114612ba157600080fd5b50565b600081359050612bb381612b8d565b92915050565b600060208284031215612bcf57612bce612abe565b5b6000612bdd84828501612ba4565b91505092915050565b600073ffffffffffffffffffffffffffffffffffffffff82169050919050565b6000612c1182612be6565b9050919050565b612c2181612c06565b82525050565b612c3081612b83565b82525050565b612c3f81612b4d565b82525050565b60a082016000820151612c5b6000850182612c18565b506020820151612c6e6020850182612c18565b506040820151612c816040850182612c27565b506060820151612c946060850182612c36565b506080820151612ca76080850182612c27565b50505050565b600060a082019050612cc26000830184612c45565b92915050565b600081519050919050565b600082825260208201905092915050565b6000819050602082019050919050565b60a082016000820151612d0a6000850182612c18565b506020820151612d1d6020850182612c18565b506040820151612d306040850182612c27565b506060820151612d436060850182612c36565b506080820151612d566080850182612c27565b50505050565b6000612d688383612cf4565b60a08301905092915050565b6000602082019050919050565b6000612d8c82612cc8565b612d968185612cd3565b9350612da183612ce4565b8060005b83811015612dd2578151612db98882612d5c565b9750612dc483612d74565b925050600181019050612da5565b5085935050505092915050565b60006020820190508181036000830152612df98184612d81565b905092915050565b600081519050919050565b600082825260208201905092915050565b60005b83811015612e3b578082015181840152602081019050612e20565b60008484015250505050565b6000601f19601f8301169050919050565b6000612e6382612e01565b612e6d8185612e0c565b9350612e7d818560208601612e1d565b612e8681612e47565b840191505092915050565b60006020820190508181036000830152612eab8184612e58565b905092915050565b612ebc81612c06565b82525050565b6000602082019050612ed76000830184612eb3565b92915050565b612ee681612c06565b8114612ef157600080fd5b50565b600081359050612f0381612edd565b92915050565b60008060408385031215612f2057612f1f612abe565b5b6000612f2e85828601612ef4565b9250506020612f3f85828601612ba4565b9150509250929050565b600060ff82169050919050565b612f5f81612f49565b82525050565b6000602082019050612f7a6000830184612f56565b92915050565b600080600060608486031215612f9957612f98612abe565b5b6000612fa786828701612ef4565b9350506020612fb886828701612ef4565b9250506040612fc986828701612ba4565b9150509250925092565b60008060408385031215612fea57612fe9612abe565b5b6000612ff885828601612ba4565b925050602061300985828601612ef4565b9150509250929050565b61301c81612b83565b82525050565b60006020820190506130376000830184613013565b92915050565b60008060006060848603121561305657613055612abe565b5b600061306486828701612ba4565b935050602061307586828701612ba4565b925050604061308686828701612ba4565b9150509250925092565b6000602082840312156130a6576130a5612abe565b5b60006130b484828501612ef4565b91505092915050565b6130c681612b4d565b81146130d157600080fd5b50565b6000813590506130e3816130bd565b92915050565b60008060408385031215613100576130ff612abe565b5b600061310e85828601612ef4565b925050602061311f858286016130d4565b9150509250929050565b600080fd5b600080fd5b7f4e487b7100000000000000000000000000000000000000000000000000000000600052604160045260246000fd5b61316b82612e47565b810181811067ffffffffffffffff8211171561318a57613189613133565b5b80604052505050565b600061319d612ab4565b90506131a98282613162565b919050565b600067ffffffffffffffff8211156131c9576131c8613133565b5b6131d282612e47565b9050602081019050919050565b82818337600083830152505050565b60006132016131fc846131ae565b613193565b90508281526020810184848401111561321d5761321c61312e565b5b6132288482856131df565b509392505050565b600082601f83011261324557613244613129565b5b81356132558482602086016131ee565b91505092915050565b6000806000806080858703121561327857613277612abe565b5b600061328687828801612ef4565b945050602061329787828801612ef4565b93505060406132a887828801612ba4565b925050606085013567ffffffffffffffff8111156132c9576132c8612ac3565b5b6132d587828801613230565b91505092959194509250565b600067ffffffffffffffff8211156132fc576132fb613133565b5b61330582612e47565b9050602081019050919050565b6000613325613320846132e1565b613193565b9050828152602081018484840111156133415761334061312e565b5b61334c8482856131df565b509392505050565b600082601f83011261336957613368613129565b5b8135613379848260208601613312565b91505092915050565b60008060006060848603121561339b5761339a612abe565b5b600084013567ffffffffffffffff8111156133b9576133b8612ac3565b5b6133c586828701613354565b93505060206133d686828701612ba4565b92505060406133e786828701612ba4565b9150509250925092565b6000806040838503121561340857613407612abe565b5b600083013567ffffffffffffffff81111561342657613425612ac3565b5b61343285828601613354565b925050602061344385828601612ba4565b9150509250929050565b600061010082019050613463600083018b612eb3565b613470602083018a612eb3565b61347d6040830189613013565b61348a6060830188613013565b6134976080830187613013565b6134a460a0830186613013565b6134b160c0830185613013565b6134be60e0830184612f56565b9998505050505050505050565b600080604083850312156134e2576134e1612abe565b5b60006134f085828601612ef4565b925050602061350185828601612ef4565b9150509250929050565b7f4e487b7100000000000000000000000000000000000000000000000000000000600052601160045260246000fd5b600061354582612b83565b91507fffffffffffffffffffffffffffffffffffffffffffffffffffffffffffffffff82036135775761357661350b565b5b600182019050919050565b7f4e487b7100000000000000000000000000000000000000000000000000000000600052603260045260246000fd5b7f4e487b7100000000000000000000000000000000000000000000000000000000600052602260045260246000fd5b600060028204905060018216806135f857607f821691505b60208210810361360b5761360a6135b1565b5b50919050565b7f4552433732313a20617070726f76616c20746f2063757272656e74206f776e6560008201527f7200000000000000000000000000000000000000000000000000000000000000602082015250565b600061366d602183612e0c565b915061367882613611565b604082019050919050565b6000602082019050818103600083015261369c81613660565b9050919050565b7f4552433732313a20617070726f76652063616c6c6572206973206e6f7420746f60008201527f6b656e206f776e6572206f7220617070726f76656420666f7220616c6c000000602082015250565b60006136ff603d83612e0c565b915061370a826136a3565b604082019050919050565b6000602082019050818103600083015261372e816136f2565b9050919050565b7f4552433732313a2063616c6c6572206973206e6f7420746f6b656e206f776e6560008201527f72206f7220617070726f76656400000000000000000000000000000000000000602082015250565b6000613791602d83612e0c565b915061379c82613735565b604082019050919050565b600060208201905081810360008301526137c081613784565b9050919050565b60006137d282612b83565b91506137dd83612b83565b92508282019050808211156137f5576137f461350b565b5b92915050565b7f41756374696f6e2063726561746564207375636365737366756c6c7900000000600082015250565b6000613831601c83612e0c565b915061383c826137fb565b602082019050919050565b600060c08201905061385c6000830188613013565b6138696020830187613013565b6138766040830186613013565b6138836060830185613013565b6138906080830184613013565b81810360a08301526138a181613824565b90509695505050505050565b7f4552433732313a20696e76616c696420746f6b656e2049440000000000000000600082015250565b60006138e3601883612e0c565b91506138ee826138ad565b602082019050919050565b60006020820190508181036000830152613912816138d6565b9050919050565b7f4552433732313a2061646472657373207a65726f206973206e6f74206120766160008201527f6c6964206f776e65720000000000000000000000000000000000000000000000602082015250565b6000613975602983612e0c565b915061398082613919565b604082019050919050565b600060208201905081810360008301526139a481613968565b9050919050565b600081905092915050565b60006139c182612e01565b6139cb81856139ab565b93506139db818560208601612e1d565b80840191505092915050565b60006139f382856139b6565b91506139ff82846139b6565b91508190509392505050565b7f696e636f727265637420616d6f756e7400000000000000000000000000000000600082015250565b6000613a41601083612e0c565b9150613a4c82613a0b565b602082019050919050565b60006020820190508181036000830152613a7081613a34565b9050919050565b600081905092915050565b50565b6000613a92600083613a77565b9150613a9d82613a82565b600082019050919050565b6000613ab382613a85565b9150819050919050565b7f7061796d656e74206661696c6564000000000000000000000000000000000000600082015250565b6000613af3600e83612e0c565b9150613afe82613abd565b602082019050919050565b60006020820190508181036000830152613b2281613ae6565b9050919050565b7f536f6c64204e4654207375636365737366756c6c790000000000000000000000600082015250565b6000613b5f601583612e0c565b9150613b6a82613b29565b602082019050919050565b600060c082019050613b8a6000830188613013565b613b976020830187612eb3565b613ba46040830186612eb3565b613bb16060830185613013565b613bbe6080830184612b59565b81810360a0830152613bcf81613b52565b90509695505050505050565b7f4552433732313a207472616e736665722066726f6d20696e636f72726563742060008201527f6f776e6572000000000000000000000000000000000000000000000000000000602082015250565b6000613c37602583612e0c565b9150613c4282613bdb565b604082019050919050565b60006020820190508181036000830152613c6681613c2a565b9050919050565b7f4552433732313a207472616e7366657220746f20746865207a65726f2061646460008201527f7265737300000000000000000000000000000000000000000000000000000000602082015250565b6000613cc9602483612e0c565b9150613cd482613c6d565b604082019050919050565b60006020820190508181036000830152613cf881613cbc565b9050919050565b7f4552433732313a20617070726f766520746f2063616c6c657200000000000000600082015250565b6000613d35601983612e0c565b9150613d4082613cff565b602082019050919050565b60006020820190508181036000830152613d6481613d28565b9050919050565b7f4552433732313a207472616e7366657220746f206e6f6e20455243373231526560008201527f63656976657220696d706c656d656e7465720000000000000000000000000000602082015250565b6000613dc7603283612e0c565b9150613dd282613d6b565b604082019050919050565b60006020820190508181036000830152613df681613dba565b9050919050565b7f4552433732313a206d696e7420746f20746865207a65726f2061646472657373600082015250565b6000613e33602083612e0c565b9150613e3e82613dfd565b602082019050919050565b60006020820190508181036000830152613e6281613e26565b9050919050565b7f4552433732313a20746f6b656e20616c7265616479206d696e74656400000000600082015250565b6000613e9f601c83612e0c565b9150613eaa82613e69565b602082019050919050565b60006020820190508181036000830152613ece81613e92565b9050919050565b7f45524337323155524953746f726167653a2055524920736574206f66206e6f6e60008201527f6578697374656e7420746f6b656e000000000000000000000000000000000000602082015250565b6000613f31602e83612e0c565b9150613f3c82613ed5565b604082019050919050565b60006020820190508181036000830152613f6081613f24565b9050919050565b60008190508160005260206000209050919050565b60006020601f8301049050919050565b600082821b905092915050565b600060088302613fc97fffffffffffffffffffffffffffffffffffffffffffffffffffffffffffffffff82613f8c565b613fd38683613f8c565b95508019841693508086168417925050509392505050565b6000819050919050565b600061401061400b61400684612b83565b613feb565b612b83565b9050919050565b6000819050919050565b61402a83613ff5565b61403e61403682614017565b848454613f99565b825550505050565b600090565b614053614046565b61405e818484614021565b505050565b5b818110156140825761407760008261404b565b600181019050614064565b5050565b601f8211156140c75761409881613f67565b6140a184613f7c565b810160208510156140b0578190505b6140c46140bc85613f7c565b830182614063565b50505b505050565b600082821c905092915050565b60006140ea600019846008026140cc565b1980831691505092915050565b600061410383836140d9565b9150826002028217905092915050565b61411c82612e01565b67ffffffffffffffff81111561413557614134613133565b5b61413f82546135e0565b61414a828285614086565b600060209050601f83116001811461417d576000841561416b578287015190505b61417585826140f7565b8655506141dd565b601f19841661418b86613f67565b60005b828110156141b35784890151825560018201915060208501945060208101905061418e565b868310156141d057848901516141cc601f8916826140d9565b8355505b6001600288020188555050505b505050505050565b7f4e46542063726561746564207375636365737366756c79000000000000000000600082015250565b600061421b601783612e0c565b9150614226826141e5565b602082019050919050565b600060c0820190506142466000830188613013565b6142536020830187612eb3565b6142606040830186612eb3565b61426d6060830185613013565b61427a6080830184612b59565b81810360a083015261428b8161420e565b90509695505050505050565b600081519050919050565b600082825260208201905092915050565b60006142be82614297565b6142c881856142a2565b93506142d8818560208601612e1d565b6142e181612e47565b840191505092915050565b60006080820190506143016000830187612eb3565b61430e6020830186612eb3565b61431b6040830185613013565b818103606083015261432d81846142b3565b905095945050505050565b60008151905061434781612af4565b92915050565b60006020828403121561436357614362612abe565b5b600061437184828501614338565b91505092915050565b7f4e487b7100000000000000000000000000000000000000000000000000000000600052601260045260246000fdfea26469706673582212206d43724a143ea392feadea553b45a085e505d60cfe0cb3f8addf5a825e9b12c464736f6c63430008130033",
  "linkReferences": {},
  "deployedLinkReferences": {}
}