{
  "_format": "hh-sol-artifact-1",
  "contractName": "RSKNFT",
  "sourceName": "contracts/RSKNFT.sol",
  "abi": [
    {
      "inputs": [],
      "stateMutability": "nonpayable",
      "type": "constructor"
    },
    {
      "anonymous": false,
      "inputs": [
        {
          "indexed": true,
          "internalType": "address",
          "name": "owner",
          "type": "address"
        },
        {
          "indexed": true,
          "internalType": "address",
          "name": "approved",
          "type": "address"
        },
        {
          "indexed": true,
          "internalType": "uint256",
          "name": "tokenId",
          "type": "uint256"
        }
      ],
      "name": "Approval",
      "type": "event"
    },
    {
      "anonymous": false,
      "inputs": [
        {
          "indexed": true,
          "internalType": "address",
          "name": "owner",
          "type": "address"
        },
        {
          "indexed": true,
          "internalType": "address",
          "name": "operator",
          "type": "address"
        },
        {
          "indexed": false,
          "internalType": "bool",
          "name": "approved",
          "type": "bool"
        }
      ],
      "name": "ApprovalForAll",
      "type": "event"
    },
    {
      "anonymous": false,
      "inputs": [
        {
          "indexed": false,
          "internalType": "uint256",
          "name": "listingId",
          "type": "uint256"
        },
        {
          "indexed": true,
          "internalType": "address",
          "name": "seller",
          "type": "address"
        },
        {
          "indexed": true,
          "internalType": "address",
          "name": "bidder",
          "type": "address"
        },
        {
          "indexed": false,
          "internalType": "uint256",
          "name": "bid",
          "type": "uint256"
        },
        {
          "indexed": false,
          "internalType": "string",
          "name": "message",
          "type": "string"
        }
      ],
      "name": "AuctionCompleted",
      "type": "event"
    },
    {
      "anonymous": false,
      "inputs": [
        {
          "indexed": false,
          "internalType": "uint256",
          "name": "listingId",
          "type": "uint256"
        },
        {
          "indexed": true,
          "internalType": "address",
          "name": "seller",
          "type": "address"
        },
        {
          "indexed": false,
          "internalType": "uint256",
          "name": "price",
          "type": "uint256"
        },
        {
          "indexed": false,
          "internalType": "uint256",
          "name": "tokenId",
          "type": "uint256"
        },
        {
          "indexed": false,
          "internalType": "uint256",
          "name": "startAt",
          "type": "uint256"
        },
        {
          "indexed": false,
          "internalType": "uint256",
          "name": "endAt",
          "type": "uint256"
        },
        {
          "indexed": false,
          "internalType": "string",
          "name": "message",
          "type": "string"
        }
      ],
      "name": "AuctionCreated",
      "type": "event"
    },
    {
      "anonymous": false,
      "inputs": [
        {
          "indexed": false,
          "internalType": "uint256",
          "name": "_fromTokenId",
          "type": "uint256"
        },
        {
          "indexed": false,
          "internalType": "uint256",
          "name": "_toTokenId",
          "type": "uint256"
        }
      ],
      "name": "BatchMetadataUpdate",
      "type": "event"
    },
    {
      "anonymous": false,
      "inputs": [
        {
          "indexed": false,
          "internalType": "uint256",
          "name": "listingId",
          "type": "uint256"
        },
        {
          "indexed": true,
          "internalType": "address",
          "name": "bidder",
          "type": "address"
        },
        {
          "indexed": false,
          "internalType": "uint256",
          "name": "bid",
          "type": "uint256"
        },
        {
          "indexed": false,
          "internalType": "string",
          "name": "message",
          "type": "string"
        }
      ],
      "name": "BidCreated",
      "type": "event"
    },
    {
      "anonymous": false,
      "inputs": [
        {
          "indexed": false,
          "internalType": "uint256",
          "name": "_tokenId",
          "type": "uint256"
        }
      ],
      "name": "MetadataUpdate",
      "type": "event"
    },
    {
      "anonymous": false,
      "inputs": [
        {
          "indexed": false,
          "internalType": "uint256",
          "name": "tokenId",
          "type": "uint256"
        },
        {
          "indexed": false,
          "internalType": "address",
          "name": "owner",
          "type": "address"
        },
        {
          "indexed": false,
          "internalType": "address",
          "name": "seller",
          "type": "address"
        },
        {
          "indexed": false,
          "internalType": "uint256",
          "name": "price",
          "type": "uint256"
        },
        {
          "indexed": false,
          "internalType": "bool",
          "name": "sold",
          "type": "bool"
        },
        {
          "indexed": false,
          "internalType": "string",
          "name": "message",
          "type": "string"
        }
      ],
      "name": "NFT_Action",
      "type": "event"
    },
    {
      "anonymous": false,
      "inputs": [
        {
          "indexed": true,
          "internalType": "address",
          "name": "from",
          "type": "address"
        },
        {
          "indexed": true,
          "internalType": "address",
          "name": "to",
          "type": "address"
        },
        {
          "indexed": true,
          "internalType": "uint256",
          "name": "tokenId",
          "type": "uint256"
        }
      ],
      "name": "Transfer",
      "type": "event"
    },
    {
      "inputs": [],
      "name": "COMPLETED_STATUS",
      "outputs": [
        {
          "internalType": "uint8",
          "name": "",
          "type": "uint8"
        }
      ],
      "stateMutability": "view",
      "type": "function"
    },
    {
      "inputs": [],
      "name": "OPEN_STATUS",
      "outputs": [
        {
          "internalType": "uint8",
          "name": "",
          "type": "uint8"
        }
      ],
      "stateMutability": "view",
      "type": "function"
    },
    {
      "inputs": [],
      "name": "allNfts",
      "outputs": [
        {
          "components": [
            {
              "internalType": "address",
              "name": "owner",
              "type": "address"
            },
            {
              "internalType": "address",
              "name": "seller",
              "type": "address"
            },
            {
              "internalType": "uint256",
              "name": "price",
              "type": "uint256"
            },
            {
              "internalType": "bool",
              "name": "sold",
              "type": "bool"
            },
            {
              "internalType": "uint256",
              "name": "tokenId",
              "type": "uint256"
            }
          ],
          "internalType": "struct RSKNFT.NFT[]",
          "name": "",
          "type": "tuple[]"
        }
      ],
      "stateMutability": "view",
      "type": "function"
    },
    {
      "inputs": [
        {
          "internalType": "address",
          "name": "to",
          "type": "address"
        },
        {
          "internalType": "uint256",
          "name": "tokenId",
          "type": "uint256"
        }
      ],
      "name": "approve",
      "outputs": [],
      "stateMutability": "nonpayable",
      "type": "function"
    },
    {
      "inputs": [
        {
          "internalType": "address",
          "name": "owner",
          "type": "address"
        }
      ],
      "name": "balanceOf",
      "outputs": [
        {
          "internalType": "uint256",
          "name": "",
          "type": "uint256"
        }
      ],
      "stateMutability": "view",
      "type": "function"
    },
    {
      "inputs": [
        {
          "internalType": "uint256",
          "name": "listingId",
          "type": "uint256"
        }
      ],
      "name": "bid",
      "outputs": [],
      "stateMutability": "payable",
      "type": "function"
    },
    {
      "inputs": [
        {
          "internalType": "uint256",
          "name": "",
          "type": "uint256"
        },
        {
          "internalType": "address",
          "name": "",
          "type": "address"
        }
      ],
      "name": "bids",
      "outputs": [
        {
          "internalType": "uint256",
          "name": "",
          "type": "uint256"
        }
      ],
      "stateMutability": "view",
      "type": "function"
    },
    {
      "inputs": [
        {
          "internalType": "uint256",
          "name": "listingId",
          "type": "uint256"
        }
      ],
      "name": "completeAuction",
      "outputs": [],
      "stateMutability": "payable",
      "type": "function"
    },
    {
      "inputs": [
        {
          "internalType": "uint256",
          "name": "price",
          "type": "uint256"
        },
        {
          "internalType": "uint256",
          "name": "tokenId",
          "type": "uint256"
        },
        {
          "internalType": "uint256",
          "name": "durationInSeconds",
          "type": "uint256"
        }
      ],
      "name": "createAuctionListing",
      "outputs": [
        {
          "internalType": "uint256",
          "name": "",
          "type": "uint256"
        }
      ],
      "stateMutability": "nonpayable",
      "type": "function"
    },
    {
      "inputs": [
        {
          "internalType": "uint256",
          "name": "tokenId",
          "type": "uint256"
        }
      ],
      "name": "getApproved",
      "outputs": [
        {
          "internalType": "address",
          "name": "",
          "type": "address"
        }
      ],
      "stateMutability": "view",
      "type": "function"
    },
    {
      "inputs": [
        {
          "internalType": "uint256",
          "name": "tokenId",
          "type": "uint256"
        }
      ],
      "name": "getNftPrice",
      "outputs": [
        {
          "internalType": "uint256",
          "name": "",
          "type": "uint256"
        }
      ],
      "stateMutability": "view",
      "type": "function"
    },
    {
      "inputs": [
        {
          "internalType": "uint256",
          "name": "",
          "type": "uint256"
        }
      ],
      "name": "highestBidder",
      "outputs": [
        {
          "internalType": "address",
          "name": "",
          "type": "address"
        }
      ],
      "stateMutability": "view",
      "type": "function"
    },
    {
      "inputs": [
        {
          "internalType": "address",
          "name": "owner",
          "type": "address"
        },
        {
          "internalType": "address",
          "name": "operator",
          "type": "address"
        }
      ],
      "name": "isApprovedForAll",
      "outputs": [
        {
          "internalType": "bool",
          "name": "",
          "type": "bool"
        }
      ],
      "stateMutability": "view",
      "type": "function"
    },
    {
      "inputs": [
        {
          "internalType": "uint256",
          "name": "id",
          "type": "uint256"
        }
      ],
      "name": "isAuctionOpen",
      "outputs": [
        {
          "internalType": "bool",
          "name": "",
          "type": "bool"
        }
      ],
      "stateMutability": "view",
      "type": "function"
    },
    {
      "inputs": [
        {
          "internalType": "uint256",
          "name": "",
          "type": "uint256"
        }
      ],
      "name": "listings",
      "outputs": [
        {
          "internalType": "address",
          "name": "seller",
          "type": "address"
        },
        {
          "internalType": "address",
          "name": "owner",
          "type": "address"
        },
        {
          "internalType": "uint256",
          "name": "tokenId",
          "type": "uint256"
        },
        {
          "internalType": "uint256",
          "name": "price",
          "type": "uint256"
        },
        {
          "internalType": "uint256",
          "name": "netPrice",
          "type": "uint256"
        },
        {
          "internalType": "uint256",
          "name": "startAt",
          "type": "uint256"
        },
        {
          "internalType": "uint256",
          "name": "endAt",
          "type": "uint256"
        },
        {
          "internalType": "uint8",
          "name": "status",
          "type": "uint8"
        }
      ],
      "stateMutability": "view",
      "type": "function"
    },
    {
      "inputs": [],
      "name": "minAuctionIncrement",
      "outputs": [
        {
          "internalType": "uint256",
          "name": "",
          "type": "uint256"
        }
      ],
      "stateMutability": "view",
      "type": "function"
    },
    {
      "inputs": [
        {
          "internalType": "string",
          "name": "_tokenURI",
          "type": "string"
        },
        {
          "internalType": "uint256",
          "name": "price",
          "type": "uint256"
        },
        {
          "internalType": "uint256",
          "name": "durationInSeconds",
          "type": "uint256"
        }
      ],
      "name": "mintAuctionToken",
      "outputs": [
        {
          "internalType": "uint256",
          "name": "",
          "type": "uint256"
        }
      ],
      "stateMutability": "nonpayable",
      "type": "function"
    },
    {
      "inputs": [
        {
          "internalType": "string",
          "name": "_tokenURI",
          "type": "string"
        },
        {
          "internalType": "uint256",
          "name": "price",
          "type": "uint256"
        }
      ],
      "name": "mintToken",
      "outputs": [
        {
          "internalType": "uint256",
          "name": "",
          "type": "uint256"
        }
      ],
      "stateMutability": "nonpayable",
      "type": "function"
    },
    {
      "inputs": [],
      "name": "name",
      "outputs": [
        {
          "internalType": "string",
          "name": "",
          "type": "string"
        }
      ],
      "stateMutability": "view",
      "type": "function"
    },
    {
      "inputs": [
        {
          "internalType": "uint256",
          "name": "tokenId",
          "type": "uint256"
        }
      ],
      "name": "ownerOf",
      "outputs": [
        {
          "internalType": "address",
          "name": "",
          "type": "address"
        }
      ],
      "stateMutability": "view",
      "type": "function"
    },
    {
      "inputs": [
        {
          "internalType": "address",
          "name": "from",
          "type": "address"
        },
        {
          "internalType": "address",
          "name": "to",
          "type": "address"
        },
        {
          "internalType": "uint256",
          "name": "tokenId",
          "type": "uint256"
        }
      ],
      "name": "safeTransferFrom",
      "outputs": [],
      "stateMutability": "nonpayable",
      "type": "function"
    },
    {
      "inputs": [
        {
          "internalType": "address",
          "name": "from",
          "type": "address"
        },
        {
          "internalType": "address",
          "name": "to",
          "type": "address"
        },
        {
          "internalType": "uint256",
          "name": "tokenId",
          "type": "uint256"
        },
        {
          "internalType": "bytes",
          "name": "data",
          "type": "bytes"
        }
      ],
      "name": "safeTransferFrom",
      "outputs": [],
      "stateMutability": "nonpayable",
      "type": "function"
    },
    {
      "inputs": [
        {
          "internalType": "uint256",
          "name": "tokenId",
          "type": "uint256"
        }
      ],
      "name": "sellNFT",
      "outputs": [],
      "stateMutability": "payable",
      "type": "function"
    },
    {
      "inputs": [
        {
          "internalType": "address",
          "name": "operator",
          "type": "address"
        },
        {
          "internalType": "bool",
          "name": "approved",
          "type": "bool"
        }
      ],
      "name": "setApprovalForAll",
      "outputs": [],
      "stateMutability": "nonpayable",
      "type": "function"
    },
    {
      "inputs": [
        {
          "internalType": "uint256",
          "name": "tokenId",
          "type": "uint256"
        }
      ],
      "name": "singleNFT",
      "outputs": [
        {
          "components": [
            {
              "internalType": "address",
              "name": "owner",
              "type": "address"
            },
            {
              "internalType": "address",
              "name": "seller",
              "type": "address"
            },
            {
              "internalType": "uint256",
              "name": "price",
              "type": "uint256"
            },
            {
              "internalType": "bool",
              "name": "sold",
              "type": "bool"
            },
            {
              "internalType": "uint256",
              "name": "tokenId",
              "type": "uint256"
            }
          ],
          "internalType": "struct RSKNFT.NFT",
          "name": "props",
          "type": "tuple"
        }
      ],
      "stateMutability": "view",
      "type": "function"
    },
    {
      "inputs": [
        {
          "internalType": "bytes4",
          "name": "interfaceId",
          "type": "bytes4"
        }
      ],
      "name": "supportsInterface",
      "outputs": [
        {
          "internalType": "bool",
          "name": "",
          "type": "bool"
        }
      ],
      "stateMutability": "view",
      "type": "function"
    },
    {
      "inputs": [],
      "name": "symbol",
      "outputs": [
        {
          "internalType": "string",
          "name": "",
          "type": "string"
        }
      ],
      "stateMutability": "view",
      "type": "function"
    },
    {
      "inputs": [
        {
          "internalType": "uint256",
          "name": "tokenId",
          "type": "uint256"
        }
      ],
      "name": "tokenURI",
      "outputs": [
        {
          "internalType": "string",
          "name": "",
          "type": "string"
        }
      ],
      "stateMutability": "view",
      "type": "function"
    },
    {
      "inputs": [
        {
          "internalType": "address",
          "name": "from",
          "type": "address"
        },
        {
          "internalType": "address",
          "name": "to",
          "type": "address"
        },
        {
          "internalType": "uint256",
          "name": "tokenId",
          "type": "uint256"
        }
      ],
      "name": "transferFrom",
      "outputs": [],
      "stateMutability": "nonpayable",
      "type": "function"
    },
    {
      "inputs": [],
      "name": "userNfts",
      "outputs": [
        {
          "components": [
            {
              "internalType": "address",
              "name": "owner",
              "type": "address"
            },
            {
              "internalType": "address",
              "name": "seller",
              "type": "address"
            },
            {
              "internalType": "uint256",
              "name": "price",
              "type": "uint256"
            },
            {
              "internalType": "bool",
              "name": "sold",
              "type": "bool"
            },
            {
              "internalType": "uint256",
              "name": "tokenId",
              "type": "uint256"
            }
          ],
          "internalType": "struct RSKNFT.NFT[]",
          "name": "",
          "type": "tuple[]"
        }
      ],
      "stateMutability": "view",
      "type": "function"
    }
  ],
  "bytecode": "0x6080604052600a80553480156200001557600080fd5b506040518060400160405280600781526020017f43656c6f4e4654000000000000000000000000000000000000000000000000008152506040518060400160405280600381526020017f4153470000000000000000000000000000000000000000000000000000000000815250816000908162000093919062000371565b508060019081620000a5919062000371565b505050600160078190555033600b60006101000a81548173ffffffffffffffffffffffffffffffffffffffff021916908373ffffffffffffffffffffffffffffffffffffffff16021790555062000458565b600081519050919050565b7f4e487b7100000000000000000000000000000000000000000000000000000000600052604160045260246000fd5b7f4e487b7100000000000000000000000000000000000000000000000000000000600052602260045260246000fd5b600060028204905060018216806200017957607f821691505b6020821081036200018f576200018e62000131565b5b50919050565b60008190508160005260206000209050919050565b60006020601f8301049050919050565b600082821b905092915050565b600060088302620001f97fffffffffffffffffffffffffffffffffffffffffffffffffffffffffffffffff82620001ba565b620002058683620001ba565b95508019841693508086168417925050509392505050565b6000819050919050565b6000819050919050565b6000620002526200024c62000246846200021d565b62000227565b6200021d565b9050919050565b6000819050919050565b6200026e8362000231565b620002866200027d8262000259565b848454620001c7565b825550505050565b600090565b6200029d6200028e565b620002aa81848462000263565b505050565b5b81811015620002d257620002c660008262000293565b600181019050620002b0565b5050565b601f8211156200032157620002eb8162000195565b620002f684620001aa565b8101602085101562000306578190505b6200031e6200031585620001aa565b830182620002af565b50505b505050565b600082821c905092915050565b6000620003466000198460080262000326565b1980831691505092915050565b600062000361838362000333565b9150826002028217905092915050565b6200037c82620000f7565b67ffffffffffffffff81111562000398576200039762000102565b5b620003a4825462000160565b620003b1828285620002d6565b600060209050601f831160018114620003e95760008415620003d4578287015190505b620003e0858262000353565b86555062000450565b601f198416620003f98662000195565b60005b828110156200042357848901518255600182019150602085019450602081019050620003fc565b868310156200044357848901516200043f601f89168262000333565b8355505b6001600288020188555050505b505050505050565b61521b80620004686000396000f3fe6080604052600436106101cd5760003560e01c80634c22f381116100f7578063b88d4fde11610095578063de74e57b11610064578063de74e57b146106f2578063e985e9c514610736578063ee9cdfb314610773578063f2b8aa6f1461078f576101cd565b8063b88d4fde14610612578063bbb52fff1461063b578063c046372c14610678578063c87b56dd146106b5576101cd565b806370a08231116100d157806370a08231146105445780637bf0989a1461058157806395d89b41146105be578063a22cb465146105e9576101cd565b80634c22f3811461049f5780636352211e146104dc578063708d4d3514610519576101cd565b806315bfa6121161016f5780633f1ffcec1161013e5780633f1ffcec146103e057806342842e0e1461041d578063451df52e14610446578063454a2ab314610483576101cd565b806315bfa6121461034557806321b6288614610370578063236d47251461038c57806323b872dd146103b7576101cd565b806306fdde03116101ab57806306fdde0314610277578063081812fc146102a2578063095ea7b3146102df5780630ad4862814610308576101cd565b806301ffc9a7146101d2578063043a2df41461020f578063051d2b6b1461024c575b600080fd5b3480156101de57600080fd5b506101f960048036038101906101f49190613449565b6107ba565b6040516102069190613491565b60405180910390f35b34801561021b57600080fd5b50610236600480360381019061023191906134e2565b61081b565b60405161024391906135d6565b60405180910390f35b34801561025857600080fd5b50610261610923565b60405161026e9190613708565b60405180910390f35b34801561028357600080fd5b5061028c610be4565b60405161029991906137ba565b60405180910390f35b3480156102ae57600080fd5b506102c960048036038101906102c491906134e2565b610c76565b6040516102d691906137eb565b60405180910390f35b3480156102eb57600080fd5b5061030660048036038101906103019190613832565b610cbc565b005b34801561031457600080fd5b5061032f600480360381019061032a91906134e2565b610dd3565b60405161033c9190613491565b60405180910390f35b34801561035157600080fd5b5061035a610e2a565b604051610367919061388e565b60405180910390f35b61038a600480360381019061038591906134e2565b610e2f565b005b34801561039857600080fd5b506103a16111f3565b6040516103ae919061388e565b60405180910390f35b3480156103c357600080fd5b506103de60048036038101906103d991906138a9565b6111f8565b005b3480156103ec57600080fd5b50610407600480360381019061040291906138fc565b611258565b604051610414919061394b565b60405180910390f35b34801561042957600080fd5b50610444600480360381019061043f91906138a9565b61127d565b005b34801561045257600080fd5b5061046d600480360381019061046891906134e2565b61129d565b60405161047a91906137eb565b60405180910390f35b61049d600480360381019061049891906134e2565b6112d0565b005b3480156104ab57600080fd5b506104c660048036038101906104c19190613966565b6115b5565b6040516104d3919061394b565b60405180910390f35b3480156104e857600080fd5b5061050360048036038101906104fe91906134e2565b6117ae565b60405161051091906137eb565b60405180910390f35b34801561052557600080fd5b5061052e611834565b60405161053b919061394b565b60405180910390f35b34801561055057600080fd5b5061056b600480360381019061056691906139b9565b61183a565b604051610578919061394b565b60405180910390f35b34801561058d57600080fd5b506105a860048036038101906105a391906134e2565b6118f1565b6040516105b5919061394b565b60405180910390f35b3480156105ca57600080fd5b506105d3611911565b6040516105e091906137ba565b60405180910390f35b3480156105f557600080fd5b50610610600480360381019061060b9190613a12565b6119a3565b005b34801561061e57600080fd5b5061063960048036038101906106349190613b87565b6119b9565b005b34801561064757600080fd5b50610662600480360381019061065d9190613cab565b611a1b565b60405161066f919061394b565b60405180910390f35b34801561068457600080fd5b5061069f600480360381019061069a9190613d1a565b611a60565b6040516106ac919061394b565b60405180910390f35b3480156106c157600080fd5b506106dc60048036038101906106d791906134e2565b611aa2565b6040516106e991906137ba565b60405180910390f35b3480156106fe57600080fd5b50610719600480360381019061071491906134e2565b611bb4565b60405161072d989796959493929190613d76565b60405180910390f35b34801561074257600080fd5b5061075d60048036038101906107589190613df4565b611c49565b60405161076a9190613491565b60405180910390f35b61078d600480360381019061078891906134e2565b611cdd565b005b34801561079b57600080fd5b506107a4611f57565b6040516107b19190613708565b60405180910390f35b6000634906490660e01b7bffffffffffffffffffffffffffffffffffffffffffffffffffffffff1916827bffffffffffffffffffffffffffffffffffffffffffffffffffffffff1916148061081457506108138261210a565b5b9050919050565b610823613380565b600c60008381526020019081526020016000206040518060a00160405290816000820160009054906101000a900473ffffffffffffffffffffffffffffffffffffffff1673ffffffffffffffffffffffffffffffffffffffff1673ffffffffffffffffffffffffffffffffffffffff1681526020016001820160009054906101000a900473ffffffffffffffffffffffffffffffffffffffff1673ffffffffffffffffffffffffffffffffffffffff1673ffffffffffffffffffffffffffffffffffffffff168152602001600282015481526020016003820160009054906101000a900460ff161515151581526020016004820154815250509050919050565b6060600061093160086121ec565b9050600080600190505b8281116109cd573373ffffffffffffffffffffffffffffffffffffffff16600c600083815260200190815260200160002060000160009054906101000a900473ffffffffffffffffffffffffffffffffffffffff1673ffffffffffffffffffffffffffffffffffffffff16036109ba5781806109b690613e63565b9250505b80806109c590613e63565b91505061093b565b5060008167ffffffffffffffff8111156109ea576109e9613a5c565b5b604051908082528060200260200182016040528015610a2357816020015b610a10613380565b815260200190600190039081610a085790505b509050600091506000600190505b838111610bda573373ffffffffffffffffffffffffffffffffffffffff16600c600083815260200190815260200160002060000160009054906101000a900473ffffffffffffffffffffffffffffffffffffffff1673ffffffffffffffffffffffffffffffffffffffff1603610bc757600c60008281526020019081526020016000206040518060a00160405290816000820160009054906101000a900473ffffffffffffffffffffffffffffffffffffffff1673ffffffffffffffffffffffffffffffffffffffff1673ffffffffffffffffffffffffffffffffffffffff1681526020016001820160009054906101000a900473ffffffffffffffffffffffffffffffffffffffff1673ffffffffffffffffffffffffffffffffffffffff1673ffffffffffffffffffffffffffffffffffffffff168152602001600282015481526020016003820160009054906101000a900460ff16151515158152602001600482015481525050828481518110610bad57610bac613eab565b5b60200260200101819052508280610bc390613e63565b9350505b8080610bd290613e63565b915050610a31565b5080935050505090565b606060008054610bf390613f09565b80601f0160208091040260200160405190810160405280929190818152602001828054610c1f90613f09565b8015610c6c5780601f10610c4157610100808354040283529160200191610c6c565b820191906000526020600020905b815481529060010190602001808311610c4f57829003601f168201915b5050505050905090565b6000610c81826121fa565b6004600083815260200190815260200160002060009054906101000a900473ffffffffffffffffffffffffffffffffffffffff169050919050565b6000610cc7826117ae565b90508073ffffffffffffffffffffffffffffffffffffffff168373ffffffffffffffffffffffffffffffffffffffff1603610d37576040517f08c379a0000000000000000000000000000000000000000000000000000000008152600401610d2e90613fac565b60405180910390fd5b8073ffffffffffffffffffffffffffffffffffffffff16610d56612245565b73ffffffffffffffffffffffffffffffffffffffff161480610d855750610d8481610d7f612245565b611c49565b5b610dc4576040517f08c379a0000000000000000000000000000000000000000000000000000000008152600401610dbb9061403e565b60405180910390fd5b610dce838361224d565b505050565b6000600160ff16600d600084815260200190815260200160002060070160009054906101000a900460ff1660ff16148015610e23575042600d600084815260200190815260200160002060060154115b9050919050565b600281565b610e37612306565b610e4081610dd3565b15610e80576040517f08c379a0000000000000000000000000000000000000000000000000000000008152600401610e77906140aa565b60405180910390fd5b6000600d600083815260200190815260200160002090506000600f600084815260200190815260200160002060009054906101000a900473ffffffffffffffffffffffffffffffffffffffff1690508160000160009054906101000a900473ffffffffffffffffffffffffffffffffffffffff1673ffffffffffffffffffffffffffffffffffffffff163373ffffffffffffffffffffffffffffffffffffffff161480610f5857508073ffffffffffffffffffffffffffffffffffffffff163373ffffffffffffffffffffffffffffffffffffffff16145b610f97576040517f08c379a0000000000000000000000000000000000000000000000000000000008152600401610f8e9061413c565b60405180910390fd5b600073ffffffffffffffffffffffffffffffffffffffff168173ffffffffffffffffffffffffffffffffffffffff16146110b957610fda30828460020154612355565b6000600e600085815260200190815260200160002060008373ffffffffffffffffffffffffffffffffffffffff1673ffffffffffffffffffffffffffffffffffffffff1681526020019081526020016000205490506000600e600086815260200190815260200160002060008473ffffffffffffffffffffffffffffffffffffffff1673ffffffffffffffffffffffffffffffffffffffff168152602001908152602001600020819055506110b38360000160009054906101000a900473ffffffffffffffffffffffffffffffffffffffff168261264e565b506110ed565b6110ec308360000160009054906101000a900473ffffffffffffffffffffffffffffffffffffffff168460020154612355565b5b60028260070160006101000a81548160ff021916908360ff1602179055508073ffffffffffffffffffffffffffffffffffffffff168260000160009054906101000a900473ffffffffffffffffffffffffffffffffffffffff1673ffffffffffffffffffffffffffffffffffffffff167f7e7751e116c86dcb924f03557ed09ee35423dfcfd5cb5c84da25efb40bbc291e85600e600088815260200190815260200160002060008673ffffffffffffffffffffffffffffffffffffffff1673ffffffffffffffffffffffffffffffffffffffff168152602001908152602001600020546040516111de9291906141a8565b60405180910390a350506111f0612778565b50565b600181565b611209611203612245565b82612782565b611248576040517f08c379a000000000000000000000000000000000000000000000000000000000815260040161123f90614256565b60405180910390fd5b611253838383612355565b505050565b600e602052816000526040600020602052806000526040600020600091509150505481565b611298838383604051806020016040528060008152506119b9565b505050565b600f6020528060005260406000206000915054906101000a900473ffffffffffffffffffffffffffffffffffffffff1681565b6112d8612306565b6112e181610dd3565b611320576040517f08c379a0000000000000000000000000000000000000000000000000000000008152600401611317906142c2565b60405180910390fd5b6000600d600083815260200190815260200160002090508060000160009054906101000a900473ffffffffffffffffffffffffffffffffffffffff1673ffffffffffffffffffffffffffffffffffffffff163373ffffffffffffffffffffffffffffffffffffffff16036113c9576040517f08c379a00000000000000000000000000000000000000000000000000000000081526004016113c09061432e565b60405180910390fd5b600034600e600085815260200190815260200160002060003373ffffffffffffffffffffffffffffffffffffffff1673ffffffffffffffffffffffffffffffffffffffff16815260200190815260200160002054611427919061434e565b90508160030154811015611470576040517f08c379a0000000000000000000000000000000000000000000000000000000008152600401611467906143f4565b60405180910390fd5b34600e600085815260200190815260200160002060003373ffffffffffffffffffffffffffffffffffffffff1673ffffffffffffffffffffffffffffffffffffffff16815260200190815260200160002060008282546114d0919061434e565b9250508190555033600f600085815260200190815260200160002060006101000a81548173ffffffffffffffffffffffffffffffffffffffff021916908373ffffffffffffffffffffffffffffffffffffffff1602179055506000600a54836003015461153d9190614443565b905080836003015461154f919061434e565b83600301819055503373ffffffffffffffffffffffffffffffffffffffff167f793c2bc8ccf2234e5e1cbd74248a00015d32ccc7c062247f5120abdbb911e80b858460405161159f9291906144c0565b60405180910390a25050506115b2612778565b50565b6000806115c260086121ec565b905060008190506000429050600085826115dc919061434e565b90506040518061010001604052803373ffffffffffffffffffffffffffffffffffffffff1681526020013073ffffffffffffffffffffffffffffffffffffffff168152602001888152602001898152602001898152602001838152602001828152602001600160ff16815250600d600085815260200190815260200160002060008201518160000160006101000a81548173ffffffffffffffffffffffffffffffffffffffff021916908373ffffffffffffffffffffffffffffffffffffffff16021790555060208201518160010160006101000a81548173ffffffffffffffffffffffffffffffffffffffff021916908373ffffffffffffffffffffffffffffffffffffffff16021790555060408201518160020155606082015181600301556080820151816004015560a0820151816005015560c0820151816006015560e08201518160070160006101000a81548160ff021916908360ff16021790555090505061174a333089612355565b3373ffffffffffffffffffffffffffffffffffffffff167fe3b4d5ceeb9bd4281ba3f05bf499516adb0de51dd1bbfc4516efbdb369ab7305848a8a8686604051611798959493929190614548565b60405180910390a2829450505050509392505050565b6000806117ba83612817565b9050600073ffffffffffffffffffffffffffffffffffffffff168173ffffffffffffffffffffffffffffffffffffffff160361182b576040517f08c379a0000000000000000000000000000000000000000000000000000000008152600401611822906145fa565b60405180910390fd5b80915050919050565b600a5481565b60008073ffffffffffffffffffffffffffffffffffffffff168273ffffffffffffffffffffffffffffffffffffffff16036118aa576040517f08c379a00000000000000000000000000000000000000000000000000000000081526004016118a19061468c565b60405180910390fd5b600360008373ffffffffffffffffffffffffffffffffffffffff1673ffffffffffffffffffffffffffffffffffffffff168152602001908152602001600020549050919050565b6000600c6000838152602001908152602001600020600201549050919050565b60606001805461192090613f09565b80601f016020809104026020016040519081016040528092919081815260200182805461194c90613f09565b80156119995780601f1061196e57610100808354040283529160200191611999565b820191906000526020600020905b81548152906001019060200180831161197c57829003601f168201915b5050505050905090565b6119b56119ae612245565b8383612854565b5050565b6119ca6119c4612245565b83612782565b611a09576040517f08c379a0000000000000000000000000000000000000000000000000000000008152600401611a0090614256565b60405180910390fd5b611a15848484846129c0565b50505050565b6000611a276008612a1c565b6000611a3360086121ec565b9050611a3f3382612a32565b611a498186612c4f565b611a548482856115b5565b50809150509392505050565b6000611a6c6008612a1c565b6000611a7860086121ec565b9050611a843382612a32565b611a8e8185612c4f565b611a988184612cf3565b8091505092915050565b6060611aad826121fa565b6000600660008481526020019081526020016000208054611acd90613f09565b80601f0160208091040260200160405190810160405280929190818152602001828054611af990613f09565b8015611b465780601f10611b1b57610100808354040283529160200191611b46565b820191906000526020600020905b815481529060010190602001808311611b2957829003601f168201915b505050505090506000611b57612e7f565b90506000815103611b6c578192505050611baf565b600082511115611ba1578082604051602001611b899291906146e8565b60405160208183030381529060405292505050611baf565b611baa84612e96565b925050505b919050565b600d6020528060005260406000206000915090508060000160009054906101000a900473ffffffffffffffffffffffffffffffffffffffff16908060010160009054906101000a900473ffffffffffffffffffffffffffffffffffffffff16908060020154908060030154908060040154908060050154908060060154908060070160009054906101000a900460ff16905088565b6000600560008473ffffffffffffffffffffffffffffffffffffffff1673ffffffffffffffffffffffffffffffffffffffff16815260200190815260200160002060008373ffffffffffffffffffffffffffffffffffffffff1673ffffffffffffffffffffffffffffffffffffffff16815260200190815260200160002060009054906101000a900460ff16905092915050565b6000600c60008381526020019081526020016000206002015490506000600c600084815260200190815260200160002060010160009054906101000a900473ffffffffffffffffffffffffffffffffffffffff169050813414611d75576040517f08c379a0000000000000000000000000000000000000000000000000000000008152600401611d6c90614758565b60405180910390fd5b60008173ffffffffffffffffffffffffffffffffffffffff1683604051611d9b906147a9565b60006040518083038185875af1925050503d8060008114611dd8576040519150601f19603f3d011682016040523d82523d6000602084013e611ddd565b606091505b5050905080611e21576040517f08c379a0000000000000000000000000000000000000000000000000000000008152600401611e189061480a565b60405180910390fd5b33600c600086815260200190815260200160002060000160006101000a81548173ffffffffffffffffffffffffffffffffffffffff021916908373ffffffffffffffffffffffffffffffffffffffff1602179055506000600c600086815260200190815260200160002060010160006101000a81548173ffffffffffffffffffffffffffffffffffffffff021916908373ffffffffffffffffffffffffffffffffffffffff1602179055506001600c600086815260200190815260200160002060030160006101000a81548160ff021916908315150217905550611f056009612a1c565b611f10303386612355565b7f6abf8fea1f4c585bf426b0fdbd54c0f004a746a4b6dcb76752a2d5d268f8730b84336000866001604051611f49959493929190614876565b60405180910390a150505050565b60606000611f6560086121ec565b905060008167ffffffffffffffff811115611f8357611f82613a5c565b5b604051908082528060200260200182016040528015611fbc57816020015b611fa9613380565b815260200190600190039081611fa15790505b50905060005b815181101561210157600c6000600183611fdc919061434e565b81526020019081526020016000206040518060a00160405290816000820160009054906101000a900473ffffffffffffffffffffffffffffffffffffffff1673ffffffffffffffffffffffffffffffffffffffff1673ffffffffffffffffffffffffffffffffffffffff1681526020016001820160009054906101000a900473ffffffffffffffffffffffffffffffffffffffff1673ffffffffffffffffffffffffffffffffffffffff1673ffffffffffffffffffffffffffffffffffffffff168152602001600282015481526020016003820160009054906101000a900460ff161515151581526020016004820154815250508282815181106120e3576120e2613eab565b5b602002602001018190525080806120f990613e63565b915050611fc2565b50809250505090565b60007f80ac58cd000000000000000000000000000000000000000000000000000000007bffffffffffffffffffffffffffffffffffffffffffffffffffffffff1916827bffffffffffffffffffffffffffffffffffffffffffffffffffffffff191614806121d557507f5b5e139f000000000000000000000000000000000000000000000000000000007bffffffffffffffffffffffffffffffffffffffffffffffffffffffff1916827bffffffffffffffffffffffffffffffffffffffffffffffffffffffff1916145b806121e557506121e482612efe565b5b9050919050565b600081600001549050919050565b61220381612f68565b612242576040517f08c379a0000000000000000000000000000000000000000000000000000000008152600401612239906145fa565b60405180910390fd5b50565b600033905090565b816004600083815260200190815260200160002060006101000a81548173ffffffffffffffffffffffffffffffffffffffff021916908373ffffffffffffffffffffffffffffffffffffffff160217905550808273ffffffffffffffffffffffffffffffffffffffff166122c0836117ae565b73ffffffffffffffffffffffffffffffffffffffff167f8c5be1e5ebec7d5bd14f71427d1e84f3dd0314c0f7b2291e5b200ac8c7c3b92560405160405180910390a45050565b60026007540361234b576040517f08c379a000000000000000000000000000000000000000000000000000000000815260040161234290614928565b60405180910390fd5b6002600781905550565b8273ffffffffffffffffffffffffffffffffffffffff16612375826117ae565b73ffffffffffffffffffffffffffffffffffffffff16146123cb576040517f08c379a00000000000000000000000000000000000000000000000000000000081526004016123c2906149ba565b60405180910390fd5b600073ffffffffffffffffffffffffffffffffffffffff168273ffffffffffffffffffffffffffffffffffffffff160361243a576040517f08c379a000000000000000000000000000000000000000000000000000000000815260040161243190614a4c565b60405180910390fd5b6124478383836001612fa9565b8273ffffffffffffffffffffffffffffffffffffffff16612467826117ae565b73ffffffffffffffffffffffffffffffffffffffff16146124bd576040517f08c379a00000000000000000000000000000000000000000000000000000000081526004016124b4906149ba565b60405180910390fd5b6004600082815260200190815260200160002060006101000a81549073ffffffffffffffffffffffffffffffffffffffff02191690556001600360008573ffffffffffffffffffffffffffffffffffffffff1673ffffffffffffffffffffffffffffffffffffffff168152602001908152602001600020600082825403925050819055506001600360008473ffffffffffffffffffffffffffffffffffffffff1673ffffffffffffffffffffffffffffffffffffffff16815260200190815260200160002060008282540192505081905550816002600083815260200190815260200160002060006101000a81548173ffffffffffffffffffffffffffffffffffffffff021916908373ffffffffffffffffffffffffffffffffffffffff160217905550808273ffffffffffffffffffffffffffffffffffffffff168473ffffffffffffffffffffffffffffffffffffffff167fddf252ad1be2c89b69c2b068fc378daa952ba7f163c4a11628f55a4df523b3ef60405160405180910390a46126498383836001612faf565b505050565b600081031561277457600073ffffffffffffffffffffffffffffffffffffffff168273ffffffffffffffffffffffffffffffffffffffff16036126c6576040517f08c379a00000000000000000000000000000000000000000000000000000000081526004016126bd90614ade565b60405180910390fd5b60008273ffffffffffffffffffffffffffffffffffffffff16826040516126ec906147a9565b60006040518083038185875af1925050503d8060008114612729576040519150601f19603f3d011682016040523d82523d6000602084013e61272e565b606091505b5050905080612772576040517f08c379a000000000000000000000000000000000000000000000000000000000815260040161276990614b4a565b60405180910390fd5b505b5050565b6001600781905550565b60008061278e836117ae565b90508073ffffffffffffffffffffffffffffffffffffffff168473ffffffffffffffffffffffffffffffffffffffff1614806127d057506127cf8185611c49565b5b8061280e57508373ffffffffffffffffffffffffffffffffffffffff166127f684610c76565b73ffffffffffffffffffffffffffffffffffffffff16145b91505092915050565b60006002600083815260200190815260200160002060009054906101000a900473ffffffffffffffffffffffffffffffffffffffff169050919050565b8173ffffffffffffffffffffffffffffffffffffffff168373ffffffffffffffffffffffffffffffffffffffff16036128c2576040517f08c379a00000000000000000000000000000000000000000000000000000000081526004016128b990614bb6565b60405180910390fd5b80600560008573ffffffffffffffffffffffffffffffffffffffff1673ffffffffffffffffffffffffffffffffffffffff16815260200190815260200160002060008473ffffffffffffffffffffffffffffffffffffffff1673ffffffffffffffffffffffffffffffffffffffff16815260200190815260200160002060006101000a81548160ff0219169083151502179055508173ffffffffffffffffffffffffffffffffffffffff168373ffffffffffffffffffffffffffffffffffffffff167f17307eab39ab6107e8899845ad3d59bd9653f200f220920489ca2b5937696c31836040516129b39190613491565b60405180910390a3505050565b6129cb848484612355565b6129d784848484612fb5565b612a16576040517f08c379a0000000000000000000000000000000000000000000000000000000008152600401612a0d90614c48565b60405180910390fd5b50505050565b6001816000016000828254019250508190555050565b600073ffffffffffffffffffffffffffffffffffffffff168273ffffffffffffffffffffffffffffffffffffffff1603612aa1576040517f08c379a0000000000000000000000000000000000000000000000000000000008152600401612a9890614cb4565b60405180910390fd5b612aaa81612f68565b15612aea576040517f08c379a0000000000000000000000000000000000000000000000000000000008152600401612ae190614d20565b60405180910390fd5b612af8600083836001612fa9565b612b0181612f68565b15612b41576040517f08c379a0000000000000000000000000000000000000000000000000000000008152600401612b3890614d20565b60405180910390fd5b6001600360008473ffffffffffffffffffffffffffffffffffffffff1673ffffffffffffffffffffffffffffffffffffffff16815260200190815260200160002060008282540192505081905550816002600083815260200190815260200160002060006101000a81548173ffffffffffffffffffffffffffffffffffffffff021916908373ffffffffffffffffffffffffffffffffffffffff160217905550808273ffffffffffffffffffffffffffffffffffffffff16600073ffffffffffffffffffffffffffffffffffffffff167fddf252ad1be2c89b69c2b068fc378daa952ba7f163c4a11628f55a4df523b3ef60405160405180910390a4612c4b600083836001612faf565b5050565b612c5882612f68565b612c97576040517f08c379a0000000000000000000000000000000000000000000000000000000008152600401612c8e90614db2565b60405180910390fd5b80600660008481526020019081526020016000209081612cb79190614f7e565b507ff8e1a15aba9398e019f0b49df1a4fde98ee17ae345cb5f6b5e2c27f5033e8ce782604051612ce7919061394b565b60405180910390a15050565b6000612cff60086121ec565b90506040518060a001604052803073ffffffffffffffffffffffffffffffffffffffff1681526020013373ffffffffffffffffffffffffffffffffffffffff16815260200183815260200160001515815260200184815250600c600083815260200190815260200160002060008201518160000160006101000a81548173ffffffffffffffffffffffffffffffffffffffff021916908373ffffffffffffffffffffffffffffffffffffffff16021790555060208201518160010160006101000a81548173ffffffffffffffffffffffffffffffffffffffff021916908373ffffffffffffffffffffffffffffffffffffffff1602179055506040820151816002015560608201518160030160006101000a81548160ff02191690831515021790555060808201518160040155905050612e3a333085612355565b7f6abf8fea1f4c585bf426b0fdbd54c0f004a746a4b6dcb76752a2d5d268f8730b833033856000604051612e7295949392919061509c565b60405180910390a1505050565b606060405180602001604052806000815250905090565b6060612ea1826121fa565b6000612eab612e7f565b90506000815111612ecb5760405180602001604052806000815250612ef6565b80612ed58461313c565b604051602001612ee69291906146e8565b6040516020818303038152906040525b915050919050565b60007f01ffc9a7000000000000000000000000000000000000000000000000000000007bffffffffffffffffffffffffffffffffffffffffffffffffffffffff1916827bffffffffffffffffffffffffffffffffffffffffffffffffffffffff1916149050919050565b60008073ffffffffffffffffffffffffffffffffffffffff16612f8a83612817565b73ffffffffffffffffffffffffffffffffffffffff1614159050919050565b50505050565b50505050565b6000612fd68473ffffffffffffffffffffffffffffffffffffffff1661320a565b1561312f578373ffffffffffffffffffffffffffffffffffffffff1663150b7a02612fff612245565b8786866040518563ffffffff1660e01b81526004016130219493929190615157565b6020604051808303816000875af192505050801561305d57506040513d601f19601f8201168201806040525081019061305a91906151b8565b60015b6130df573d806000811461308d576040519150601f19603f3d011682016040523d82523d6000602084013e613092565b606091505b5060008151036130d7576040517f08c379a00000000000000000000000000000000000000000000000000000000081526004016130ce90614c48565b60405180910390fd5b805181602001fd5b63150b7a0260e01b7bffffffffffffffffffffffffffffffffffffffffffffffffffffffff1916817bffffffffffffffffffffffffffffffffffffffffffffffffffffffff191614915050613134565b600190505b949350505050565b60606000600161314b8461322d565b01905060008167ffffffffffffffff81111561316a57613169613a5c565b5b6040519080825280601f01601f19166020018201604052801561319c5781602001600182028036833780820191505090505b509050600082602001820190505b6001156131ff578080600190039150507f3031323334353637383961626364656600000000000000000000000000000000600a86061a8153600a85816131f3576131f2614414565b5b049450600085036131aa575b819350505050919050565b6000808273ffffffffffffffffffffffffffffffffffffffff163b119050919050565b600080600090507a184f03e93ff9f4daa797ed6e38ed64bf6a1f010000000000000000831061328b577a184f03e93ff9f4daa797ed6e38ed64bf6a1f010000000000000000838161328157613280614414565b5b0492506040810190505b6d04ee2d6d415b85acef810000000083106132c8576d04ee2d6d415b85acef810000000083816132be576132bd614414565b5b0492506020810190505b662386f26fc1000083106132f757662386f26fc1000083816132ed576132ec614414565b5b0492506010810190505b6305f5e1008310613320576305f5e100838161331657613315614414565b5b0492506008810190505b612710831061334557612710838161333b5761333a614414565b5b0492506004810190505b60648310613368576064838161335e5761335d614414565b5b0492506002810190505b600a8310613377576001810190505b80915050919050565b6040518060a00160405280600073ffffffffffffffffffffffffffffffffffffffff168152602001600073ffffffffffffffffffffffffffffffffffffffff16815260200160008152602001600015158152602001600081525090565b6000604051905090565b600080fd5b600080fd5b60007fffffffff0000000000000000000000000000000000000000000000000000000082169050919050565b613426816133f1565b811461343157600080fd5b50565b6000813590506134438161341d565b92915050565b60006020828403121561345f5761345e6133e7565b5b600061346d84828501613434565b91505092915050565b60008115159050919050565b61348b81613476565b82525050565b60006020820190506134a66000830184613482565b92915050565b6000819050919050565b6134bf816134ac565b81146134ca57600080fd5b50565b6000813590506134dc816134b6565b92915050565b6000602082840312156134f8576134f76133e7565b5b6000613506848285016134cd565b91505092915050565b600073ffffffffffffffffffffffffffffffffffffffff82169050919050565b600061353a8261350f565b9050919050565b61354a8161352f565b82525050565b613559816134ac565b82525050565b61356881613476565b82525050565b60a0820160008201516135846000850182613541565b5060208201516135976020850182613541565b5060408201516135aa6040850182613550565b5060608201516135bd606085018261355f565b5060808201516135d06080850182613550565b50505050565b600060a0820190506135eb600083018461356e565b92915050565b600081519050919050565b600082825260208201905092915050565b6000819050602082019050919050565b60a0820160008201516136336000850182613541565b5060208201516136466020850182613541565b5060408201516136596040850182613550565b50606082015161366c606085018261355f565b50608082015161367f6080850182613550565b50505050565b6000613691838361361d565b60a08301905092915050565b6000602082019050919050565b60006136b5826135f1565b6136bf81856135fc565b93506136ca8361360d565b8060005b838110156136fb5781516136e28882613685565b97506136ed8361369d565b9250506001810190506136ce565b5085935050505092915050565b6000602082019050818103600083015261372281846136aa565b905092915050565b600081519050919050565b600082825260208201905092915050565b60005b83811015613764578082015181840152602081019050613749565b60008484015250505050565b6000601f19601f8301169050919050565b600061378c8261372a565b6137968185613735565b93506137a6818560208601613746565b6137af81613770565b840191505092915050565b600060208201905081810360008301526137d48184613781565b905092915050565b6137e58161352f565b82525050565b600060208201905061380060008301846137dc565b92915050565b61380f8161352f565b811461381a57600080fd5b50565b60008135905061382c81613806565b92915050565b60008060408385031215613849576138486133e7565b5b60006138578582860161381d565b9250506020613868858286016134cd565b9150509250929050565b600060ff82169050919050565b61388881613872565b82525050565b60006020820190506138a3600083018461387f565b92915050565b6000806000606084860312156138c2576138c16133e7565b5b60006138d08682870161381d565b93505060206138e18682870161381d565b92505060406138f2868287016134cd565b9150509250925092565b60008060408385031215613913576139126133e7565b5b6000613921858286016134cd565b92505060206139328582860161381d565b9150509250929050565b613945816134ac565b82525050565b6000602082019050613960600083018461393c565b92915050565b60008060006060848603121561397f5761397e6133e7565b5b600061398d868287016134cd565b935050602061399e868287016134cd565b92505060406139af868287016134cd565b9150509250925092565b6000602082840312156139cf576139ce6133e7565b5b60006139dd8482850161381d565b91505092915050565b6139ef81613476565b81146139fa57600080fd5b50565b600081359050613a0c816139e6565b92915050565b60008060408385031215613a2957613a286133e7565b5b6000613a378582860161381d565b9250506020613a48858286016139fd565b9150509250929050565b600080fd5b600080fd5b7f4e487b7100000000000000000000000000000000000000000000000000000000600052604160045260246000fd5b613a9482613770565b810181811067ffffffffffffffff82111715613ab357613ab2613a5c565b5b80604052505050565b6000613ac66133dd565b9050613ad28282613a8b565b919050565b600067ffffffffffffffff821115613af257613af1613a5c565b5b613afb82613770565b9050602081019050919050565b82818337600083830152505050565b6000613b2a613b2584613ad7565b613abc565b905082815260208101848484011115613b4657613b45613a57565b5b613b51848285613b08565b509392505050565b600082601f830112613b6e57613b6d613a52565b5b8135613b7e848260208601613b17565b91505092915050565b60008060008060808587031215613ba157613ba06133e7565b5b6000613baf8782880161381d565b9450506020613bc08782880161381d565b9350506040613bd1878288016134cd565b925050606085013567ffffffffffffffff811115613bf257613bf16133ec565b5b613bfe87828801613b59565b91505092959194509250565b600067ffffffffffffffff821115613c2557613c24613a5c565b5b613c2e82613770565b9050602081019050919050565b6000613c4e613c4984613c0a565b613abc565b905082815260208101848484011115613c6a57613c69613a57565b5b613c75848285613b08565b509392505050565b600082601f830112613c9257613c91613a52565b5b8135613ca2848260208601613c3b565b91505092915050565b600080600060608486031215613cc457613cc36133e7565b5b600084013567ffffffffffffffff811115613ce257613ce16133ec565b5b613cee86828701613c7d565b9350506020613cff868287016134cd565b9250506040613d10868287016134cd565b9150509250925092565b60008060408385031215613d3157613d306133e7565b5b600083013567ffffffffffffffff811115613d4f57613d4e6133ec565b5b613d5b85828601613c7d565b9250506020613d6c858286016134cd565b9150509250929050565b600061010082019050613d8c600083018b6137dc565b613d99602083018a6137dc565b613da6604083018961393c565b613db3606083018861393c565b613dc0608083018761393c565b613dcd60a083018661393c565b613dda60c083018561393c565b613de760e083018461387f565b9998505050505050505050565b60008060408385031215613e0b57613e0a6133e7565b5b6000613e198582860161381d565b9250506020613e2a8582860161381d565b9150509250929050565b7f4e487b7100000000000000000000000000000000000000000000000000000000600052601160045260246000fd5b6000613e6e826134ac565b91507fffffffffffffffffffffffffffffffffffffffffffffffffffffffffffffffff8203613ea057613e9f613e34565b5b600182019050919050565b7f4e487b7100000000000000000000000000000000000000000000000000000000600052603260045260246000fd5b7f4e487b7100000000000000000000000000000000000000000000000000000000600052602260045260246000fd5b60006002820490506001821680613f2157607f821691505b602082108103613f3457613f33613eda565b5b50919050565b7f4552433732313a20617070726f76616c20746f2063757272656e74206f776e6560008201527f7200000000000000000000000000000000000000000000000000000000000000602082015250565b6000613f96602183613735565b9150613fa182613f3a565b604082019050919050565b60006020820190508181036000830152613fc581613f89565b9050919050565b7f4552433732313a20617070726f76652063616c6c6572206973206e6f7420746f60008201527f6b656e206f776e6572206f7220617070726f76656420666f7220616c6c000000602082015250565b6000614028603d83613735565b915061403382613fcc565b604082019050919050565b600060208201905081810360008301526140578161401b565b9050919050565b7f61756374696f6e206973207374696c6c206f70656e0000000000000000000000600082015250565b6000614094601583613735565b915061409f8261405e565b602082019050919050565b600060208201905081810360008301526140c381614087565b9050919050565b7f6f6e6c792073656c6c6572206f722077696e6e65722063616e20636f6d706c6560008201527f74652061756374696f6e00000000000000000000000000000000000000000000602082015250565b6000614126602a83613735565b9150614131826140ca565b604082019050919050565b6000602082019050818103600083015261415581614119565b9050919050565b7f41756374696f6e20636f6d706c65746564207375636365737366756c6c790000600082015250565b6000614192601e83613735565b915061419d8261415c565b602082019050919050565b60006060820190506141bd600083018561393c565b6141ca602083018461393c565b81810360408301526141db81614185565b90509392505050565b7f4552433732313a2063616c6c6572206973206e6f7420746f6b656e206f776e6560008201527f72206f7220617070726f76656400000000000000000000000000000000000000602082015250565b6000614240602d83613735565b915061424b826141e4565b604082019050919050565b6000602082019050818103600083015261426f81614233565b9050919050565b7f61756374696f6e2068617320656e646564000000000000000000000000000000600082015250565b60006142ac601183613735565b91506142b782614276565b602082019050919050565b600060208201905081810360008301526142db8161429f565b9050919050565b7f63616e6e6f7420626964206f6e207768617420796f75206f776e000000000000600082015250565b6000614318601a83613735565b9150614323826142e2565b602082019050919050565b600060208201905081810360008301526143478161430b565b9050919050565b6000614359826134ac565b9150614364836134ac565b925082820190508082111561437c5761437b613e34565b5b92915050565b7f63616e6e6f74206269642062656c6f7720746865206c6174657374206269646460008201527f696e672070726963650000000000000000000000000000000000000000000000602082015250565b60006143de602983613735565b91506143e982614382565b604082019050919050565b6000602082019050818103600083015261440d816143d1565b9050919050565b7f4e487b7100000000000000000000000000000000000000000000000000000000600052601260045260246000fd5b600061444e826134ac565b9150614459836134ac565b92508261446957614468614414565b5b828204905092915050565b7f4269642063726561746564207375636365737366756c6c790000000000000000600082015250565b60006144aa601883613735565b91506144b582614474565b602082019050919050565b60006060820190506144d5600083018561393c565b6144e2602083018461393c565b81810360408301526144f38161449d565b90509392505050565b7f41756374696f6e2063726561746564207375636365737366756c6c7900000000600082015250565b6000614532601c83613735565b915061453d826144fc565b602082019050919050565b600060c08201905061455d600083018861393c565b61456a602083018761393c565b614577604083018661393c565b614584606083018561393c565b614591608083018461393c565b81810360a08301526145a281614525565b90509695505050505050565b7f4552433732313a20696e76616c696420746f6b656e2049440000000000000000600082015250565b60006145e4601883613735565b91506145ef826145ae565b602082019050919050565b60006020820190508181036000830152614613816145d7565b9050919050565b7f4552433732313a2061646472657373207a65726f206973206e6f74206120766160008201527f6c6964206f776e65720000000000000000000000000000000000000000000000602082015250565b6000614676602983613735565b91506146818261461a565b604082019050919050565b600060208201905081810360008301526146a581614669565b9050919050565b600081905092915050565b60006146c28261372a565b6146cc81856146ac565b93506146dc818560208601613746565b80840191505092915050565b60006146f482856146b7565b915061470082846146b7565b91508190509392505050565b7f696e636f727265637420616d6f756e7400000000000000000000000000000000600082015250565b6000614742601083613735565b915061474d8261470c565b602082019050919050565b6000602082019050818103600083015261477181614735565b9050919050565b600081905092915050565b50565b6000614793600083614778565b915061479e82614783565b600082019050919050565b60006147b482614786565b9150819050919050565b7f7061796d656e74206661696c6564000000000000000000000000000000000000600082015250565b60006147f4600e83613735565b91506147ff826147be565b602082019050919050565b60006020820190508181036000830152614823816147e7565b9050919050565b7f536f6c64204e4654207375636365737366756c6c790000000000000000000000600082015250565b6000614860601583613735565b915061486b8261482a565b602082019050919050565b600060c08201905061488b600083018861393c565b61489860208301876137dc565b6148a560408301866137dc565b6148b2606083018561393c565b6148bf6080830184613482565b81810360a08301526148d081614853565b90509695505050505050565b7f5265656e7472616e637947756172643a207265656e7472616e742063616c6c00600082015250565b6000614912601f83613735565b915061491d826148dc565b602082019050919050565b6000602082019050818103600083015261494181614905565b9050919050565b7f4552433732313a207472616e736665722066726f6d20696e636f72726563742060008201527f6f776e6572000000000000000000000000000000000000000000000000000000602082015250565b60006149a4602583613735565b91506149af82614948565b604082019050919050565b600060208201905081810360008301526149d381614997565b9050919050565b7f4552433732313a207472616e7366657220746f20746865207a65726f2061646460008201527f7265737300000000000000000000000000000000000000000000000000000000602082015250565b6000614a36602483613735565b9150614a41826149da565b604082019050919050565b60006020820190508181036000830152614a6581614a29565b9050919050565b7f4572726f722c2063616e6e6f74207472616e7366657220746f2061646472657360008201527f7328302900000000000000000000000000000000000000000000000000000000602082015250565b6000614ac8602483613735565b9150614ad382614a6c565b604082019050919050565b60006020820190508181036000830152614af781614abb565b9050919050565b7f4572726f722c206661696c656420746f2073656e642045746865720000000000600082015250565b6000614b34601b83613735565b9150614b3f82614afe565b602082019050919050565b60006020820190508181036000830152614b6381614b27565b9050919050565b7f4552433732313a20617070726f766520746f2063616c6c657200000000000000600082015250565b6000614ba0601983613735565b9150614bab82614b6a565b602082019050919050565b60006020820190508181036000830152614bcf81614b93565b9050919050565b7f4552433732313a207472616e7366657220746f206e6f6e20455243373231526560008201527f63656976657220696d706c656d656e7465720000000000000000000000000000602082015250565b6000614c32603283613735565b9150614c3d82614bd6565b604082019050919050565b60006020820190508181036000830152614c6181614c25565b9050919050565b7f4552433732313a206d696e7420746f20746865207a65726f2061646472657373600082015250565b6000614c9e602083613735565b9150614ca982614c68565b602082019050919050565b60006020820190508181036000830152614ccd81614c91565b9050919050565b7f4552433732313a20746f6b656e20616c7265616479206d696e74656400000000600082015250565b6000614d0a601c83613735565b9150614d1582614cd4565b602082019050919050565b60006020820190508181036000830152614d3981614cfd565b9050919050565b7f45524337323155524953746f726167653a2055524920736574206f66206e6f6e60008201527f6578697374656e7420746f6b656e000000000000000000000000000000000000602082015250565b6000614d9c602e83613735565b9150614da782614d40565b604082019050919050565b60006020820190508181036000830152614dcb81614d8f565b9050919050565b60008190508160005260206000209050919050565b60006020601f8301049050919050565b600082821b905092915050565b600060088302614e347fffffffffffffffffffffffffffffffffffffffffffffffffffffffffffffffff82614df7565b614e3e8683614df7565b95508019841693508086168417925050509392505050565b6000819050919050565b6000614e7b614e76614e71846134ac565b614e56565b6134ac565b9050919050565b6000819050919050565b614e9583614e60565b614ea9614ea182614e82565b848454614e04565b825550505050565b600090565b614ebe614eb1565b614ec9818484614e8c565b505050565b5b81811015614eed57614ee2600082614eb6565b600181019050614ecf565b5050565b601f821115614f3257614f0381614dd2565b614f0c84614de7565b81016020851015614f1b578190505b614f2f614f2785614de7565b830182614ece565b50505b505050565b600082821c905092915050565b6000614f5560001984600802614f37565b1980831691505092915050565b6000614f6e8383614f44565b9150826002028217905092915050565b614f878261372a565b67ffffffffffffffff811115614fa057614f9f613a5c565b5b614faa8254613f09565b614fb5828285614ef1565b600060209050601f831160018114614fe85760008415614fd6578287015190505b614fe08582614f62565b865550615048565b601f198416614ff686614dd2565b60005b8281101561501e57848901518255600182019150602085019450602081019050614ff9565b8683101561503b5784890151615037601f891682614f44565b8355505b6001600288020188555050505b505050505050565b7f4e46542063726561746564207375636365737366756c79000000000000000000600082015250565b6000615086601783613735565b915061509182615050565b602082019050919050565b600060c0820190506150b1600083018861393c565b6150be60208301876137dc565b6150cb60408301866137dc565b6150d8606083018561393c565b6150e56080830184613482565b81810360a08301526150f681615079565b90509695505050505050565b600081519050919050565b600082825260208201905092915050565b600061512982615102565b615133818561510d565b9350615143818560208601613746565b61514c81613770565b840191505092915050565b600060808201905061516c60008301876137dc565b61517960208301866137dc565b615186604083018561393c565b8181036060830152615198818461511e565b905095945050505050565b6000815190506151b28161341d565b92915050565b6000602082840312156151ce576151cd6133e7565b5b60006151dc848285016151a3565b9150509291505056fea26469706673582212200aef6b4479f9fe5a09be60bacea739ba14c4c7af05362c8987332f5c212a934364736f6c63430008130033",
  "linkReferences": {},
  "deployedLinkReferences": {}
}